{
  "contractName": "InventoryPayment",
  "abi": [
    {
      "anonymous": false,
      "inputs": [
        {
          "indexed": true,
          "internalType": "uint256",
          "name": "orderNo",
          "type": "uint256"
        },
        {
          "indexed": true,
          "internalType": "address",
          "name": "user",
          "type": "address"
        }
      ],
      "name": "OrderPlaced",
      "type": "event"
    },
    {
      "anonymous": false,
      "inputs": [
        {
          "indexed": true,
          "internalType": "uint256",
          "name": "orderNo",
          "type": "uint256"
        },
        {
          "indexed": true,
          "internalType": "address",
          "name": "supplier",
          "type": "address"
        },
        {
          "indexed": false,
          "internalType": "uint256",
          "name": "amount",
          "type": "uint256"
        }
      ],
      "name": "PaymentSent",
      "type": "event"
    },
    {
      "anonymous": false,
      "inputs": [
        {
          "indexed": true,
          "internalType": "uint256",
          "name": "productId",
          "type": "uint256"
        }
      ],
      "name": "ProductAdded",
      "type": "event"
    },
    {
      "anonymous": false,
      "inputs": [
        {
          "indexed": true,
          "internalType": "uint256",
          "name": "productId",
          "type": "uint256"
        }
      ],
      "name": "ProductDeleted",
      "type": "event"
    },
    {
      "anonymous": false,
      "inputs": [
        {
          "indexed": true,
          "internalType": "uint256",
          "name": "productId",
          "type": "uint256"
        }
      ],
      "name": "ProductUpdated",
      "type": "event"
    },
    {
      "inputs": [],
      "name": "orderCount",
      "outputs": [
        {
          "internalType": "uint256",
          "name": "",
          "type": "uint256"
        }
      ],
      "stateMutability": "view",
      "type": "function",
      "constant": true
    },
    {
      "inputs": [],
      "name": "productCount",
      "outputs": [
        {
          "internalType": "uint256",
          "name": "",
          "type": "uint256"
        }
      ],
      "stateMutability": "view",
      "type": "function",
      "constant": true
    },
    {
      "inputs": [
        {
          "internalType": "uint256",
          "name": "",
          "type": "uint256"
        }
      ],
      "name": "products",
      "outputs": [
        {
          "internalType": "uint256",
          "name": "productId",
          "type": "uint256"
        },
        {
          "internalType": "string",
          "name": "productName",
          "type": "string"
        },
        {
          "internalType": "uint256",
          "name": "productPrice",
          "type": "uint256"
        },
        {
          "internalType": "uint256",
          "name": "productQty",
          "type": "uint256"
        }
      ],
      "stateMutability": "view",
      "type": "function",
      "constant": true
    },
    {
      "inputs": [
        {
          "internalType": "address",
          "name": "",
          "type": "address"
        }
      ],
      "name": "userBankDetails",
      "outputs": [
        {
          "internalType": "uint256",
          "name": "id",
          "type": "uint256"
        },
        {
          "internalType": "string",
          "name": "bankName",
          "type": "string"
        },
        {
          "internalType": "uint256",
          "name": "bankAccountNumber",
          "type": "uint256"
        },
        {
          "internalType": "uint256",
          "name": "backupAmount",
          "type": "uint256"
        }
      ],
      "stateMutability": "view",
      "type": "function",
      "constant": true
    },
    {
      "inputs": [
        {
          "internalType": "address",
          "name": "",
          "type": "address"
        },
        {
          "internalType": "uint256",
          "name": "",
          "type": "uint256"
        }
      ],
      "name": "userOrders",
      "outputs": [
        {
          "internalType": "uint256",
          "name": "orderNo",
          "type": "uint256"
        },
        {
          "internalType": "uint256",
          "name": "orderDate",
          "type": "uint256"
        },
        {
          "internalType": "uint256",
          "name": "orderTotalAmount",
          "type": "uint256"
        },
        {
          "internalType": "bool",
          "name": "orderStatus",
          "type": "bool"
        }
      ],
      "stateMutability": "view",
      "type": "function",
      "constant": true
    },
    {
      "inputs": [
        {
          "internalType": "string",
          "name": "_productName",
          "type": "string"
        },
        {
          "internalType": "uint256",
          "name": "_productPrice",
          "type": "uint256"
        },
        {
          "internalType": "uint256",
          "name": "_productQty",
          "type": "uint256"
        }
      ],
      "name": "addProduct",
      "outputs": [],
      "stateMutability": "nonpayable",
      "type": "function"
    },
    {
      "inputs": [
        {
          "internalType": "uint256",
          "name": "_productId",
          "type": "uint256"
        }
      ],
      "name": "viewProduct",
      "outputs": [
        {
          "internalType": "string",
          "name": "productName",
          "type": "string"
        },
        {
          "internalType": "uint256",
          "name": "productPrice",
          "type": "uint256"
        },
        {
          "internalType": "uint256",
          "name": "productQty",
          "type": "uint256"
        }
      ],
      "stateMutability": "view",
      "type": "function",
      "constant": true
    },
    {
      "inputs": [
        {
          "internalType": "uint256",
          "name": "_productId",
          "type": "uint256"
        },
        {
          "internalType": "string",
          "name": "_newName",
          "type": "string"
        },
        {
          "internalType": "uint256",
          "name": "_newPrice",
          "type": "uint256"
        },
        {
          "internalType": "uint256",
          "name": "_newQty",
          "type": "uint256"
        }
      ],
      "name": "updateProduct",
      "outputs": [],
      "stateMutability": "nonpayable",
      "type": "function"
    },
    {
      "inputs": [
        {
          "internalType": "uint256",
          "name": "_productId",
          "type": "uint256"
        }
      ],
      "name": "deleteProduct",
      "outputs": [],
      "stateMutability": "nonpayable",
      "type": "function"
    },
    {
      "inputs": [],
      "name": "viewAllProducts",
      "outputs": [
        {
          "components": [
            {
              "internalType": "uint256",
              "name": "productId",
              "type": "uint256"
            },
            {
              "internalType": "string",
              "name": "productName",
              "type": "string"
            },
            {
              "internalType": "uint256",
              "name": "productPrice",
              "type": "uint256"
            },
            {
              "internalType": "uint256",
              "name": "productQty",
              "type": "uint256"
            }
          ],
          "internalType": "struct InventoryPayment.Product[]",
          "name": "",
          "type": "tuple[]"
        }
      ],
      "stateMutability": "view",
      "type": "function",
      "constant": true
    },
    {
      "inputs": [
        {
          "internalType": "string",
          "name": "_bankName",
          "type": "string"
        },
        {
          "internalType": "uint256",
          "name": "_bankAccountNumber",
          "type": "uint256"
        },
        {
          "internalType": "uint256",
          "name": "_backupAmount",
          "type": "uint256"
        }
      ],
      "name": "addUserBankDetails",
      "outputs": [],
      "stateMutability": "nonpayable",
      "type": "function"
    },
    {
      "inputs": [
        {
          "internalType": "uint256[]",
          "name": "_productIds",
          "type": "uint256[]"
        },
        {
          "internalType": "uint256[]",
          "name": "_productQtyOrder",
          "type": "uint256[]"
        }
      ],
      "name": "placeOrder",
      "outputs": [],
      "stateMutability": "nonpayable",
      "type": "function"
    },
    {
      "inputs": [
        {
          "internalType": "uint256",
          "name": "_orderNo",
          "type": "uint256"
        }
      ],
      "name": "receiveOrder",
      "outputs": [],
      "stateMutability": "nonpayable",
      "type": "function"
    },
    {
      "inputs": [
        {
          "internalType": "uint256",
          "name": "_orderNo",
          "type": "uint256"
        }
      ],
      "name": "paySupplier",
      "outputs": [],
      "stateMutability": "nonpayable",
      "type": "function"
    }
  ],
  "bytecode": "0x608060405234801561000f575f80fd5b506124098061001d5f395ff3fe608060405234801561000f575f80fd5b50600436106100e8575f3560e01c806397bab12f1161008a578063b2624e1711610064578063b2624e171461024d578063e0f6ef8714610269578063eafd4bbd14610287578063ed90c7b7146102b9576100e8565b806397bab12f146101e25780639aff51c6146101fe578063a1e8d06b1461021a576100e8565b8063598ae723116100c6578063598ae723146101425780635b1389af1461015e5780637acc0b201461017c578063856652e9146101af576100e8565b8063125b0b34146100ec5780632453ffa8146101085780632d56178714610126575b5f80fd5b61010660048036038101906101019190611631565b6102d5565b005b610110610387565b60405161011d91906116ac565b60405180910390f35b610140600480360381019061013b91906116c5565b61038d565b005b61015c60048036038101906101579190611745565b610448565b005b61016661063a565b6040516101739190611914565b60405180910390f35b61019660048036038101906101919190611745565b6107b0565b6040516101a6949392919061197c565b60405180910390f35b6101c960048036038101906101c49190611a20565b610862565b6040516101d99493929190611a78565b60405180910390f35b6101fc60048036038101906101f79190611745565b6108b4565b005b61021860048036038101906102139190611b7f565b610aca565b005b610234600480360381019061022f9190611bf5565b611013565b604051610244949392919061197c565b60405180910390f35b61026760048036038101906102629190611631565b6110c5565b005b6102716111fa565b60405161027e91906116ac565b60405180910390f35b6102a1600480360381019061029c9190611745565b6111ff565b6040516102b093929190611c20565b60405180910390f35b6102d360048036038101906102ce9190611745565b61133b565b005b5f808154809291906102e690611c89565b919050555060405180608001604052805f5481526020018481526020018381526020018281525060025f805481526020019081526020015f205f820151815f0155602082015181600101908161033c9190611eca565b5060408201518160020155606082015181600301559050505f547f4fc9d5acc453e78e01b205af5788a1c62f195c4b5cdc8eb8f1c670863b7e736a60405160405180910390a2505050565b60015481565b5f54841115801561039d57505f84115b6103dc576040517f08c379a00000000000000000000000000000000000000000000000000000000081526004016103d390611fe3565b60405180910390fd5b5f60025f8681526020019081526020015f209050838160010190816104019190611eca565b50828160020181905550818160030181905550847feca6714fcf568fb34cf9db4a414cb0cc48e93c5d4e1ba0582a46ea3704cf24d560405160405180910390a25050505050565b5f60035f3373ffffffffffffffffffffffffffffffffffffffff1673ffffffffffffffffffffffffffffffffffffffff1681526020019081526020015f2090505f5b818054905081101561063557828282815481106104aa576104a9612001565b5b905f5260205f2090600502015f01541480156104f157508181815481106104d4576104d3612001565b5b905f5260205f2090600502016003015f9054906101000a900460ff165b15610622575f82828154811061050a57610509612001565b5b905f5260205f2090600502016002015490505f60045f3373ffffffffffffffffffffffffffffffffffffffff1673ffffffffffffffffffffffffffffffffffffffff1681526020019081526020015f2090508181600201548260030154610571919061202e565b10156105b2576040517f08c379a00000000000000000000000000000000000000000000000000000000081526004016105a9906120ab565b60405180910390fd5b81816003015f8282546105c591906120c9565b925050819055503373ffffffffffffffffffffffffffffffffffffffff16857f952e5301753c5bc62cbfbdbe1b6553cd54796e01da9cfeaaf29921d6ede1a7268460405161061391906116ac565b60405180910390a35050610635565b808061062d90611c89565b91505061048a565b505050565b60605f805467ffffffffffffffff811115610658576106576114da565b5b60405190808252806020026020018201604052801561069157816020015b61067e6113f1565b8152602001906001900390816106765790505b5090505f600190505b5f5481116107a85760025f8281526020019081526020015f206040518060800160405290815f82015481526020016001820180546106d790611cfd565b80601f016020809104026020016040519081016040528092919081815260200182805461070390611cfd565b801561074e5780601f106107255761010080835404028352916020019161074e565b820191905f5260205f20905b81548152906001019060200180831161073157829003601f168201915b50505050508152602001600282015481526020016003820154815250508260018361077991906120c9565b8151811061078a57610789612001565b5b602002602001018190525080806107a090611c89565b91505061069a565b508091505090565b6002602052805f5260405f205f91509050805f0154908060010180546107d590611cfd565b80601f016020809104026020016040519081016040528092919081815260200182805461080190611cfd565b801561084c5780601f106108235761010080835404028352916020019161084c565b820191905f5260205f20905b81548152906001019060200180831161082f57829003601f168201915b5050505050908060020154908060030154905084565b6003602052815f5260405f20818154811061087b575f80fd5b905f5260205f2090600502015f9150915050805f015490806001015490806002015490806003015f9054906101000a900460ff16905084565b5f60035f3373ffffffffffffffffffffffffffffffffffffffff1673ffffffffffffffffffffffffffffffffffffffff1681526020019081526020015f2090505f805b8280549050811015610a84578383828154811061091757610916612001565b5b905f5260205f2090600502015f015414801561095f575082818154811061094157610940612001565b5b905f5260205f2090600502016003015f9054906101000a900460ff16155b15610a7157600183828154811061097957610978612001565b5b905f5260205f2090600502016003015f6101000a81548160ff0219169083151502179055505f600190505b5f548111610a67575f8483815481106109c0576109bf612001565b5b905f5260205f2090600502016004015f8381526020019081526020015f205f015414610a54578382815481106109f9576109f8612001565b5b905f5260205f2090600502016004015f8281526020019081526020015f2060010154848381548110610a2e57610a2d612001565b5b905f5260205f2090600502016004015f8381526020019081526020015f20600201819055505b8080610a5f90611c89565b9150506109a4565b5060019150610a84565b8080610a7c90611c89565b9150506108f7565b5080610ac5576040517f08c379a0000000000000000000000000000000000000000000000000000000008152600401610abc9061216c565b60405180910390fd5b505050565b8051825114610b0e576040517f08c379a0000000000000000000000000000000000000000000000000000000008152600401610b05906121d4565b60405180910390fd5b5f80835167ffffffffffffffff811115610b2b57610b2a6114da565b5b604051908082528060200260200182016040528015610b6457816020015b610b51611416565b815260200190600190039081610b495790505b5090505f5b8451811015610d70575f54858281518110610b8757610b86612001565b5b602002602001015111158015610bb657505f858281518110610bac57610bab612001565b5b6020026020010151115b610bf5576040517f08c379a0000000000000000000000000000000000000000000000000000000008152600401610bec90611fe3565b60405180910390fd5b5f60025f878481518110610c0c57610c0b612001565b5b602002602001015181526020019081526020015f209050848281518110610c3657610c35612001565b5b602002602001015181600301541015610c84576040517f08c379a0000000000000000000000000000000000000000000000000000000008152600401610c7b9061223c565b60405180910390fd5b848281518110610c9757610c96612001565b5b60200260200101518160020154610cae919061225a565b84610cb9919061202e565b93506040518060600160405280878481518110610cd957610cd8612001565b5b60200260200101518152602001868481518110610cf957610cf8612001565b5b602002602001015181526020015f815250838381518110610d1d57610d1c612001565b5b6020026020010181905250848281518110610d3b57610d3a612001565b5b6020026020010151816003015f828254610d5591906120c9565b92505081905550508080610d6890611c89565b915050610b69565b505f8211610db3576040517f08c379a0000000000000000000000000000000000000000000000000000000008152600401610daa906122e5565b60405180910390fd5b5f60045f3373ffffffffffffffffffffffffffffffffffffffff1673ffffffffffffffffffffffffffffffffffffffff1681526020019081526020015f2090505f816002015403610e39576040517f08c379a0000000000000000000000000000000000000000000000000000000008152600401610e309061234d565b60405180910390fd5b8281600201548260030154610e4e919061202e565b1015610e8f576040517f08c379a0000000000000000000000000000000000000000000000000000000008152600401610e86906120ab565b60405180910390fd5b60015f815480929190610ea190611c89565b91905055505f60015490505f60035f3373ffffffffffffffffffffffffffffffffffffffff1673ffffffffffffffffffffffffffffffffffffffff1681526020019081526020015f2060018160018154018082558091505003905f5260205f209060050201905081815f01819055504281600101819055508481600201819055505f816003015f6101000a81548160ff0219169083151502179055505f5b8451811015610fc557848181518110610f5b57610f5a612001565b5b6020026020010151826004015f878481518110610f7b57610f7a612001565b5b60200260200101515f015181526020019081526020015f205f820151815f015560208201518160010155604082015181600201559050508080610fbd90611c89565b915050610f3f565b503373ffffffffffffffffffffffffffffffffffffffff16827f5222ba5f86a58ad15e7771bd95a809f162ae1762ea7cd66e28a58217341334cc60405160405180910390a350505050505050565b6004602052805f5260405f205f91509050805f01549080600101805461103890611cfd565b80601f016020809104026020016040519081016040528092919081815260200182805461106490611cfd565b80156110af5780601f10611086576101008083540402835291602001916110af565b820191905f5260205f20905b81548152906001019060200180831161109257829003601f168201915b5050505050908060020154908060030154905084565b5f60045f3373ffffffffffffffffffffffffffffffffffffffff1673ffffffffffffffffffffffffffffffffffffffff1681526020019081526020015f20600101805461111190611cfd565b905014611153576040517f08c379a000000000000000000000000000000000000000000000000000000000815260040161114a906123b5565b60405180910390fd5b61115b611434565b42815f01818152505083816020018190525082816040018181525050818160600181815250508060045f3373ffffffffffffffffffffffffffffffffffffffff1673ffffffffffffffffffffffffffffffffffffffff1681526020019081526020015f205f820151815f015560208201518160010190816111dc9190611eca565b50604082015181600201556060820151816003015590505050505050565b5f5481565b60605f805f54841115801561121357505f84115b611252576040517f08c379a000000000000000000000000000000000000000000000000000000000815260040161124990611fe3565b60405180910390fd5b5f60025f8681526020019081526020015f206040518060800160405290815f820154815260200160018201805461128890611cfd565b80601f01602080910402602001604051908101604052809291908181526020018280546112b490611cfd565b80156112ff5780601f106112d6576101008083540402835291602001916112ff565b820191905f5260205f20905b8154815290600101906020018083116112e257829003601f168201915b50505050508152602001600282015481526020016003820154815250509050806020015181604001518260600151935093509350509193909250565b5f54811115801561134b57505f81115b61138a576040517f08c379a000000000000000000000000000000000000000000000000000000000815260040161138190611fe3565b60405180910390fd5b60025f8281526020019081526020015f205f8082015f9055600182015f6113b19190611459565b600282015f9055600382015f90555050807fc341cf326465fe622f86c468249e8c0cb03ed23ba376a6a34863a1374ac7d76960405160405180910390a250565b60405180608001604052805f8152602001606081526020015f81526020015f81525090565b60405180606001604052805f81526020015f81526020015f81525090565b60405180608001604052805f8152602001606081526020015f81526020015f81525090565b50805461146590611cfd565b5f825580601f106114765750611493565b601f0160209004905f5260205f20908101906114929190611496565b5b50565b5b808211156114ad575f815f905550600101611497565b5090565b5f604051905090565b5f80fd5b5f80fd5b5f80fd5b5f80fd5b5f601f19601f8301169050919050565b7f4e487b71000000000000000000000000000000000000000000000000000000005f52604160045260245ffd5b611510826114ca565b810181811067ffffffffffffffff8211171561152f5761152e6114da565b5b80604052505050565b5f6115416114b1565b905061154d8282611507565b919050565b5f67ffffffffffffffff82111561156c5761156b6114da565b5b611575826114ca565b9050602081019050919050565b828183375f83830152505050565b5f6115a261159d84611552565b611538565b9050828152602081018484840111156115be576115bd6114c6565b5b6115c9848285611582565b509392505050565b5f82601f8301126115e5576115e46114c2565b5b81356115f5848260208601611590565b91505092915050565b5f819050919050565b611610816115fe565b811461161a575f80fd5b50565b5f8135905061162b81611607565b92915050565b5f805f60608486031215611648576116476114ba565b5b5f84013567ffffffffffffffff811115611665576116646114be565b5b611671868287016115d1565b93505060206116828682870161161d565b92505060406116938682870161161d565b9150509250925092565b6116a6816115fe565b82525050565b5f6020820190506116bf5f83018461169d565b92915050565b5f805f80608085870312156116dd576116dc6114ba565b5b5f6116ea8782880161161d565b945050602085013567ffffffffffffffff81111561170b5761170a6114be565b5b611717878288016115d1565b93505060406117288782880161161d565b92505060606117398782880161161d565b91505092959194509250565b5f6020828403121561175a576117596114ba565b5b5f6117678482850161161d565b91505092915050565b5f81519050919050565b5f82825260208201905092915050565b5f819050602082019050919050565b6117a2816115fe565b82525050565b5f81519050919050565b5f82825260208201905092915050565b5f5b838110156117df5780820151818401526020810190506117c4565b5f8484015250505050565b5f6117f4826117a8565b6117fe81856117b2565b935061180e8185602086016117c2565b611817816114ca565b840191505092915050565b5f608083015f8301516118375f860182611799565b506020830151848203602086015261184f82826117ea565b91505060408301516118646040860182611799565b5060608301516118776060860182611799565b508091505092915050565b5f61188d8383611822565b905092915050565b5f602082019050919050565b5f6118ab82611770565b6118b5818561177a565b9350836020820285016118c78561178a565b805f5b8581101561190257848403895281516118e38582611882565b94506118ee83611895565b925060208a019950506001810190506118ca565b50829750879550505050505092915050565b5f6020820190508181035f83015261192c81846118a1565b905092915050565b5f82825260208201905092915050565b5f61194e826117a8565b6119588185611934565b93506119688185602086016117c2565b611971816114ca565b840191505092915050565b5f60808201905061198f5f83018761169d565b81810360208301526119a18186611944565b90506119b0604083018561169d565b6119bd606083018461169d565b95945050505050565b5f73ffffffffffffffffffffffffffffffffffffffff82169050919050565b5f6119ef826119c6565b9050919050565b6119ff816119e5565b8114611a09575f80fd5b50565b5f81359050611a1a816119f6565b92915050565b5f8060408385031215611a3657611a356114ba565b5b5f611a4385828601611a0c565b9250506020611a548582860161161d565b9150509250929050565b5f8115159050919050565b611a7281611a5e565b82525050565b5f608082019050611a8b5f83018761169d565b611a98602083018661169d565b611aa5604083018561169d565b611ab26060830184611a69565b95945050505050565b5f67ffffffffffffffff821115611ad557611ad46114da565b5b602082029050602081019050919050565b5f80fd5b5f611afc611af784611abb565b611538565b90508083825260208201905060208402830185811115611b1f57611b1e611ae6565b5b835b81811015611b485780611b34888261161d565b845260208401935050602081019050611b21565b5050509392505050565b5f82601f830112611b6657611b656114c2565b5b8135611b76848260208601611aea565b91505092915050565b5f8060408385031215611b9557611b946114ba565b5b5f83013567ffffffffffffffff811115611bb257611bb16114be565b5b611bbe85828601611b52565b925050602083013567ffffffffffffffff811115611bdf57611bde6114be565b5b611beb85828601611b52565b9150509250929050565b5f60208284031215611c0a57611c096114ba565b5b5f611c1784828501611a0c565b91505092915050565b5f6060820190508181035f830152611c388186611944565b9050611c47602083018561169d565b611c54604083018461169d565b949350505050565b7f4e487b71000000000000000000000000000000000000000000000000000000005f52601160045260245ffd5b5f611c93826115fe565b91507fffffffffffffffffffffffffffffffffffffffffffffffffffffffffffffffff8203611cc557611cc4611c5c565b5b600182019050919050565b7f4e487b71000000000000000000000000000000000000000000000000000000005f52602260045260245ffd5b5f6002820490506001821680611d1457607f821691505b602082108103611d2757611d26611cd0565b5b50919050565b5f819050815f5260205f209050919050565b5f6020601f8301049050919050565b5f82821b905092915050565b5f60088302611d897fffffffffffffffffffffffffffffffffffffffffffffffffffffffffffffffff82611d4e565b611d938683611d4e565b95508019841693508086168417925050509392505050565b5f819050919050565b5f611dce611dc9611dc4846115fe565b611dab565b6115fe565b9050919050565b5f819050919050565b611de783611db4565b611dfb611df382611dd5565b848454611d5a565b825550505050565b5f90565b611e0f611e03565b611e1a818484611dde565b505050565b5b81811015611e3d57611e325f82611e07565b600181019050611e20565b5050565b601f821115611e8257611e5381611d2d565b611e5c84611d3f565b81016020851015611e6b578190505b611e7f611e7785611d3f565b830182611e1f565b50505b505050565b5f82821c905092915050565b5f611ea25f1984600802611e87565b1980831691505092915050565b5f611eba8383611e93565b9150826002028217905092915050565b611ed3826117a8565b67ffffffffffffffff811115611eec57611eeb6114da565b5b611ef68254611cfd565b611f01828285611e41565b5f60209050601f831160018114611f32575f8415611f20578287015190505b611f2a8582611eaf565b865550611f91565b601f198416611f4086611d2d565b5f5b82811015611f6757848901518255600182019150602085019450602081019050611f42565b86831015611f845784890151611f80601f891682611e93565b8355505b6001600288020188555050505b505050505050565b7f496e76616c69642070726f6475637420494400000000000000000000000000005f82015250565b5f611fcd601283611934565b9150611fd882611f99565b602082019050919050565b5f6020820190508181035f830152611ffa81611fc1565b9050919050565b7f4e487b71000000000000000000000000000000000000000000000000000000005f52603260045260245ffd5b5f612038826115fe565b9150612043836115fe565b925082820190508082111561205b5761205a611c5c565b5b92915050565b7f496e73756666696369656e742062616c616e63650000000000000000000000005f82015250565b5f612095601483611934565b91506120a082612061565b602082019050919050565b5f6020820190508181035f8301526120c281612089565b9050919050565b5f6120d3826115fe565b91506120de836115fe565b92508282039050818111156120f6576120f5611c5c565b5b92915050565b7f4f72646572206e6f7420666f756e64206f7220616c72656164792072656365695f8201527f7665640000000000000000000000000000000000000000000000000000000000602082015250565b5f612156602383611934565b9150612161826120fc565b604082019050919050565b5f6020820190508181035f8301526121838161214a565b9050919050565b7f4c656e677468206d69736d6174636800000000000000000000000000000000005f82015250565b5f6121be600f83611934565b91506121c98261218a565b602082019050919050565b5f6020820190508181035f8301526121eb816121b2565b9050919050565b7f496e73756666696369656e742070726f64756374207175616e746974790000005f82015250565b5f612226601d83611934565b9150612231826121f2565b602082019050919050565b5f6020820190508181035f8301526122538161221a565b9050919050565b5f612264826115fe565b915061226f836115fe565b925082820261227d816115fe565b9150828204841483151761229457612293611c5c565b5b5092915050565b7f546f74616c20616d6f756e742063616e6e6f74206265207a65726f00000000005f82015250565b5f6122cf601b83611934565b91506122da8261229b565b602082019050919050565b5f6020820190508181035f8301526122fc816122c3565b9050919050565b7f42616e6b2064657461696c73206e6f74206164646564000000000000000000005f82015250565b5f612337601683611934565b915061234282612303565b602082019050919050565b5f6020820190508181035f8301526123648161232b565b9050919050565b7f42616e6b2064657461696c7320616c72656164792061646465640000000000005f82015250565b5f61239f601a83611934565b91506123aa8261236b565b602082019050919050565b5f6020820190508181035f8301526123cc81612393565b905091905056fea2646970667358221220a0e375af9f81cb3b022605efa16f83233826ad4247743254d34498b614782d6d64736f6c63430008150033",
  "immutableReferences": {},
  "source": "// SPDX-License-Identifier: GPL-3.0\r\n\r\npragma solidity >=0.7.0 <0.9.0;\r\n\r\ncontract InventoryPayment {\r\n    struct Order {\r\n        uint256 orderNo;\r\n        uint256 orderDate;\r\n        uint256 orderTotalAmount;\r\n        bool orderStatus;\r\n        mapping(uint256 => OrderDetail) orderDetails; // Mapping product IDs to OrderDetail structs\r\n    }\r\n\r\n    struct Product {\r\n        uint256 productId;\r\n        string productName;\r\n        uint256 productPrice;\r\n        uint256 productQty;\r\n    }\r\n\r\n    struct OrderDetail {\r\n        uint256 productId;\r\n        uint256 productQtyOrder;\r\n        uint256 productQtyReceived;\r\n    }\r\n\r\n    struct Bank {\r\n        uint256 id;\r\n        string bankName;\r\n        uint256 bankAccountNumber;\r\n        uint256 backupAmount;\r\n    }\r\n    uint256 public productCount;\r\n    uint256 public orderCount;\r\n    \r\n    mapping(uint256 => Product) public products;\r\n    mapping(address => Order[]) public userOrders;\r\n    mapping(address => Bank) public userBankDetails;\r\n\r\n    event OrderPlaced(uint256 indexed orderNo, address indexed user);\r\n    event ProductAdded(uint256 indexed productId);\r\n    event ProductUpdated(uint256 indexed productId);\r\n    event ProductDeleted(uint256 indexed productId);\r\n    event PaymentSent(uint256 indexed orderNo, address indexed supplier, uint256 amount);\r\n\r\n    // Function to add a new product\r\n    function addProduct(string memory _productName, uint256 _productPrice, uint256 _productQty) external {\r\n        productCount++;\r\n        products[productCount] = Product(productCount, _productName, _productPrice, _productQty);\r\n        emit ProductAdded(productCount);\r\n    }\r\n\r\n    // Function to view details of a specific product\r\n    function viewProduct(uint256 _productId) external view returns (\r\n        string memory productName,\r\n        uint256 productPrice,\r\n        uint256 productQty\r\n    ) {\r\n        require(_productId <= productCount && _productId > 0, \"Invalid product ID\");\r\n        Product memory product = products[_productId];\r\n        return (product.productName, product.productPrice, product.productQty);\r\n    }\r\n\r\n    // Function to update details of a product\r\n    function updateProduct(uint256 _productId, string memory _newName, uint256 _newPrice, uint256 _newQty) external {\r\n        require(_productId <= productCount && _productId > 0, \"Invalid product ID\");\r\n        Product storage product = products[_productId];\r\n        product.productName = _newName;\r\n        product.productPrice = _newPrice;\r\n        product.productQty = _newQty;\r\n        emit ProductUpdated(_productId);\r\n    }\r\n\r\n    // Function to delete a product\r\n    function deleteProduct(uint256 _productId) external {\r\n        require(_productId <= productCount && _productId > 0, \"Invalid product ID\");\r\n        delete products[_productId];\r\n        emit ProductDeleted(_productId);\r\n    }\r\n\r\n    // Function to view all products\r\n    function viewAllProducts() external view returns (Product[] memory) {\r\n        Product[] memory allProducts = new Product[](productCount);\r\n        for (uint256 i = 1; i <= productCount; i++) {\r\n            allProducts[i - 1] = products[i];\r\n        }\r\n        return allProducts;\r\n    }\r\n\r\n    // Function to add user bank details\r\n    function addUserBankDetails(\r\n        string memory _bankName,\r\n        uint256 _bankAccountNumber,\r\n        uint256 _backupAmount\r\n    ) external {\r\n        require(\r\n            bytes(userBankDetails[msg.sender].bankName).length == 0,\r\n            \"Bank details already added\"\r\n        );\r\n\r\n        Bank memory newUserBankDetails;\r\n        newUserBankDetails.id = block.timestamp; // Use timestamp as bank id\r\n        newUserBankDetails.bankName = _bankName;\r\n        newUserBankDetails.bankAccountNumber = _bankAccountNumber;\r\n        newUserBankDetails.backupAmount = _backupAmount;\r\n\r\n        userBankDetails[msg.sender] = newUserBankDetails;\r\n    }\r\n\r\n    // Function to place an order\r\n    function placeOrder(uint256[] memory _productIds, uint256[] memory _productQtyOrder) external {\r\n        require(_productIds.length == _productQtyOrder.length, \"Length mismatch\");\r\n        \r\n        uint256 totalAmount = 0;\r\n        OrderDetail[] memory orderDetails = new OrderDetail[](_productIds.length);\r\n        for (uint256 i = 0; i < _productIds.length; i++) {\r\n            require(_productIds[i] <= productCount && _productIds[i] > 0, \"Invalid product ID\");\r\n            Product storage product = products[_productIds[i]];\r\n            require(product.productQty >= _productQtyOrder[i], \"Insufficient product quantity\");\r\n            totalAmount += product.productPrice * _productQtyOrder[i];\r\n            orderDetails[i] = OrderDetail(_productIds[i], _productQtyOrder[i], 0); // Initialize received quantity as 0\r\n            product.productQty -= _productQtyOrder[i]; // Update product quantity\r\n        }\r\n        \r\n        require(totalAmount > 0, \"Total amount cannot be zero\");\r\n        \r\n        Bank storage userBank = userBankDetails[msg.sender];\r\n        require(userBank.bankAccountNumber != 0, \"Bank details not added\");\r\n        require(userBank.backupAmount + userBank.bankAccountNumber >= totalAmount, \"Insufficient balance\");\r\n        \r\n        orderCount++;\r\n        uint256 orderNo = orderCount; // Use sequential order number\r\n        Order storage newOrder = userOrders[msg.sender].push();\r\n        newOrder.orderNo = orderNo;\r\n        newOrder.orderDate = block.timestamp;\r\n        newOrder.orderTotalAmount = totalAmount;\r\n        newOrder.orderStatus = false;\r\n        \r\n        for (uint256 i = 0; i < orderDetails.length; i++) {\r\n            newOrder.orderDetails[orderDetails[i].productId] = orderDetails[i];\r\n        }\r\n        \r\n        emit OrderPlaced(orderNo, msg.sender);\r\n    }\r\n\r\n\r\n    // Function to mark an order as received\r\n    function receiveOrder(uint256 _orderNo) external {\r\n        Order[] storage orders = userOrders[msg.sender];\r\n        bool orderFound = false;\r\n        for (uint256 i = 0; i < orders.length; i++) {\r\n            if (orders[i].orderNo == _orderNo && !orders[i].orderStatus) {\r\n                orders[i].orderStatus = true;\r\n                for (uint256 productId = 1; productId <= productCount; productId++) {\r\n                    if (orders[i].orderDetails[productId].productId != 0) {\r\n                        orders[i].orderDetails[productId].productQtyReceived = orders[i].orderDetails[productId].productQtyOrder;\r\n                    }\r\n                }\r\n                orderFound = true;\r\n                break;\r\n            }\r\n        }\r\n        require(orderFound, \"Order not found or already received\");\r\n    }\r\n\r\n\r\n\r\n    // Function to pay a supplier for a received order\r\n    function paySupplier(uint256 _orderNo) external {\r\n        Order[] storage orders = userOrders[msg.sender];\r\n        for (uint256 i = 0; i < orders.length; i++) {\r\n            if (orders[i].orderNo == _orderNo && orders[i].orderStatus) {\r\n                uint256 totalAmount = orders[i].orderTotalAmount;\r\n                Bank storage userBank = userBankDetails[msg.sender];\r\n                require(userBank.backupAmount + userBank.bankAccountNumber >= totalAmount, \"Insufficient balance\");\r\n\r\n                // Logic to transfer funds to supplier's account\r\n                // Assuming funds transfer logic is implemented elsewhere\r\n                \r\n                // Updating user's bank balance\r\n                userBank.backupAmount -= totalAmount;\r\n                emit PaymentSent(_orderNo, msg.sender, totalAmount);\r\n                break;\r\n            }\r\n        }\r\n    }\r\n}\r\n",
  "sourcePath": "G:\\Ravensbourne\\SEM-2\\WEB3-BLOCKCHAIN\\react\\inventorypaymentsystem\\contracts\\InventoryPayment.sol",
  "compiler": {
    "name": "solc",
    "version": "0.8.21+commit.d9974bed.Emscripten.clang"
  },
  "schemaVersion": "3.4.16",
  "updatedAt": "2024-03-21T00:18:50.090Z",
  "networkType": "ethereum",
  "devdoc": {
    "kind": "dev",
    "methods": {},
    "version": 1
  },
  "userdoc": {
    "kind": "user",
    "methods": {},
    "version": 1
  }
}