{
  "contractName": "InventoryPayment",
  "abi": [
    {
      "anonymous": false,
      "inputs": [
        {
          "indexed": true,
          "internalType": "uint256",
          "name": "bankId",
          "type": "uint256"
        }
      ],
      "name": "BankAdded",
      "type": "event"
    },
    {
      "anonymous": false,
      "inputs": [
        {
          "indexed": true,
          "internalType": "uint256",
          "name": "bankId",
          "type": "uint256"
        }
      ],
      "name": "BankDeleted",
      "type": "event"
    },
    {
      "anonymous": false,
      "inputs": [
        {
          "indexed": true,
          "internalType": "uint256",
          "name": "bankId",
          "type": "uint256"
        }
      ],
      "name": "BankUpdated",
      "type": "event"
    },
    {
      "anonymous": false,
      "inputs": [
        {
          "indexed": true,
          "internalType": "uint256",
          "name": "orderNo",
          "type": "uint256"
        },
        {
          "indexed": true,
          "internalType": "address",
          "name": "user",
          "type": "address"
        }
      ],
      "name": "OrderPlaced",
      "type": "event"
    },
    {
      "anonymous": false,
      "inputs": [
        {
          "indexed": true,
          "internalType": "uint256",
          "name": "orderNo",
          "type": "uint256"
        },
        {
          "indexed": true,
          "internalType": "address",
          "name": "supplier",
          "type": "address"
        },
        {
          "indexed": false,
          "internalType": "uint256",
          "name": "amount",
          "type": "uint256"
        }
      ],
      "name": "PaymentSent",
      "type": "event"
    },
    {
      "anonymous": false,
      "inputs": [
        {
          "indexed": true,
          "internalType": "uint256",
          "name": "productId",
          "type": "uint256"
        }
      ],
      "name": "ProductAdded",
      "type": "event"
    },
    {
      "anonymous": false,
      "inputs": [
        {
          "indexed": true,
          "internalType": "uint256",
          "name": "productId",
          "type": "uint256"
        }
      ],
      "name": "ProductDeleted",
      "type": "event"
    },
    {
      "anonymous": false,
      "inputs": [
        {
          "indexed": true,
          "internalType": "uint256",
          "name": "productId",
          "type": "uint256"
        }
      ],
      "name": "ProductUpdated",
      "type": "event"
    },
    {
      "anonymous": false,
      "inputs": [
        {
          "indexed": true,
          "internalType": "uint256",
          "name": "supId",
          "type": "uint256"
        }
      ],
      "name": "SupplierAdded",
      "type": "event"
    },
    {
      "anonymous": false,
      "inputs": [
        {
          "indexed": true,
          "internalType": "uint256",
          "name": "supId",
          "type": "uint256"
        }
      ],
      "name": "SupplierDeleted",
      "type": "event"
    },
    {
      "anonymous": false,
      "inputs": [
        {
          "indexed": true,
          "internalType": "uint256",
          "name": "supId",
          "type": "uint256"
        }
      ],
      "name": "SupplierUpdated",
      "type": "event"
    },
    {
      "inputs": [
        {
          "internalType": "uint256",
          "name": "",
          "type": "uint256"
        }
      ],
      "name": "activeProductIds",
      "outputs": [
        {
          "internalType": "uint256",
          "name": "",
          "type": "uint256"
        }
      ],
      "stateMutability": "view",
      "type": "function",
      "constant": true
    },
    {
      "inputs": [
        {
          "internalType": "uint256",
          "name": "",
          "type": "uint256"
        }
      ],
      "name": "activeSupplierIds",
      "outputs": [
        {
          "internalType": "uint256",
          "name": "",
          "type": "uint256"
        }
      ],
      "stateMutability": "view",
      "type": "function",
      "constant": true
    },
    {
      "inputs": [],
      "name": "bankCount",
      "outputs": [
        {
          "internalType": "uint256",
          "name": "",
          "type": "uint256"
        }
      ],
      "stateMutability": "view",
      "type": "function",
      "constant": true
    },
    {
      "inputs": [],
      "name": "orderCount",
      "outputs": [
        {
          "internalType": "uint256",
          "name": "",
          "type": "uint256"
        }
      ],
      "stateMutability": "view",
      "type": "function",
      "constant": true
    },
    {
      "inputs": [],
      "name": "productCount",
      "outputs": [
        {
          "internalType": "uint256",
          "name": "",
          "type": "uint256"
        }
      ],
      "stateMutability": "view",
      "type": "function",
      "constant": true
    },
    {
      "inputs": [
        {
          "internalType": "uint256",
          "name": "",
          "type": "uint256"
        }
      ],
      "name": "products",
      "outputs": [
        {
          "internalType": "uint256",
          "name": "productId",
          "type": "uint256"
        },
        {
          "internalType": "string",
          "name": "productName",
          "type": "string"
        },
        {
          "internalType": "uint256",
          "name": "productPrice",
          "type": "uint256"
        },
        {
          "internalType": "uint256",
          "name": "productQty",
          "type": "uint256"
        }
      ],
      "stateMutability": "view",
      "type": "function",
      "constant": true
    },
    {
      "inputs": [
        {
          "internalType": "uint256",
          "name": "",
          "type": "uint256"
        }
      ],
      "name": "supplierBankDetails",
      "outputs": [
        {
          "internalType": "string",
          "name": "bankName",
          "type": "string"
        },
        {
          "internalType": "string",
          "name": "sortCode",
          "type": "string"
        },
        {
          "internalType": "uint256",
          "name": "accountNumber",
          "type": "uint256"
        }
      ],
      "stateMutability": "view",
      "type": "function",
      "constant": true
    },
    {
      "inputs": [],
      "name": "supplierCount",
      "outputs": [
        {
          "internalType": "uint256",
          "name": "",
          "type": "uint256"
        }
      ],
      "stateMutability": "view",
      "type": "function",
      "constant": true
    },
    {
      "inputs": [
        {
          "internalType": "uint256",
          "name": "",
          "type": "uint256"
        }
      ],
      "name": "suppliers",
      "outputs": [
        {
          "internalType": "uint256",
          "name": "supplierId",
          "type": "uint256"
        },
        {
          "internalType": "string",
          "name": "supplierName",
          "type": "string"
        },
        {
          "internalType": "string",
          "name": "supplierNumber",
          "type": "string"
        },
        {
          "components": [
            {
              "internalType": "string",
              "name": "bankName",
              "type": "string"
            },
            {
              "internalType": "string",
              "name": "sortCode",
              "type": "string"
            },
            {
              "internalType": "uint256",
              "name": "accountNumber",
              "type": "uint256"
            }
          ],
          "internalType": "struct InventoryPayment.SupplierBank",
          "name": "supplierBank",
          "type": "tuple"
        }
      ],
      "stateMutability": "view",
      "type": "function",
      "constant": true
    },
    {
      "inputs": [
        {
          "internalType": "uint256",
          "name": "",
          "type": "uint256"
        }
      ],
      "name": "userBankDetails",
      "outputs": [
        {
          "internalType": "uint256",
          "name": "id",
          "type": "uint256"
        },
        {
          "internalType": "string",
          "name": "bankName",
          "type": "string"
        },
        {
          "internalType": "uint256",
          "name": "bankAccountNumber",
          "type": "uint256"
        },
        {
          "internalType": "uint256",
          "name": "backupAmount",
          "type": "uint256"
        }
      ],
      "stateMutability": "view",
      "type": "function",
      "constant": true
    },
    {
      "inputs": [
        {
          "internalType": "address",
          "name": "",
          "type": "address"
        },
        {
          "internalType": "uint256",
          "name": "",
          "type": "uint256"
        }
      ],
      "name": "userOrders",
      "outputs": [
        {
          "internalType": "uint256",
          "name": "orderNo",
          "type": "uint256"
        },
        {
          "internalType": "uint256",
          "name": "orderDate",
          "type": "uint256"
        },
        {
          "internalType": "uint256",
          "name": "orderTotalAmount",
          "type": "uint256"
        },
        {
          "internalType": "string",
          "name": "orderStatus",
          "type": "string"
        },
        {
          "internalType": "uint256",
          "name": "supplierId",
          "type": "uint256"
        },
        {
          "internalType": "bool",
          "name": "isReceived",
          "type": "bool"
        }
      ],
      "stateMutability": "view",
      "type": "function",
      "constant": true
    },
    {
      "inputs": [
        {
          "internalType": "string",
          "name": "_supplierName",
          "type": "string"
        },
        {
          "internalType": "string",
          "name": "_supplierNumber",
          "type": "string"
        },
        {
          "internalType": "string",
          "name": "_bankName",
          "type": "string"
        },
        {
          "internalType": "string",
          "name": "_sortCode",
          "type": "string"
        },
        {
          "internalType": "uint256",
          "name": "_bankAccountNumber",
          "type": "uint256"
        }
      ],
      "name": "addSupplier",
      "outputs": [],
      "stateMutability": "nonpayable",
      "type": "function"
    },
    {
      "inputs": [],
      "name": "getAllSuppliersDetails",
      "outputs": [
        {
          "components": [
            {
              "internalType": "uint256",
              "name": "supplierId",
              "type": "uint256"
            },
            {
              "internalType": "string",
              "name": "supplierName",
              "type": "string"
            },
            {
              "internalType": "string",
              "name": "supplierNumber",
              "type": "string"
            },
            {
              "components": [
                {
                  "internalType": "string",
                  "name": "bankName",
                  "type": "string"
                },
                {
                  "internalType": "string",
                  "name": "sortCode",
                  "type": "string"
                },
                {
                  "internalType": "uint256",
                  "name": "accountNumber",
                  "type": "uint256"
                }
              ],
              "internalType": "struct InventoryPayment.SupplierBank",
              "name": "supplierBank",
              "type": "tuple"
            }
          ],
          "internalType": "struct InventoryPayment.Supplier[]",
          "name": "",
          "type": "tuple[]"
        }
      ],
      "stateMutability": "view",
      "type": "function",
      "constant": true
    },
    {
      "inputs": [
        {
          "internalType": "uint256",
          "name": "_supplierId",
          "type": "uint256"
        },
        {
          "internalType": "string",
          "name": "_newName",
          "type": "string"
        },
        {
          "internalType": "string",
          "name": "_newNumber",
          "type": "string"
        },
        {
          "internalType": "string",
          "name": "_newBankName",
          "type": "string"
        },
        {
          "internalType": "string",
          "name": "_newSortCode",
          "type": "string"
        },
        {
          "internalType": "uint256",
          "name": "_newAccountNumber",
          "type": "uint256"
        }
      ],
      "name": "updateSupplier",
      "outputs": [],
      "stateMutability": "nonpayable",
      "type": "function"
    },
    {
      "inputs": [
        {
          "internalType": "uint256",
          "name": "_supplierId",
          "type": "uint256"
        }
      ],
      "name": "deleteSupplier",
      "outputs": [],
      "stateMutability": "nonpayable",
      "type": "function"
    },
    {
      "inputs": [
        {
          "internalType": "uint256",
          "name": "_user",
          "type": "uint256"
        }
      ],
      "name": "getUserBankDetails",
      "outputs": [
        {
          "components": [
            {
              "internalType": "uint256",
              "name": "id",
              "type": "uint256"
            },
            {
              "internalType": "string",
              "name": "bankName",
              "type": "string"
            },
            {
              "internalType": "uint256",
              "name": "bankAccountNumber",
              "type": "uint256"
            },
            {
              "internalType": "uint256",
              "name": "backupAmount",
              "type": "uint256"
            }
          ],
          "internalType": "struct InventoryPayment.Bank",
          "name": "",
          "type": "tuple"
        }
      ],
      "stateMutability": "view",
      "type": "function",
      "constant": true
    },
    {
      "inputs": [
        {
          "internalType": "string",
          "name": "_bankName",
          "type": "string"
        },
        {
          "internalType": "uint256",
          "name": "_bankAccountNumber",
          "type": "uint256"
        },
        {
          "internalType": "uint256",
          "name": "_backupAmount",
          "type": "uint256"
        }
      ],
      "name": "addUserBankDetails",
      "outputs": [],
      "stateMutability": "nonpayable",
      "type": "function"
    },
    {
      "inputs": [],
      "name": "getBankDetails",
      "outputs": [
        {
          "components": [
            {
              "internalType": "uint256",
              "name": "id",
              "type": "uint256"
            },
            {
              "internalType": "string",
              "name": "bankName",
              "type": "string"
            },
            {
              "internalType": "uint256",
              "name": "bankAccountNumber",
              "type": "uint256"
            },
            {
              "internalType": "uint256",
              "name": "backupAmount",
              "type": "uint256"
            }
          ],
          "internalType": "struct InventoryPayment.Bank[]",
          "name": "",
          "type": "tuple[]"
        }
      ],
      "stateMutability": "view",
      "type": "function",
      "constant": true
    },
    {
      "inputs": [
        {
          "internalType": "uint256",
          "name": "_bankId",
          "type": "uint256"
        }
      ],
      "name": "viewBank",
      "outputs": [
        {
          "internalType": "string",
          "name": "bankName",
          "type": "string"
        },
        {
          "internalType": "uint256",
          "name": "bankNumber",
          "type": "uint256"
        },
        {
          "internalType": "uint256",
          "name": "bankAmout",
          "type": "uint256"
        }
      ],
      "stateMutability": "view",
      "type": "function",
      "constant": true
    },
    {
      "inputs": [
        {
          "internalType": "uint256",
          "name": "_bankId",
          "type": "uint256"
        },
        {
          "internalType": "string",
          "name": "_newName",
          "type": "string"
        },
        {
          "internalType": "uint256",
          "name": "_newAccountNumber",
          "type": "uint256"
        },
        {
          "internalType": "uint256",
          "name": "_newAmount",
          "type": "uint256"
        }
      ],
      "name": "updateBank",
      "outputs": [],
      "stateMutability": "nonpayable",
      "type": "function"
    },
    {
      "inputs": [
        {
          "internalType": "uint256",
          "name": "_bankId",
          "type": "uint256"
        }
      ],
      "name": "deleteBank",
      "outputs": [],
      "stateMutability": "nonpayable",
      "type": "function"
    },
    {
      "inputs": [
        {
          "internalType": "string",
          "name": "_productName",
          "type": "string"
        },
        {
          "internalType": "uint256",
          "name": "_productPrice",
          "type": "uint256"
        },
        {
          "internalType": "uint256",
          "name": "_productQty",
          "type": "uint256"
        }
      ],
      "name": "addProduct",
      "outputs": [],
      "stateMutability": "nonpayable",
      "type": "function"
    },
    {
      "inputs": [
        {
          "internalType": "uint256",
          "name": "_productId",
          "type": "uint256"
        }
      ],
      "name": "viewProduct",
      "outputs": [
        {
          "internalType": "string",
          "name": "productName",
          "type": "string"
        },
        {
          "internalType": "uint256",
          "name": "productPrice",
          "type": "uint256"
        },
        {
          "internalType": "uint256",
          "name": "productQty",
          "type": "uint256"
        }
      ],
      "stateMutability": "view",
      "type": "function",
      "constant": true
    },
    {
      "inputs": [
        {
          "internalType": "uint256",
          "name": "_productId",
          "type": "uint256"
        },
        {
          "internalType": "string",
          "name": "_newName",
          "type": "string"
        },
        {
          "internalType": "uint256",
          "name": "_newPrice",
          "type": "uint256"
        },
        {
          "internalType": "uint256",
          "name": "_newQty",
          "type": "uint256"
        }
      ],
      "name": "updateProduct",
      "outputs": [],
      "stateMutability": "nonpayable",
      "type": "function"
    },
    {
      "inputs": [
        {
          "internalType": "uint256",
          "name": "_productId",
          "type": "uint256"
        }
      ],
      "name": "deleteProduct",
      "outputs": [],
      "stateMutability": "nonpayable",
      "type": "function"
    },
    {
      "inputs": [],
      "name": "viewAllProducts",
      "outputs": [
        {
          "components": [
            {
              "internalType": "uint256",
              "name": "productId",
              "type": "uint256"
            },
            {
              "internalType": "string",
              "name": "productName",
              "type": "string"
            },
            {
              "internalType": "uint256",
              "name": "productPrice",
              "type": "uint256"
            },
            {
              "internalType": "uint256",
              "name": "productQty",
              "type": "uint256"
            }
          ],
          "internalType": "struct InventoryPayment.Product[]",
          "name": "",
          "type": "tuple[]"
        }
      ],
      "stateMutability": "view",
      "type": "function",
      "constant": true
    },
    {
      "inputs": [
        {
          "internalType": "uint256[]",
          "name": "_productIds",
          "type": "uint256[]"
        },
        {
          "internalType": "uint256[]",
          "name": "_productQtyOrder",
          "type": "uint256[]"
        },
        {
          "internalType": "uint256",
          "name": "_supplierId",
          "type": "uint256"
        }
      ],
      "name": "placeOrder",
      "outputs": [],
      "stateMutability": "nonpayable",
      "type": "function"
    },
    {
      "inputs": [
        {
          "internalType": "address",
          "name": "_user",
          "type": "address"
        }
      ],
      "name": "getPlacedOrderNumbers",
      "outputs": [
        {
          "internalType": "uint256[]",
          "name": "",
          "type": "uint256[]"
        }
      ],
      "stateMutability": "view",
      "type": "function",
      "constant": true
    },
    {
      "inputs": [
        {
          "internalType": "address",
          "name": "_user",
          "type": "address"
        },
        {
          "internalType": "uint256",
          "name": "_orderNo",
          "type": "uint256"
        }
      ],
      "name": "getOrderDetails",
      "outputs": [
        {
          "internalType": "uint256",
          "name": "orderNo",
          "type": "uint256"
        },
        {
          "internalType": "uint256",
          "name": "orderDate",
          "type": "uint256"
        },
        {
          "internalType": "uint256",
          "name": "orderTotalAmount",
          "type": "uint256"
        },
        {
          "internalType": "string",
          "name": "orderStatus",
          "type": "string"
        },
        {
          "internalType": "uint256",
          "name": "supplierId",
          "type": "uint256"
        },
        {
          "internalType": "uint256[]",
          "name": "productIds",
          "type": "uint256[]"
        },
        {
          "internalType": "uint256[]",
          "name": "productQtys",
          "type": "uint256[]"
        }
      ],
      "stateMutability": "view",
      "type": "function",
      "constant": true
    },
    {
      "inputs": [
        {
          "internalType": "string",
          "name": "a",
          "type": "string"
        },
        {
          "internalType": "string",
          "name": "b",
          "type": "string"
        }
      ],
      "name": "compareStrings",
      "outputs": [
        {
          "internalType": "bool",
          "name": "",
          "type": "bool"
        }
      ],
      "stateMutability": "pure",
      "type": "function",
      "constant": true
    },
    {
      "inputs": [
        {
          "internalType": "uint256",
          "name": "_orderNo",
          "type": "uint256"
        },
        {
          "components": [
            {
              "internalType": "uint256",
              "name": "productId",
              "type": "uint256"
            },
            {
              "internalType": "uint256",
              "name": "productQtyOrder",
              "type": "uint256"
            },
            {
              "internalType": "uint256",
              "name": "productQtyReceived",
              "type": "uint256"
            }
          ],
          "internalType": "struct InventoryPayment.OrderDetail[]",
          "name": "_receivedProducts",
          "type": "tuple[]"
        }
      ],
      "name": "receiveOrder",
      "outputs": [],
      "stateMutability": "nonpayable",
      "type": "function"
    }
  ],
  "bytecode": "0x608060405234801561000f575f80fd5b50614de08061001d5f395ff3fe608060405234801561000f575f80fd5b50600436106101e3575f3560e01c80636f1378061161010d578063bf77d290116100a0578063eafd4bbd1161006f578063eafd4bbd146105db578063ed90c7b71461060d578063f879eb5714610629578063fbf3c5d814610647576101e3565b8063bf77d29014610552578063cea231211461056e578063d5d6690c146105a1578063e0f6ef87146105bd576101e3565b8063856652e9116100dc578063856652e91461049e5780639431a635146104d3578063b2624e1714610506578063bed34bba14610522576101e3565b80636f137806146103eb578063766662f21461041b57806378147d4e146104395780637acc0b201461046b576101e3565b8063330b066211610185578063562e07cd11610154578063562e07cd1461034b5780635b1389af146103815780636654b4d01461039f5780636dedcb09146103bb576101e3565b8063330b0662146102af5780633605adae146102cb5780634e818c4b146102fd578063503a37e01461032d576101e3565b8063140c6b91116101c1578063140c6b911461023b5780632453ffa8146102595780632d5617871461027757806332689cf014610293576101e3565b806303d4afc5146101e757806305d3d36614610203578063125b0b341461021f575b5f80fd5b61020160048036038101906101fc91906130e9565b610677565b005b61021d600480360381019061021891906130e9565b61072e565b005b61023960048036038101906102349190613250565b6108cf565b005b6102436109a8565b60405161025091906132cb565b60405180910390f35b6102616109ae565b60405161026e91906132cb565b60405180910390f35b610291600480360381019061028c91906132e4565b6109b4565b005b6102ad60048036038101906102a891906132e4565b610a6f565b005b6102c960048036038101906102c49190613364565b610b2b565b005b6102e560048036038101906102e091906130e9565b610db4565b6040516102f4939291906134c5565b60405180910390f35b61031760048036038101906103129190613562565b610ee6565b6040516103249190613644565b60405180910390f35b610335610fe5565b60405161034291906137c7565b60405180910390f35b610365600480360381019061036091906137e7565b61115d565b6040516103789796959493929190613825565b60405180910390f35b6103896113b8565b60405161039691906139c2565b60405180910390f35b6103b960048036038101906103b49190613aa6565b61152e565b005b6103d560048036038101906103d091906130e9565b611978565b6040516103e29190613b8e565b60405180910390f35b610405600480360381019061040091906130e9565b611a50565b60405161041291906132cb565b60405180910390f35b610423611a70565b6040516104309190613d2b565b60405180910390f35b610453600480360381019061044e91906130e9565b611da1565b60405161046293929190613d4b565b60405180910390f35b610485600480360381019061048091906130e9565b611ede565b6040516104959493929190613d87565b60405180910390f35b6104b860048036038101906104b391906137e7565b611f90565b6040516104ca96959493929190613deb565b60405180910390f35b6104ed60048036038101906104e891906130e9565b612074565b6040516104fd9493929190613d87565b60405180910390f35b610520600480360381019061051b9190613250565b612126565b005b61053c60048036038101906105379190613e51565b6122fa565b6040516105499190613ec7565b60405180910390f35b61056c60048036038101906105679190614005565b612352565b005b610588600480360381019061058391906130e9565b612932565b60405161059894939291906140b3565b60405180910390f35b6105bb60048036038101906105b6919061410b565b612b9d565b005b6105c5612c90565b6040516105d291906132cb565b60405180910390f35b6105f560048036038101906105f091906130e9565b612c95565b60405161060493929190613d4b565b60405180910390f35b610627600480360381019061062291906130e9565b612dd1565b005b610631612f45565b60405161063e91906132cb565b60405180910390f35b610661600480360381019061065c91906130e9565b612f4b565b60405161066e91906132cb565b60405180910390f35b600154811115801561068857505f81115b6106c7576040517f08c379a00000000000000000000000000000000000000000000000000000000081526004016106be9061424e565b60405180910390fd5b60065f8281526020019081526020015f205f8082015f9055600182015f6106ee9190612f6b565b600282015f9055600382015f90555050807f6cfb81c439b427c92810494d6fb954e0d5f6d5b31d80416405bc08b284a8d23960405160405180910390a250565b600354811115801561073f57505f81115b61077e576040517f08c379a0000000000000000000000000000000000000000000000000000000008152600401610775906142b6565b60405180910390fd5b600a5f8281526020019081526020015f205f8082015f9055600182015f6107a59190612f6b565b600282015f6107b49190612f6b565b600382015f8082015f6107c79190612f6b565b600182015f6107d69190612f6b565b600282015f905550505050807f659ad8d8d936972f64b8c76df1f0805c7194c3ada1c7e1e02d2212a294744b6860405160405180910390a25f5b6005805490508110156108cb578160058281548110610832576108316142d4565b5b905f5260205f200154036108b85760056001600580549050610854919061432e565b81548110610865576108646142d4565b5b905f5260205f20015460058281548110610882576108816142d4565b5b905f5260205f20018190555060058054806108a05761089f614361565b5b600190038181905f5260205f20015f905590556108cb565b80806108c39061438e565b915050610810565b5050565b5f808154809291906108e09061438e565b919050555060405180608001604052805f5481526020018481526020018381526020018281525060065f805481526020019081526020015f205f820151815f0155602082015181600101908161093691906145cf565b50604082015181600201556060820151816003015590505060045f54908060018154018082558091505060019003905f5260205f20015f90919091909150555f547f4fc9d5acc453e78e01b205af5788a1c62f195c4b5cdc8eb8f1c670863b7e736a60405160405180910390a2505050565b60035481565b60025481565b5f5484111580156109c457505f84115b610a03576040517f08c379a00000000000000000000000000000000000000000000000000000000081526004016109fa906146e8565b60405180910390fd5b5f60065f8681526020019081526020015f20905083816001019081610a2891906145cf565b50828160020181905550818160030181905550847feca6714fcf568fb34cf9db4a414cb0cc48e93c5d4e1ba0582a46ea3704cf24d560405160405180910390a25050505050565b6001548411158015610a8057505f84115b610abf576040517f08c379a0000000000000000000000000000000000000000000000000000000008152600401610ab69061424e565b60405180910390fd5b5f60085f8681526020019081526020015f20905083816001019081610ae491906145cf565b50828160020181905550818160030181905550847fdc16211c01e83339507d9d54214d47194290eee1aec7c4f3867ba3f86b42efa360405160405180910390a25050505050565b5f855111610b6e576040517f08c379a0000000000000000000000000000000000000000000000000000000008152600401610b6590614750565b60405180910390fd5b5f845111610bb1576040517f08c379a0000000000000000000000000000000000000000000000000000000008152600401610ba8906147b8565b60405180910390fd5b5f835111610bf4576040517f08c379a0000000000000000000000000000000000000000000000000000000008152600401610beb90614820565b60405180910390fd5b5f825111610c37576040517f08c379a0000000000000000000000000000000000000000000000000000000008152600401610c2e90614888565b60405180910390fd5b5f8103610c79576040517f08c379a0000000000000000000000000000000000000000000000000000000008152600401610c7090614916565b60405180910390fd5b60035f815480929190610c8b9061438e565b919050555060405180608001604052806003548152602001868152602001858152602001604051806060016040528086815260200185815260200184815250815250600a5f60035481526020019081526020015f205f820151815f01556020820151816001019081610cfd91906145cf565b506040820151816002019081610d1391906145cf565b506060820151816003015f820151815f019081610d3091906145cf565b506020820151816001019081610d4691906145cf565b506040820151816002015550509050506005600354908060018154018082558091505060019003905f5260205f20015f90919091909150556003547f061189d1338f04d65bc2d4338b794ee9b61e9344c3758f31ebf3b1d810437eee60405160405180910390a25050505050565b6009602052805f5260405f205f91509050805f018054610dd390614402565b80601f0160208091040260200160405190810160405280929190818152602001828054610dff90614402565b8015610e4a5780601f10610e2157610100808354040283529160200191610e4a565b820191905f5260205f20905b815481529060010190602001808311610e2d57829003601f168201915b505050505090806001018054610e5f90614402565b80601f0160208091040260200160405190810160405280929190818152602001828054610e8b90614402565b8015610ed65780601f10610ead57610100808354040283529160200191610ed6565b820191905f5260205f20905b815481529060010190602001808311610eb957829003601f168201915b5050505050908060020154905083565b60605f60075f8473ffffffffffffffffffffffffffffffffffffffff1673ffffffffffffffffffffffffffffffffffffffff1681526020019081526020015f2090505f818054905067ffffffffffffffff811115610f4757610f4661312c565b5b604051908082528060200260200182016040528015610f755781602001602082028036833780820191505090505b5090505f5b8280549050811015610fda57828181548110610f9957610f986142d4565b5b905f5260205f2090600802015f0154828281518110610fbb57610fba6142d4565b5b6020026020010181815250508080610fd29061438e565b915050610f7a565b508092505050919050565b60605f60015467ffffffffffffffff8111156110045761100361312c565b5b60405190808252806020026020018201604052801561103d57816020015b61102a612fa8565b8152602001906001900390816110225790505b5090505f600190505b60015481116111555760085f8281526020019081526020015f206040518060800160405290815f820154815260200160018201805461108490614402565b80601f01602080910402602001604051908101604052809291908181526020018280546110b090614402565b80156110fb5780601f106110d2576101008083540402835291602001916110fb565b820191905f5260205f20905b8154815290600101906020018083116110de57829003601f168201915b505050505081526020016002820154815260200160038201548152505082600183611126919061432e565b81518110611137576111366142d4565b5b6020026020010181905250808061114d9061438e565b915050611046565b508091505090565b5f805f60605f6060805f60075f8b73ffffffffffffffffffffffffffffffffffffffff1673ffffffffffffffffffffffffffffffffffffffff1681526020019081526020015f2090505f5b818054905081101561137057898282815481106111c8576111c76142d4565b5b905f5260205f2090600802015f01540361135d575f8282815481106111f0576111ef6142d4565b5b905f5260205f2090600802019050805f015481600101548260020154836003018460040154856005018660060183805461122990614402565b80601f016020809104026020016040519081016040528092919081815260200182805461125590614402565b80156112a05780601f10611277576101008083540402835291602001916112a0565b820191905f5260205f20905b81548152906001019060200180831161128357829003601f168201915b50505050509350818054806020026020016040519081016040528092919081815260200182805480156112f057602002820191905f5260205f20905b8154815260200190600101908083116112dc575b505050505091508080548060200260200160405190810160405280929190818152602001828054801561134057602002820191905f5260205f20905b81548152602001906001019080831161132c575b5050505050905099509950995099509950995099505050506113ac565b80806113689061438e565b9150506111a8565b506040517f08c379a00000000000000000000000000000000000000000000000000000000081526004016113a39061497e565b60405180910390fd5b92959891949750929550565b60605f805467ffffffffffffffff8111156113d6576113d561312c565b5b60405190808252806020026020018201604052801561140f57816020015b6113fc612fcd565b8152602001906001900390816113f45790505b5090505f600190505b5f5481116115265760065f8281526020019081526020015f206040518060800160405290815f820154815260200160018201805461145590614402565b80601f016020809104026020016040519081016040528092919081815260200182805461148190614402565b80156114cc5780601f106114a3576101008083540402835291602001916114cc565b820191905f5260205f20905b8154815290600101906020018083116114af57829003601f168201915b5050505050815260200160028201548152602001600382015481525050826001836114f7919061432e565b81518110611508576115076142d4565b5b6020026020010181905250808061151e9061438e565b915050611418565b508091505090565b8151835114611572576040517f08c379a0000000000000000000000000000000000000000000000000000000008152600401611569906149e6565b60405180910390fd5b5f805b8451811015611675575f54858281518110611593576115926142d4565b5b6020026020010151111580156115c257505f8582815181106115b8576115b76142d4565b5b6020026020010151115b611601576040517f08c379a00000000000000000000000000000000000000000000000000000000081526004016115f8906146e8565b60405180910390fd5b838181518110611614576116136142d4565b5b602002602001015160065f878481518110611632576116316142d4565b5b602002602001015181526020019081526020015f20600201546116559190614a04565b826116609190614a45565b9150808061166d9061438e565b915050611575565b5060025f8154809291906116889061438e565b91905055505f60025490505f855167ffffffffffffffff8111156116af576116ae61312c565b5b6040519080825280602002602001820160405280156116dd5781602001602082028036833780820191505090505b5090505f855167ffffffffffffffff8111156116fc576116fb61312c565b5b60405190808252806020026020018201604052801561172a5781602001602082028036833780820191505090505b5090505f5b87518110156117bf5787818151811061174b5761174a6142d4565b5b6020026020010151838281518110611766576117656142d4565b5b602002602001018181525050868181518110611785576117846142d4565b5b60200260200101518282815181106117a05761179f6142d4565b5b60200260200101818152505080806117b79061438e565b91505061172f565b5060075f3373ffffffffffffffffffffffffffffffffffffffff1673ffffffffffffffffffffffffffffffffffffffff1681526020019081526020015f206040518061010001604052808581526020014281526020018681526020016040518060400160405280600681526020017f706c61636564000000000000000000000000000000000000000000000000000081525081526020018781526020018481526020018381526020015f1515815250908060018154018082558091505060019003905f5260205f2090600802015f909190919091505f820151815f0155602082015181600101556040820151816002015560608201518160030190816118c591906145cf565b506080820151816004015560a08201518160050190805190602001906118ec929190612ff2565b5060c0820151816006019080519060200190611909929190612ff2565b5060e0820151816007015f6101000a81548160ff02191690831515021790555050503373ffffffffffffffffffffffffffffffffffffffff16837f5222ba5f86a58ad15e7771bd95a809f162ae1762ea7cd66e28a58217341334cc60405160405180910390a350505050505050565b611980612fa8565b60085f8381526020019081526020015f206040518060800160405290815f82015481526020016001820180546119b590614402565b80601f01602080910402602001604051908101604052809291908181526020018280546119e190614402565b8015611a2c5780601f10611a0357610100808354040283529160200191611a2c565b820191905f5260205f20905b815481529060010190602001808311611a0f57829003601f168201915b50505050508152602001600282015481526020016003820154815250509050919050565b60058181548110611a5f575f80fd5b905f5260205f20015f915090505481565b60605f60035467ffffffffffffffff811115611a8f57611a8e61312c565b5b604051908082528060200260200182016040528015611ac857816020015b611ab561303d565b815260200190600190039081611aad5790505b5090505f600190505b6003548111611d9957600a5f8281526020019081526020015f206040518060800160405290815f8201548152602001600182018054611b0f90614402565b80601f0160208091040260200160405190810160405280929190818152602001828054611b3b90614402565b8015611b865780601f10611b5d57610100808354040283529160200191611b86565b820191905f5260205f20905b815481529060010190602001808311611b6957829003601f168201915b50505050508152602001600282018054611b9f90614402565b80601f0160208091040260200160405190810160405280929190818152602001828054611bcb90614402565b8015611c165780601f10611bed57610100808354040283529160200191611c16565b820191905f5260205f20905b815481529060010190602001808311611bf957829003601f168201915b50505050508152602001600382016040518060600160405290815f82018054611c3e90614402565b80601f0160208091040260200160405190810160405280929190818152602001828054611c6a90614402565b8015611cb55780601f10611c8c57610100808354040283529160200191611cb5565b820191905f5260205f20905b815481529060010190602001808311611c9857829003601f168201915b50505050508152602001600182018054611cce90614402565b80601f0160208091040260200160405190810160405280929190818152602001828054611cfa90614402565b8015611d455780601f10611d1c57610100808354040283529160200191611d45565b820191905f5260205f20905b815481529060010190602001808311611d2857829003601f168201915b505050505081526020016002820154815250508152505082600183611d6a919061432e565b81518110611d7b57611d7a6142d4565b5b60200260200101819052508080611d919061438e565b915050611ad1565b508091505090565b60605f806001548411158015611db657505f84115b611df5576040517f08c379a0000000000000000000000000000000000000000000000000000000008152600401611dec9061424e565b60405180910390fd5b5f60085f8681526020019081526020015f206040518060800160405290815f8201548152602001600182018054611e2b90614402565b80601f0160208091040260200160405190810160405280929190818152602001828054611e5790614402565b8015611ea25780601f10611e7957610100808354040283529160200191611ea2565b820191905f5260205f20905b815481529060010190602001808311611e8557829003601f168201915b50505050508152602001600282015481526020016003820154815250509050806020015181604001518260400151935093509350509193909250565b6006602052805f5260405f205f91509050805f015490806001018054611f0390614402565b80601f0160208091040260200160405190810160405280929190818152602001828054611f2f90614402565b8015611f7a5780601f10611f5157610100808354040283529160200191611f7a565b820191905f5260205f20905b815481529060010190602001808311611f5d57829003601f168201915b5050505050908060020154908060030154905084565b6007602052815f5260405f208181548110611fa9575f80fd5b905f5260205f2090600802015f9150915050805f015490806001015490806002015490806003018054611fdb90614402565b80601f016020809104026020016040519081016040528092919081815260200182805461200790614402565b80156120525780601f1061202957610100808354040283529160200191612052565b820191905f5260205f20905b81548152906001019060200180831161203557829003601f168201915b505050505090806004015490806007015f9054906101000a900460ff16905086565b6008602052805f5260405f205f91509050805f01549080600101805461209990614402565b80601f01602080910402602001604051908101604052809291908181526020018280546120c590614402565b80156121105780601f106120e757610100808354040283529160200191612110565b820191905f5260205f20905b8154815290600101906020018083116120f357829003601f168201915b5050505050908060020154908060030154905084565b5f835111612169576040517f08c379a000000000000000000000000000000000000000000000000000000000815260040161216090614820565b60405180910390fd5b5f82036121ab576040517f08c379a00000000000000000000000000000000000000000000000000000000081526004016121a290614916565b60405180910390fd5b5f81036121ed576040517f08c379a00000000000000000000000000000000000000000000000000000000081526004016121e490614ac2565b60405180910390fd5b5f60085f60015481526020019081526020015f205f015414612244576040517f08c379a000000000000000000000000000000000000000000000000000000000815260040161223b90614b2a565b60405180910390fd5b60015f8154809291906122569061438e565b9190505550604051806080016040528060015481526020018481526020018381526020018281525060085f60015481526020019081526020015f205f820151815f015560208201518160010190816122ae91906145cf565b5060408201518160020155606082015181600301559050506001547febebffae43ff234e2b6a4e4937a33d8ea339f259ff0661dd9e98ae4a75e5185960405160405180910390a2505050565b5f8160405160200161230c9190614b82565b60405160208183030381529060405280519060200120836040516020016123339190614b82565b6040516020818303038152906040528051906020012014905092915050565b5f60075f3373ffffffffffffffffffffffffffffffffffffffff1673ffffffffffffffffffffffffffffffffffffffff1681526020019081526020015f2090505f805b82805490508110156126c457848382815481106123b5576123b46142d4565b5b905f5260205f2090600802015f01541480156123fd57508281815481106123df576123de6142d4565b5b905f5260205f2090600802016007015f9054906101000a900460ff16155b156126b1575f838281548110612416576124156142d4565b5b905f5260205f2090600802016005018054905085511461246b576040517f08c379a000000000000000000000000000000000000000000000000000000000815260040161246290614c08565b60405180910390fd5b5f5b85518110156125e057848381548110612489576124886142d4565b5b905f5260205f20906008020160060181815481106124aa576124a96142d4565b5b905f5260205f2001548682815181106124c6576124c56142d4565b5b6020026020010151604001511115612513576040517f08c379a000000000000000000000000000000000000000000000000000000000815260040161250a90614c96565b60405180910390fd5b858181518110612526576125256142d4565b5b602002602001015160400151868281518110612545576125446142d4565b5b60200260200101516040015161255b9190614a04565b826125669190614a45565b915085818151811061257b5761257a6142d4565b5b60200260200101516040015160065f88848151811061259d5761259c6142d4565b5b60200260200101515f015181526020019081526020015f206003015f8282546125c69190614a45565b9250508190555080806125d89061438e565b91505061246d565b5060018483815481106125f6576125f56142d4565b5b905f5260205f2090600802016007015f6101000a81548160ff0219169083151502179055506040518060400160405280600881526020017f7265636569766564000000000000000000000000000000000000000000000000815250848381548110612664576126636142d4565b5b905f5260205f209060080201600301908161267f91906145cf565b5080848381548110612694576126936142d4565b5b905f5260205f2090600802016002018190555060019250506126c4565b80806126bc9061438e565b915050612395565b5080612705576040517f08c379a00000000000000000000000000000000000000000000000000000000081526004016126fc90614d24565b60405180910390fd5b5f5b828054905081101561292b5784838281548110612727576127266142d4565b5b905f5260205f2090600802015f01541480156128265750612825838281548110612754576127536142d4565b5b905f5260205f209060080201600301805461276e90614402565b80601f016020809104026020016040519081016040528092919081815260200182805461279a90614402565b80156127e55780601f106127bc576101008083540402835291602001916127e5565b820191905f5260205f20905b8154815290600101906020018083116127c857829003601f168201915b50505050506040518060400160405280600881526020017f72656365697665640000000000000000000000000000000000000000000000008152506122fa565b5b15612918575f83828154811061283f5761283e6142d4565b5b905f5260205f2090600802016002015490505f848381548110612865576128646142d4565b5b905f5260205f2090600802016004015490505f60085f8081526020019081526020015f2090505f60095f8481526020019081526020015f20905083826002015483600301546128b49190614a45565b10156128f5576040517f08c379a00000000000000000000000000000000000000000000000000000000081526004016128ec90614d8c565b60405180910390fd5b83826003015f828254612908919061432e565b925050819055505050505061292b565b80806129239061438e565b915050612707565b5050505050565b600a602052805f5260405f205f91509050805f01549080600101805461295790614402565b80601f016020809104026020016040519081016040528092919081815260200182805461298390614402565b80156129ce5780601f106129a5576101008083540402835291602001916129ce565b820191905f5260205f20905b8154815290600101906020018083116129b157829003601f168201915b5050505050908060020180546129e390614402565b80601f0160208091040260200160405190810160405280929190818152602001828054612a0f90614402565b8015612a5a5780601f10612a3157610100808354040283529160200191612a5a565b820191905f5260205f20905b815481529060010190602001808311612a3d57829003601f168201915b505050505090806003016040518060600160405290815f82018054612a7e90614402565b80601f0160208091040260200160405190810160405280929190818152602001828054612aaa90614402565b8015612af55780601f10612acc57610100808354040283529160200191612af5565b820191905f5260205f20905b815481529060010190602001808311612ad857829003601f168201915b50505050508152602001600182018054612b0e90614402565b80601f0160208091040260200160405190810160405280929190818152602001828054612b3a90614402565b8015612b855780601f10612b5c57610100808354040283529160200191612b85565b820191905f5260205f20905b815481529060010190602001808311612b6857829003601f168201915b50505050508152602001600282015481525050905084565b6003548611158015612bae57505f86115b612bed576040517f08c379a0000000000000000000000000000000000000000000000000000000008152600401612be4906142b6565b60405180910390fd5b5f600a5f8881526020019081526020015f20905085816001019081612c1291906145cf565b5084816002019081612c2491906145cf565b5083816003015f019081612c3891906145cf565b5082816003016001019081612c4d91906145cf565b50818160030160020181905550867f16bda03ec6eeafb585ceed93192d7c3f36e21937df4a24a2b17126736f7cab4060405160405180910390a250505050505050565b5f5481565b60605f805f548411158015612ca957505f84115b612ce8576040517f08c379a0000000000000000000000000000000000000000000000000000000008152600401612cdf906146e8565b60405180910390fd5b5f60065f8681526020019081526020015f206040518060800160405290815f8201548152602001600182018054612d1e90614402565b80601f0160208091040260200160405190810160405280929190818152602001828054612d4a90614402565b8015612d955780601f10612d6c57610100808354040283529160200191612d95565b820191905f5260205f20905b815481529060010190602001808311612d7857829003601f168201915b50505050508152602001600282015481526020016003820154815250509050806020015181604001518260600151935093509350509193909250565b5f548111158015612de157505f81115b612e20576040517f08c379a0000000000000000000000000000000000000000000000000000000008152600401612e17906146e8565b60405180910390fd5b60065f8281526020019081526020015f205f8082015f9055600182015f612e479190612f6b565b600282015f9055600382015f90555050807fc341cf326465fe622f86c468249e8c0cb03ed23ba376a6a34863a1374ac7d76960405160405180910390a25f5b600480549050811015612f41578160048281548110612ea857612ea76142d4565b5b905f5260205f20015403612f2e5760046001600480549050612eca919061432e565b81548110612edb57612eda6142d4565b5b905f5260205f20015460048281548110612ef857612ef76142d4565b5b905f5260205f2001819055506004805480612f1657612f15614361565b5b600190038181905f5260205f20015f90559055612f41565b8080612f399061438e565b915050612e86565b5050565b60015481565b60048181548110612f5a575f80fd5b905f5260205f20015f915090505481565b508054612f7790614402565b5f825580601f10612f885750612fa5565b601f0160209004905f5260205f2090810190612fa4919061306a565b5b50565b60405180608001604052805f8152602001606081526020015f81526020015f81525090565b60405180608001604052805f8152602001606081526020015f81526020015f81525090565b828054828255905f5260205f2090810192821561302c579160200282015b8281111561302b578251825591602001919060010190613010565b5b509050613039919061306a565b5090565b60405180608001604052805f81526020016060815260200160608152602001613064613085565b81525090565b5b80821115613081575f815f90555060010161306b565b5090565b604051806060016040528060608152602001606081526020015f81525090565b5f604051905090565b5f80fd5b5f80fd5b5f819050919050565b6130c8816130b6565b81146130d2575f80fd5b50565b5f813590506130e3816130bf565b92915050565b5f602082840312156130fe576130fd6130ae565b5b5f61310b848285016130d5565b91505092915050565b5f80fd5b5f80fd5b5f601f19601f8301169050919050565b7f4e487b71000000000000000000000000000000000000000000000000000000005f52604160045260245ffd5b6131628261311c565b810181811067ffffffffffffffff821117156131815761318061312c565b5b80604052505050565b5f6131936130a5565b905061319f8282613159565b919050565b5f67ffffffffffffffff8211156131be576131bd61312c565b5b6131c78261311c565b9050602081019050919050565b828183375f83830152505050565b5f6131f46131ef846131a4565b61318a565b9050828152602081018484840111156132105761320f613118565b5b61321b8482856131d4565b509392505050565b5f82601f83011261323757613236613114565b5b81356132478482602086016131e2565b91505092915050565b5f805f60608486031215613267576132666130ae565b5b5f84013567ffffffffffffffff811115613284576132836130b2565b5b61329086828701613223565b93505060206132a1868287016130d5565b92505060406132b2868287016130d5565b9150509250925092565b6132c5816130b6565b82525050565b5f6020820190506132de5f8301846132bc565b92915050565b5f805f80608085870312156132fc576132fb6130ae565b5b5f613309878288016130d5565b945050602085013567ffffffffffffffff81111561332a576133296130b2565b5b61333687828801613223565b9350506040613347878288016130d5565b9250506060613358878288016130d5565b91505092959194509250565b5f805f805f60a0868803121561337d5761337c6130ae565b5b5f86013567ffffffffffffffff81111561339a576133996130b2565b5b6133a688828901613223565b955050602086013567ffffffffffffffff8111156133c7576133c66130b2565b5b6133d388828901613223565b945050604086013567ffffffffffffffff8111156133f4576133f36130b2565b5b61340088828901613223565b935050606086013567ffffffffffffffff811115613421576134206130b2565b5b61342d88828901613223565b925050608061343e888289016130d5565b9150509295509295909350565b5f81519050919050565b5f82825260208201905092915050565b5f5b83811015613482578082015181840152602081019050613467565b5f8484015250505050565b5f6134978261344b565b6134a18185613455565b93506134b1818560208601613465565b6134ba8161311c565b840191505092915050565b5f6060820190508181035f8301526134dd818661348d565b905081810360208301526134f1818561348d565b905061350060408301846132bc565b949350505050565b5f73ffffffffffffffffffffffffffffffffffffffff82169050919050565b5f61353182613508565b9050919050565b61354181613527565b811461354b575f80fd5b50565b5f8135905061355c81613538565b92915050565b5f60208284031215613577576135766130ae565b5b5f6135848482850161354e565b91505092915050565b5f81519050919050565b5f82825260208201905092915050565b5f819050602082019050919050565b6135bf816130b6565b82525050565b5f6135d083836135b6565b60208301905092915050565b5f602082019050919050565b5f6135f28261358d565b6135fc8185613597565b9350613607836135a7565b805f5b8381101561363757815161361e88826135c5565b9750613629836135dc565b92505060018101905061360a565b5085935050505092915050565b5f6020820190508181035f83015261365c81846135e8565b905092915050565b5f81519050919050565b5f82825260208201905092915050565b5f819050602082019050919050565b5f82825260208201905092915050565b5f6136a78261344b565b6136b1818561368d565b93506136c1818560208601613465565b6136ca8161311c565b840191505092915050565b5f608083015f8301516136ea5f8601826135b6565b5060208301518482036020860152613702828261369d565b915050604083015161371760408601826135b6565b50606083015161372a60608601826135b6565b508091505092915050565b5f61374083836136d5565b905092915050565b5f602082019050919050565b5f61375e82613664565b613768818561366e565b93508360208202850161377a8561367e565b805f5b858110156137b557848403895281516137968582613735565b94506137a183613748565b925060208a0199505060018101905061377d565b50829750879550505050505092915050565b5f6020820190508181035f8301526137df8184613754565b905092915050565b5f80604083850312156137fd576137fc6130ae565b5b5f61380a8582860161354e565b925050602061381b858286016130d5565b9150509250929050565b5f60e0820190506138385f83018a6132bc565b61384560208301896132bc565b61385260408301886132bc565b8181036060830152613864818761348d565b905061387360808301866132bc565b81810360a083015261388581856135e8565b905081810360c083015261389981846135e8565b905098975050505050505050565b5f81519050919050565b5f82825260208201905092915050565b5f819050602082019050919050565b5f608083015f8301516138e55f8601826135b6565b50602083015184820360208601526138fd828261369d565b915050604083015161391260408601826135b6565b50606083015161392560608601826135b6565b508091505092915050565b5f61393b83836138d0565b905092915050565b5f602082019050919050565b5f613959826138a7565b61396381856138b1565b935083602082028501613975856138c1565b805f5b858110156139b057848403895281516139918582613930565b945061399c83613943565b925060208a01995050600181019050613978565b50829750879550505050505092915050565b5f6020820190508181035f8301526139da818461394f565b905092915050565b5f67ffffffffffffffff8211156139fc576139fb61312c565b5b602082029050602081019050919050565b5f80fd5b5f613a23613a1e846139e2565b61318a565b90508083825260208201905060208402830185811115613a4657613a45613a0d565b5b835b81811015613a6f5780613a5b88826130d5565b845260208401935050602081019050613a48565b5050509392505050565b5f82601f830112613a8d57613a8c613114565b5b8135613a9d848260208601613a11565b91505092915050565b5f805f60608486031215613abd57613abc6130ae565b5b5f84013567ffffffffffffffff811115613ada57613ad96130b2565b5b613ae686828701613a79565b935050602084013567ffffffffffffffff811115613b0757613b066130b2565b5b613b1386828701613a79565b9250506040613b24868287016130d5565b9150509250925092565b5f608083015f830151613b435f8601826135b6565b5060208301518482036020860152613b5b828261369d565b9150506040830151613b7060408601826135b6565b506060830151613b8360608601826135b6565b508091505092915050565b5f6020820190508181035f830152613ba68184613b2e565b905092915050565b5f81519050919050565b5f82825260208201905092915050565b5f819050602082019050919050565b5f606083015f8301518482035f860152613bf1828261369d565b91505060208301518482036020860152613c0b828261369d565b9150506040830151613c2060408601826135b6565b508091505092915050565b5f608083015f830151613c405f8601826135b6565b5060208301518482036020860152613c58828261369d565b91505060408301518482036040860152613c72828261369d565b91505060608301518482036060860152613c8c8282613bd7565b9150508091505092915050565b5f613ca48383613c2b565b905092915050565b5f602082019050919050565b5f613cc282613bae565b613ccc8185613bb8565b935083602082028501613cde85613bc8565b805f5b85811015613d195784840389528151613cfa8582613c99565b9450613d0583613cac565b925060208a01995050600181019050613ce1565b50829750879550505050505092915050565b5f6020820190508181035f830152613d438184613cb8565b905092915050565b5f6060820190508181035f830152613d63818661348d565b9050613d7260208301856132bc565b613d7f60408301846132bc565b949350505050565b5f608082019050613d9a5f8301876132bc565b8181036020830152613dac818661348d565b9050613dbb60408301856132bc565b613dc860608301846132bc565b95945050505050565b5f8115159050919050565b613de581613dd1565b82525050565b5f60c082019050613dfe5f8301896132bc565b613e0b60208301886132bc565b613e1860408301876132bc565b8181036060830152613e2a818661348d565b9050613e3960808301856132bc565b613e4660a0830184613ddc565b979650505050505050565b5f8060408385031215613e6757613e666130ae565b5b5f83013567ffffffffffffffff811115613e8457613e836130b2565b5b613e9085828601613223565b925050602083013567ffffffffffffffff811115613eb157613eb06130b2565b5b613ebd85828601613223565b9150509250929050565b5f602082019050613eda5f830184613ddc565b92915050565b5f67ffffffffffffffff821115613efa57613ef961312c565b5b602082029050602081019050919050565b5f80fd5b5f60608284031215613f2457613f23613f0b565b5b613f2e606061318a565b90505f613f3d848285016130d5565b5f830152506020613f50848285016130d5565b6020830152506040613f64848285016130d5565b60408301525092915050565b5f613f82613f7d84613ee0565b61318a565b90508083825260208201905060608402830185811115613fa557613fa4613a0d565b5b835b81811015613fce5780613fba8882613f0f565b845260208401935050606081019050613fa7565b5050509392505050565b5f82601f830112613fec57613feb613114565b5b8135613ffc848260208601613f70565b91505092915050565b5f806040838503121561401b5761401a6130ae565b5b5f614028858286016130d5565b925050602083013567ffffffffffffffff811115614049576140486130b2565b5b61405585828601613fd8565b9150509250929050565b5f606083015f8301518482035f860152614079828261369d565b91505060208301518482036020860152614093828261369d565b91505060408301516140a860408601826135b6565b508091505092915050565b5f6080820190506140c65f8301876132bc565b81810360208301526140d8818661348d565b905081810360408301526140ec818561348d565b90508181036060830152614100818461405f565b905095945050505050565b5f805f805f8060c08789031215614125576141246130ae565b5b5f61413289828a016130d5565b965050602087013567ffffffffffffffff811115614153576141526130b2565b5b61415f89828a01613223565b955050604087013567ffffffffffffffff8111156141805761417f6130b2565b5b61418c89828a01613223565b945050606087013567ffffffffffffffff8111156141ad576141ac6130b2565b5b6141b989828a01613223565b935050608087013567ffffffffffffffff8111156141da576141d96130b2565b5b6141e689828a01613223565b92505060a06141f789828a016130d5565b9150509295509295509295565b7f496e76616c69642062616e6b20494400000000000000000000000000000000005f82015250565b5f614238600f83613455565b915061424382614204565b602082019050919050565b5f6020820190508181035f8301526142658161422c565b9050919050565b7f496e76616c696420737570706c696572204944000000000000000000000000005f82015250565b5f6142a0601383613455565b91506142ab8261426c565b602082019050919050565b5f6020820190508181035f8301526142cd81614294565b9050919050565b7f4e487b71000000000000000000000000000000000000000000000000000000005f52603260045260245ffd5b7f4e487b71000000000000000000000000000000000000000000000000000000005f52601160045260245ffd5b5f614338826130b6565b9150614343836130b6565b925082820390508181111561435b5761435a614301565b5b92915050565b7f4e487b71000000000000000000000000000000000000000000000000000000005f52603160045260245ffd5b5f614398826130b6565b91507fffffffffffffffffffffffffffffffffffffffffffffffffffffffffffffffff82036143ca576143c9614301565b5b600182019050919050565b7f4e487b71000000000000000000000000000000000000000000000000000000005f52602260045260245ffd5b5f600282049050600182168061441957607f821691505b60208210810361442c5761442b6143d5565b5b50919050565b5f819050815f5260205f209050919050565b5f6020601f8301049050919050565b5f82821b905092915050565b5f6008830261448e7fffffffffffffffffffffffffffffffffffffffffffffffffffffffffffffffff82614453565b6144988683614453565b95508019841693508086168417925050509392505050565b5f819050919050565b5f6144d36144ce6144c9846130b6565b6144b0565b6130b6565b9050919050565b5f819050919050565b6144ec836144b9565b6145006144f8826144da565b84845461445f565b825550505050565b5f90565b614514614508565b61451f8184846144e3565b505050565b5b81811015614542576145375f8261450c565b600181019050614525565b5050565b601f8211156145875761455881614432565b61456184614444565b81016020851015614570578190505b61458461457c85614444565b830182614524565b50505b505050565b5f82821c905092915050565b5f6145a75f198460080261458c565b1980831691505092915050565b5f6145bf8383614598565b9150826002028217905092915050565b6145d88261344b565b67ffffffffffffffff8111156145f1576145f061312c565b5b6145fb8254614402565b614606828285614546565b5f60209050601f831160018114614637575f8415614625578287015190505b61462f85826145b4565b865550614696565b601f19841661464586614432565b5f5b8281101561466c57848901518255600182019150602085019450602081019050614647565b868310156146895784890151614685601f891682614598565b8355505b6001600288020188555050505b505050505050565b7f496e76616c69642070726f6475637420494400000000000000000000000000005f82015250565b5f6146d2601283613455565b91506146dd8261469e565b602082019050919050565b5f6020820190508181035f8301526146ff816146c6565b9050919050565b7f537570706c696572206e616d652063616e6e6f7420626520656d7074790000005f82015250565b5f61473a601d83613455565b915061474582614706565b602082019050919050565b5f6020820190508181035f8301526147678161472e565b9050919050565b7f537570706c696572206e756d6265722063616e6e6f7420626520656d707479005f82015250565b5f6147a2601f83613455565b91506147ad8261476e565b602082019050919050565b5f6020820190508181035f8301526147cf81614796565b9050919050565b7f42616e6b206e616d652063616e6e6f7420626520656d707479000000000000005f82015250565b5f61480a601983613455565b9150614815826147d6565b602082019050919050565b5f6020820190508181035f830152614837816147fe565b9050919050565b7f536f727420636f64652063616e6e6f7420626520656d707479000000000000005f82015250565b5f614872601983613455565b915061487d8261483e565b602082019050919050565b5f6020820190508181035f83015261489f81614866565b9050919050565b7f42616e6b206163636f756e74206e756d6265722063616e6e6f74206265207a655f8201527f726f000000000000000000000000000000000000000000000000000000000000602082015250565b5f614900602283613455565b915061490b826148a6565b604082019050919050565b5f6020820190508181035f83015261492d816148f4565b9050919050565b7f4f72646572206e6f7420666f756e6400000000000000000000000000000000005f82015250565b5f614968600f83613455565b915061497382614934565b602082019050919050565b5f6020820190508181035f8301526149958161495c565b9050919050565b7f4c656e677468206d69736d6174636800000000000000000000000000000000005f82015250565b5f6149d0600f83613455565b91506149db8261499c565b602082019050919050565b5f6020820190508181035f8301526149fd816149c4565b9050919050565b5f614a0e826130b6565b9150614a19836130b6565b9250828202614a27816130b6565b91508282048414831517614a3e57614a3d614301565b5b5092915050565b5f614a4f826130b6565b9150614a5a836130b6565b9250828201905080821115614a7257614a71614301565b5b92915050565b7f4261636b757020616d6f756e742063616e6e6f74206265207a65726f000000005f82015250565b5f614aac601c83613455565b9150614ab782614a78565b602082019050919050565b5f6020820190508181035f830152614ad981614aa0565b9050919050565b7f42616e6b2064657461696c7320616c72656164792061646465640000000000005f82015250565b5f614b14601a83613455565b9150614b1f82614ae0565b602082019050919050565b5f6020820190508181035f830152614b4181614b08565b9050919050565b5f81905092915050565b5f614b5c8261344b565b614b668185614b48565b9350614b76818560208601613465565b80840191505092915050565b5f614b8d8284614b52565b915081905092915050565b7f52656365697665642070726f6475637420636f756e7420646f6573206e6f74205f8201527f6d61746368206f72646572000000000000000000000000000000000000000000602082015250565b5f614bf2602b83613455565b9150614bfd82614b98565b604082019050919050565b5f6020820190508181035f830152614c1f81614be6565b9050919050565b7f5265636569766564207175616e746974792065786365656473206f72646572655f8201527f64207175616e7469747900000000000000000000000000000000000000000000602082015250565b5f614c80602a83613455565b9150614c8b82614c26565b604082019050919050565b5f6020820190508181035f830152614cad81614c74565b9050919050565b7f4f72646572206e6f7420666f756e64206f7220616c72656164792072656365695f8201527f7665640000000000000000000000000000000000000000000000000000000000602082015250565b5f614d0e602383613455565b9150614d1982614cb4565b604082019050919050565b5f6020820190508181035f830152614d3b81614d02565b9050919050565b7f496e73756666696369656e742062616c616e63650000000000000000000000005f82015250565b5f614d76601483613455565b9150614d8182614d42565b602082019050919050565b5f6020820190508181035f830152614da381614d6a565b905091905056fea2646970667358221220117131fd1e1b400e9c11a90cf8564d36e64f7b57dcf4bd02f358734baf7f88de64736f6c63430008150033",
  "immutableReferences": {},
  "source": "// SPDX-License-Identifier: GPL-3.0\r\n\r\npragma solidity >=0.7.0 <0.9.0;\r\n\r\ncontract InventoryPayment {\r\n    struct Product {\r\n        uint256 productId;\r\n        string productName;\r\n        uint256 productPrice;\r\n        uint256 productQty;\r\n    }\r\n\r\n    struct Order {\r\n        uint256 orderNo;\r\n        uint256 orderDate;\r\n        uint256 orderTotalAmount;\r\n        string orderStatus;\r\n        uint256 supplierId;\r\n        uint256[] productIds;\r\n        uint256[] productQtys;\r\n        bool isReceived; // New field to track order receipt\r\n    }\r\n\r\n    struct OrderDetail {\r\n        uint256 productId;\r\n        uint256 productQtyOrder;\r\n        uint256 productQtyReceived;\r\n    }\r\n\r\n    struct Supplier {\r\n        uint256 supplierId;\r\n        string supplierName;\r\n        string supplierNumber;\r\n        SupplierBank supplierBank;\r\n    }\r\n\r\n    struct SupplierBank {\r\n        string bankName;\r\n        string sortCode;\r\n        uint256 accountNumber;\r\n    }\r\n\r\n    struct Bank {\r\n        uint256 id;\r\n        string bankName;\r\n        uint256 bankAccountNumber;\r\n        uint256 backupAmount;\r\n    }\r\n\r\n    uint256 public productCount;\r\n    uint256 public bankCount;\r\n    uint256 public orderCount;\r\n    uint256 public supplierCount;\r\n    uint256[] public activeProductIds;\r\n    uint256[] public activeSupplierIds;\r\n\r\n    mapping(uint256 => Product) public products;\r\n    mapping(address => Order[]) public userOrders;\r\n    mapping(uint256 => Bank) public userBankDetails;\r\n    mapping(uint256 => SupplierBank) public supplierBankDetails;\r\n    mapping(uint256 => Supplier) public suppliers;\r\n    \r\n    event OrderPlaced(uint256 indexed orderNo, address indexed user);\r\n\r\n    event BankAdded(uint256 indexed bankId);\r\n    event BankUpdated(uint256 indexed bankId);\r\n    event BankDeleted(uint256 indexed bankId);\r\n\r\n    event ProductAdded(uint256 indexed productId);\r\n    event ProductUpdated(uint256 indexed productId);\r\n    event ProductDeleted(uint256 indexed productId);\r\n    event PaymentSent(\r\n        uint256 indexed orderNo,\r\n        address indexed supplier,\r\n        uint256 amount\r\n    );\r\n\r\n    event SupplierAdded(uint256 indexed supId);\r\n    event SupplierUpdated(uint256 indexed supId);\r\n    event SupplierDeleted(uint256 indexed supId);\r\n\r\n    // Function to add supplier details\r\n    function addSupplier(\r\n        string memory _supplierName,\r\n        string memory _supplierNumber,\r\n        string memory _bankName,\r\n        string memory _sortCode,\r\n        uint256 _bankAccountNumber\r\n    ) external {\r\n        require(\r\n            bytes(_supplierName).length > 0,\r\n            \"Supplier name cannot be empty\"\r\n        );\r\n        require(\r\n            bytes(_supplierNumber).length > 0,\r\n            \"Supplier number cannot be empty\"\r\n        );\r\n        require(bytes(_bankName).length > 0, \"Bank name cannot be empty\");\r\n        require(bytes(_sortCode).length > 0, \"Sort code cannot be empty\");\r\n        require(_bankAccountNumber != 0, \"Bank account number cannot be zero\");\r\n\r\n        supplierCount++;\r\n        suppliers[supplierCount] = Supplier(\r\n            supplierCount,\r\n            _supplierName,\r\n            _supplierNumber,\r\n            SupplierBank(_bankName, _sortCode, _bankAccountNumber)\r\n        );\r\n        activeSupplierIds.push(supplierCount);\r\n\r\n        emit SupplierAdded(supplierCount);\r\n    }\r\n\r\n    // Function to get all supplier details\r\n    function getAllSuppliersDetails()\r\n        external\r\n        view\r\n        returns (Supplier[] memory)\r\n    {\r\n        Supplier[] memory allSuppliers = new Supplier[](supplierCount);\r\n        for (uint256 i = 1; i <= supplierCount; i++) {\r\n            allSuppliers[i - 1] = suppliers[i];\r\n        }\r\n        return allSuppliers;\r\n    }\r\n\r\n    // Function to update supplier details\r\n    function updateSupplier(\r\n        uint256 _supplierId,\r\n        string memory _newName,\r\n        string memory _newNumber,\r\n        string memory _newBankName,\r\n        string memory _newSortCode,\r\n        uint256 _newAccountNumber\r\n    ) external {\r\n        require(\r\n            _supplierId <= supplierCount && _supplierId > 0,\r\n            \"Invalid supplier ID\"\r\n        );\r\n        Supplier storage supplier = suppliers[_supplierId];\r\n        supplier.supplierName = _newName;\r\n        supplier.supplierNumber = _newNumber;\r\n        supplier.supplierBank.bankName = _newBankName;\r\n        supplier.supplierBank.sortCode = _newSortCode;\r\n        supplier.supplierBank.accountNumber = _newAccountNumber;\r\n        emit SupplierUpdated(_supplierId);\r\n    }\r\n\r\n    // Function to delete a supplier\r\n    function deleteSupplier(uint256 _supplierId) external {\r\n        require(\r\n            _supplierId <= supplierCount && _supplierId > 0,\r\n            \"Invalid supplier ID\"\r\n        );\r\n        delete suppliers[_supplierId];\r\n        emit SupplierDeleted(_supplierId);\r\n\r\n        // Remove the supplier ID from activeSupplierIds array\r\n        for (uint256 i = 0; i < activeSupplierIds.length; i++) {\r\n            if (activeSupplierIds[i] == _supplierId) {\r\n                activeSupplierIds[i] = activeSupplierIds[\r\n                    activeSupplierIds.length - 1\r\n                ];\r\n                activeSupplierIds.pop();\r\n                break;\r\n            }\r\n        }\r\n    }\r\n\r\n    // Function to get user bank details\r\n    function getUserBankDetails(\r\n        uint256 _user\r\n    ) external view returns (Bank memory) {\r\n        return userBankDetails[_user];\r\n    }\r\n\r\n    // Function to add user bank details\r\n    function addUserBankDetails(\r\n        string memory _bankName,\r\n        uint256 _bankAccountNumber,\r\n        uint256 _backupAmount\r\n    ) external {\r\n        require(bytes(_bankName).length > 0, \"Bank name cannot be empty\");\r\n        require(_bankAccountNumber != 0, \"Bank account number cannot be zero\");\r\n        require(_backupAmount != 0, \"Backup amount cannot be zero\");\r\n        require(\r\n            userBankDetails[bankCount].id == 0,\r\n            \"Bank details already added\"\r\n        );\r\n\r\n        bankCount++;\r\n        userBankDetails[bankCount] = Bank(\r\n            bankCount,\r\n            _bankName,\r\n            _bankAccountNumber,\r\n            _backupAmount\r\n        );\r\n        emit BankAdded(bankCount);\r\n    }\r\n\r\n    // Function to get user bank details\r\n    function getBankDetails() external view returns (Bank[] memory) {\r\n        Bank[] memory allBank = new Bank[](bankCount);\r\n        for (uint256 i = 1; i <= bankCount; i++) {\r\n            allBank[i - 1] = userBankDetails[i];\r\n        }\r\n        return allBank;\r\n    }\r\n\r\n    // Function to view details of a specific product\r\n    function viewBank(\r\n        uint256 _bankId\r\n    )\r\n        external\r\n        view\r\n        returns (string memory bankName, uint256 bankNumber, uint256 bankAmout)\r\n    {\r\n        require(_bankId <= bankCount && _bankId > 0, \"Invalid bank ID\");\r\n        Bank memory bank = userBankDetails[_bankId];\r\n        return (bank.bankName, bank.bankAccountNumber, bank.bankAccountNumber);\r\n    }\r\n\r\n    // Function to update details of a product\r\n    function updateBank(\r\n        uint256 _bankId,\r\n        string memory _newName,\r\n        uint256 _newAccountNumber,\r\n        uint256 _newAmount\r\n    ) external {\r\n        require(_bankId <= bankCount && _bankId > 0, \"Invalid bank ID\");\r\n        Bank storage bank = userBankDetails[_bankId];\r\n        bank.bankName = _newName;\r\n        bank.bankAccountNumber = _newAccountNumber;\r\n        bank.backupAmount = _newAmount;\r\n        emit BankUpdated(_bankId);\r\n    }\r\n\r\n    // Function to delete a product\r\n    function deleteBank(uint256 _bankId) external {\r\n        require(_bankId <= bankCount && _bankId > 0, \"Invalid bank ID\");\r\n        delete products[_bankId];\r\n        emit BankDeleted(_bankId);\r\n    }\r\n\r\n    // Function to add a new product\r\n    function addProduct(\r\n        string memory _productName,\r\n        uint256 _productPrice,\r\n        uint256 _productQty\r\n    ) external {\r\n        productCount++;\r\n        products[productCount] = Product(\r\n            productCount,\r\n            _productName,\r\n            _productPrice,\r\n            _productQty\r\n        );\r\n        activeProductIds.push(productCount);\r\n        emit ProductAdded(productCount);\r\n    }\r\n\r\n    // Function to view details of a specific product\r\n    function viewProduct(\r\n        uint256 _productId\r\n    )\r\n        external\r\n        view\r\n        returns (\r\n            string memory productName,\r\n            uint256 productPrice,\r\n            uint256 productQty\r\n        )\r\n    {\r\n        require(\r\n            _productId <= productCount && _productId > 0,\r\n            \"Invalid product ID\"\r\n        );\r\n        Product memory product = products[_productId];\r\n        return (product.productName, product.productPrice, product.productQty);\r\n    }\r\n\r\n    // Function to update details of a product\r\n    function updateProduct(\r\n        uint256 _productId,\r\n        string memory _newName,\r\n        uint256 _newPrice,\r\n        uint256 _newQty\r\n    ) external {\r\n        require(\r\n            _productId <= productCount && _productId > 0,\r\n            \"Invalid product ID\"\r\n        );\r\n        Product storage product = products[_productId];\r\n        product.productName = _newName;\r\n        product.productPrice = _newPrice;\r\n        product.productQty = _newQty;\r\n        emit ProductUpdated(_productId);\r\n    }\r\n\r\n    // Function to delete a product\r\n    function deleteProduct(uint256 _productId) external {\r\n        require(_productId <= productCount && _productId > 0, \"Invalid product ID\");\r\n        delete products[_productId];\r\n        emit ProductDeleted(_productId);\r\n\r\n        // Remove the product ID from activeProductIds array\r\n        for (uint256 i = 0; i < activeProductIds.length; i++) {\r\n            if (activeProductIds[i] == _productId) {\r\n                activeProductIds[i] = activeProductIds[\r\n                    activeProductIds.length - 1\r\n                ];\r\n                activeProductIds.pop();\r\n                break;\r\n            }\r\n        }\r\n    }\r\n\r\n    // Function to view all products\r\n    function viewAllProducts() external view returns (Product[] memory) {\r\n        Product[] memory allProducts = new Product[](productCount);\r\n        for (uint256 i = 1; i <= productCount; i++) {\r\n            allProducts[i - 1] = products[i];\r\n        }\r\n        return allProducts;\r\n    }\r\n\r\n    // Function to place an order\r\n    function placeOrder(\r\n        uint256[] memory _productIds,\r\n        uint256[] memory _productQtyOrder,\r\n        uint256 _supplierId\r\n    ) external {\r\n        require(\r\n            _productIds.length == _productQtyOrder.length,\r\n            \"Length mismatch\"\r\n        );\r\n\r\n        uint256 totalAmount = 0;\r\n        for (uint256 i = 0; i < _productIds.length; i++) {\r\n            require(\r\n                _productIds[i] <= productCount && _productIds[i] > 0,\r\n                \"Invalid product ID\"\r\n            );\r\n            totalAmount += products[_productIds[i]].productPrice * _productQtyOrder[i];\r\n        }\r\n\r\n        orderCount++;\r\n        uint256 orderNo = orderCount; // Use sequential order number\r\n        \r\n        uint256[] memory productIds = new uint256[](_productIds.length);\r\n        uint256[] memory productQtys = new uint256[](_productQtyOrder.length);\r\n\r\n        for (uint256 i = 0; i < _productIds.length; i++) {\r\n            productIds[i] = _productIds[i];\r\n            productQtys[i] = _productQtyOrder[i];\r\n        }\r\n        userOrders[msg.sender].push(Order(\r\n            orderNo,\r\n            block.timestamp,\r\n            totalAmount,\r\n            \"placed\",\r\n            _supplierId, // Placeholder for supplier ID, to be updated later\r\n            productIds,\r\n            productQtys,\r\n            false\r\n        ));\r\n\r\n        emit OrderPlaced(orderNo, msg.sender);\r\n    }\r\n\r\n    // Function to retrieve order numbers for a user\r\n    function getPlacedOrderNumbers(address _user) external view returns (uint256[] memory) {\r\n        Order[] storage orders = userOrders[_user];\r\n        uint256[] memory orderNumbers = new uint256[](orders.length);\r\n        for (uint256 i = 0; i < orders.length; i++) {\r\n            orderNumbers[i] = orders[i].orderNo;\r\n        }\r\n        return orderNumbers;\r\n    }\r\n\r\n    // Function to retrieve detailed order information by order number\r\n    function getOrderDetails(address _user, uint256 _orderNo) external view returns (\r\n        uint256 orderNo,\r\n        uint256 orderDate,\r\n        uint256 orderTotalAmount,\r\n        string memory orderStatus,\r\n        uint256 supplierId,\r\n        uint256[] memory productIds,\r\n        uint256[] memory productQtys\r\n    ) {\r\n        Order[] storage orders = userOrders[_user];\r\n        for (uint256 i = 0; i < orders.length; i++) {\r\n            if (orders[i].orderNo == _orderNo) {\r\n                Order storage order = orders[i];\r\n                return (\r\n                    order.orderNo,\r\n                    order.orderDate,\r\n                    order.orderTotalAmount,\r\n                    order.orderStatus,\r\n                    order.supplierId,\r\n                    order.productIds,\r\n                    order.productQtys\r\n                );\r\n            }\r\n        }\r\n        revert(\"Order not found\");\r\n    }\r\n\r\n    function compareStrings(\r\n        string memory a,\r\n        string memory b\r\n    ) public pure returns (bool) {\r\n        return keccak256(abi.encodePacked(a)) == keccak256(abi.encodePacked(b));\r\n    }\r\n\r\n    // Function to mark an order as received and update product quantities\r\n    function receiveOrder(uint256 _orderNo, OrderDetail[] memory _receivedProducts) external {\r\n        Order[] storage orders = userOrders[msg.sender];\r\n        bool orderFound = false;\r\n        \r\n        for (uint256 i = 0; i < orders.length; i++) {\r\n            if (orders[i].orderNo == _orderNo && !orders[i].isReceived) {\r\n                uint256 totalAmount = 0;\r\n                require(_receivedProducts.length == orders[i].productIds.length, \"Received product count does not match order\");\r\n\r\n                // Validate received product details and update total amount\r\n                for (uint256 j = 0; j < _receivedProducts.length; j++) {\r\n                    require(_receivedProducts[j].productQtyReceived <= orders[i].productQtys[j], \"Received quantity exceeds ordered quantity\");\r\n                    \r\n                    //totalAmount += _receivedProducts[j].productQtyReceived * products[_receivedProducts[j].productId].productPrice;\r\n                    totalAmount += _receivedProducts[j].productQtyReceived * _receivedProducts[j].productQtyReceived;\r\n\r\n                    // Update product quantity in inventory\r\n                    products[_receivedProducts[j].productId].productQty += _receivedProducts[j].productQtyReceived;\r\n                }\r\n\r\n                // Mark order as received\r\n                orders[i].isReceived = true;\r\n                orders[i].orderStatus = \"received\";\r\n                orders[i].orderTotalAmount = totalAmount;\r\n\r\n                orderFound = true;\r\n                break;\r\n            }\r\n        }\r\n\r\n        require(orderFound, \"Order not found or already received\");\r\n\r\n        // Automatically pay the supplier\r\n        //paySupplier(_orderNo);\r\n        \r\n        for (uint256 i = 0; i < orders.length; i++) {\r\n            if (orders[i].orderNo == _orderNo && compareStrings(orders[i].orderStatus, \"received\")) {\r\n                uint256 totalAmount = orders[i].orderTotalAmount;\r\n                uint256 supplierId = orders[i].supplierId;\r\n\r\n                Bank storage userBank = userBankDetails[0];\r\n                SupplierBank storage supplierBank = supplierBankDetails[supplierId];\r\n\r\n                require(userBank.backupAmount + userBank.bankAccountNumber >= totalAmount, \"Insufficient balance\");\r\n                \r\n                // Update user's bank balance\r\n                userBank.backupAmount -= totalAmount;\r\n                break;\r\n            }\r\n        }\r\n\r\n    }\r\n}",
  "sourcePath": "G:\\Ravensbourne\\SEM-2\\WEB3-BLOCKCHAIN\\react\\inventorypaymentsystem\\contracts\\InventoryPayment.sol",
  "compiler": {
    "name": "solc",
    "version": "0.8.21+commit.d9974bed.Emscripten.clang"
  },
  "schemaVersion": "3.4.16",
  "updatedAt": "2024-03-28T23:53:48.769Z",
  "networkType": "ethereum",
  "devdoc": {
    "kind": "dev",
    "methods": {},
    "version": 1
  },
  "userdoc": {
    "kind": "user",
    "methods": {},
    "version": 1
  }
}