{
  "contractName": "InventoryPayment",
  "abi": [
    {
      "anonymous": false,
      "inputs": [
        {
          "indexed": true,
          "internalType": "uint256",
          "name": "bankId",
          "type": "uint256"
        }
      ],
      "name": "BankAdded",
      "type": "event"
    },
    {
      "anonymous": false,
      "inputs": [
        {
          "indexed": true,
          "internalType": "uint256",
          "name": "bankId",
          "type": "uint256"
        }
      ],
      "name": "BankDeleted",
      "type": "event"
    },
    {
      "anonymous": false,
      "inputs": [
        {
          "indexed": true,
          "internalType": "uint256",
          "name": "bankId",
          "type": "uint256"
        }
      ],
      "name": "BankUpdated",
      "type": "event"
    },
    {
      "anonymous": false,
      "inputs": [
        {
          "indexed": true,
          "internalType": "uint256",
          "name": "orderNo",
          "type": "uint256"
        },
        {
          "indexed": true,
          "internalType": "address",
          "name": "user",
          "type": "address"
        }
      ],
      "name": "OrderPlaced",
      "type": "event"
    },
    {
      "anonymous": false,
      "inputs": [
        {
          "indexed": true,
          "internalType": "uint256",
          "name": "orderNo",
          "type": "uint256"
        },
        {
          "indexed": true,
          "internalType": "address",
          "name": "supplier",
          "type": "address"
        },
        {
          "indexed": false,
          "internalType": "uint256",
          "name": "amount",
          "type": "uint256"
        }
      ],
      "name": "PaymentSent",
      "type": "event"
    },
    {
      "anonymous": false,
      "inputs": [
        {
          "indexed": true,
          "internalType": "uint256",
          "name": "productId",
          "type": "uint256"
        }
      ],
      "name": "ProductAdded",
      "type": "event"
    },
    {
      "anonymous": false,
      "inputs": [
        {
          "indexed": true,
          "internalType": "uint256",
          "name": "productId",
          "type": "uint256"
        }
      ],
      "name": "ProductDeleted",
      "type": "event"
    },
    {
      "anonymous": false,
      "inputs": [
        {
          "indexed": true,
          "internalType": "uint256",
          "name": "productId",
          "type": "uint256"
        }
      ],
      "name": "ProductUpdated",
      "type": "event"
    },
    {
      "anonymous": false,
      "inputs": [
        {
          "indexed": true,
          "internalType": "uint256",
          "name": "supId",
          "type": "uint256"
        }
      ],
      "name": "SupplierAdded",
      "type": "event"
    },
    {
      "anonymous": false,
      "inputs": [
        {
          "indexed": true,
          "internalType": "uint256",
          "name": "supId",
          "type": "uint256"
        }
      ],
      "name": "SupplierDeleted",
      "type": "event"
    },
    {
      "anonymous": false,
      "inputs": [
        {
          "indexed": true,
          "internalType": "uint256",
          "name": "supId",
          "type": "uint256"
        }
      ],
      "name": "SupplierUpdated",
      "type": "event"
    },
    {
      "inputs": [
        {
          "internalType": "uint256",
          "name": "",
          "type": "uint256"
        }
      ],
      "name": "activeProductIds",
      "outputs": [
        {
          "internalType": "uint256",
          "name": "",
          "type": "uint256"
        }
      ],
      "stateMutability": "view",
      "type": "function",
      "constant": true
    },
    {
      "inputs": [
        {
          "internalType": "uint256",
          "name": "",
          "type": "uint256"
        }
      ],
      "name": "activeSupplierIds",
      "outputs": [
        {
          "internalType": "uint256",
          "name": "",
          "type": "uint256"
        }
      ],
      "stateMutability": "view",
      "type": "function",
      "constant": true
    },
    {
      "inputs": [],
      "name": "bankCount",
      "outputs": [
        {
          "internalType": "uint256",
          "name": "",
          "type": "uint256"
        }
      ],
      "stateMutability": "view",
      "type": "function",
      "constant": true
    },
    {
      "inputs": [],
      "name": "orderCount",
      "outputs": [
        {
          "internalType": "uint256",
          "name": "",
          "type": "uint256"
        }
      ],
      "stateMutability": "view",
      "type": "function",
      "constant": true
    },
    {
      "inputs": [],
      "name": "productCount",
      "outputs": [
        {
          "internalType": "uint256",
          "name": "",
          "type": "uint256"
        }
      ],
      "stateMutability": "view",
      "type": "function",
      "constant": true
    },
    {
      "inputs": [
        {
          "internalType": "uint256",
          "name": "",
          "type": "uint256"
        }
      ],
      "name": "products",
      "outputs": [
        {
          "internalType": "uint256",
          "name": "productId",
          "type": "uint256"
        },
        {
          "internalType": "string",
          "name": "productName",
          "type": "string"
        },
        {
          "internalType": "uint256",
          "name": "productPrice",
          "type": "uint256"
        },
        {
          "internalType": "uint256",
          "name": "productQty",
          "type": "uint256"
        }
      ],
      "stateMutability": "view",
      "type": "function",
      "constant": true
    },
    {
      "inputs": [
        {
          "internalType": "uint256",
          "name": "",
          "type": "uint256"
        }
      ],
      "name": "supplierBankDetails",
      "outputs": [
        {
          "internalType": "string",
          "name": "bankName",
          "type": "string"
        },
        {
          "internalType": "string",
          "name": "sortCode",
          "type": "string"
        },
        {
          "internalType": "uint256",
          "name": "accountNumber",
          "type": "uint256"
        }
      ],
      "stateMutability": "view",
      "type": "function",
      "constant": true
    },
    {
      "inputs": [],
      "name": "supplierCount",
      "outputs": [
        {
          "internalType": "uint256",
          "name": "",
          "type": "uint256"
        }
      ],
      "stateMutability": "view",
      "type": "function",
      "constant": true
    },
    {
      "inputs": [
        {
          "internalType": "uint256",
          "name": "",
          "type": "uint256"
        }
      ],
      "name": "suppliers",
      "outputs": [
        {
          "internalType": "uint256",
          "name": "supplierId",
          "type": "uint256"
        },
        {
          "internalType": "string",
          "name": "supplierName",
          "type": "string"
        },
        {
          "internalType": "string",
          "name": "supplierNumber",
          "type": "string"
        },
        {
          "components": [
            {
              "internalType": "string",
              "name": "bankName",
              "type": "string"
            },
            {
              "internalType": "string",
              "name": "sortCode",
              "type": "string"
            },
            {
              "internalType": "uint256",
              "name": "accountNumber",
              "type": "uint256"
            }
          ],
          "internalType": "struct InventoryPayment.SupplierBank",
          "name": "supplierBank",
          "type": "tuple"
        }
      ],
      "stateMutability": "view",
      "type": "function",
      "constant": true
    },
    {
      "inputs": [
        {
          "internalType": "uint256",
          "name": "",
          "type": "uint256"
        }
      ],
      "name": "userBankDetails",
      "outputs": [
        {
          "internalType": "uint256",
          "name": "id",
          "type": "uint256"
        },
        {
          "internalType": "string",
          "name": "bankName",
          "type": "string"
        },
        {
          "internalType": "uint256",
          "name": "bankAccountNumber",
          "type": "uint256"
        },
        {
          "internalType": "uint256",
          "name": "backupAmount",
          "type": "uint256"
        }
      ],
      "stateMutability": "view",
      "type": "function",
      "constant": true
    },
    {
      "inputs": [
        {
          "internalType": "address",
          "name": "",
          "type": "address"
        },
        {
          "internalType": "uint256",
          "name": "",
          "type": "uint256"
        }
      ],
      "name": "userOrders",
      "outputs": [
        {
          "internalType": "uint256",
          "name": "orderNo",
          "type": "uint256"
        },
        {
          "internalType": "uint256",
          "name": "orderDate",
          "type": "uint256"
        },
        {
          "internalType": "uint256",
          "name": "orderTotalAmount",
          "type": "uint256"
        },
        {
          "internalType": "string",
          "name": "orderStatus",
          "type": "string"
        },
        {
          "internalType": "uint256",
          "name": "supplierId",
          "type": "uint256"
        },
        {
          "internalType": "bool",
          "name": "isReceived",
          "type": "bool"
        }
      ],
      "stateMutability": "view",
      "type": "function",
      "constant": true
    },
    {
      "inputs": [
        {
          "internalType": "string",
          "name": "_supplierName",
          "type": "string"
        },
        {
          "internalType": "string",
          "name": "_supplierNumber",
          "type": "string"
        },
        {
          "internalType": "string",
          "name": "_bankName",
          "type": "string"
        },
        {
          "internalType": "string",
          "name": "_sortCode",
          "type": "string"
        },
        {
          "internalType": "uint256",
          "name": "_bankAccountNumber",
          "type": "uint256"
        }
      ],
      "name": "addSupplier",
      "outputs": [],
      "stateMutability": "nonpayable",
      "type": "function"
    },
    {
      "inputs": [],
      "name": "getAllSuppliersDetails",
      "outputs": [
        {
          "components": [
            {
              "internalType": "uint256",
              "name": "supplierId",
              "type": "uint256"
            },
            {
              "internalType": "string",
              "name": "supplierName",
              "type": "string"
            },
            {
              "internalType": "string",
              "name": "supplierNumber",
              "type": "string"
            },
            {
              "components": [
                {
                  "internalType": "string",
                  "name": "bankName",
                  "type": "string"
                },
                {
                  "internalType": "string",
                  "name": "sortCode",
                  "type": "string"
                },
                {
                  "internalType": "uint256",
                  "name": "accountNumber",
                  "type": "uint256"
                }
              ],
              "internalType": "struct InventoryPayment.SupplierBank",
              "name": "supplierBank",
              "type": "tuple"
            }
          ],
          "internalType": "struct InventoryPayment.Supplier[]",
          "name": "",
          "type": "tuple[]"
        }
      ],
      "stateMutability": "view",
      "type": "function",
      "constant": true
    },
    {
      "inputs": [
        {
          "internalType": "uint256",
          "name": "_supplierId",
          "type": "uint256"
        },
        {
          "internalType": "string",
          "name": "_newName",
          "type": "string"
        },
        {
          "internalType": "string",
          "name": "_newNumber",
          "type": "string"
        },
        {
          "internalType": "string",
          "name": "_newBankName",
          "type": "string"
        },
        {
          "internalType": "string",
          "name": "_newSortCode",
          "type": "string"
        },
        {
          "internalType": "uint256",
          "name": "_newAccountNumber",
          "type": "uint256"
        }
      ],
      "name": "updateSupplier",
      "outputs": [],
      "stateMutability": "nonpayable",
      "type": "function"
    },
    {
      "inputs": [
        {
          "internalType": "uint256",
          "name": "_supplierId",
          "type": "uint256"
        }
      ],
      "name": "deleteSupplier",
      "outputs": [],
      "stateMutability": "nonpayable",
      "type": "function"
    },
    {
      "inputs": [
        {
          "internalType": "uint256",
          "name": "_user",
          "type": "uint256"
        }
      ],
      "name": "getUserBankDetails",
      "outputs": [
        {
          "components": [
            {
              "internalType": "uint256",
              "name": "id",
              "type": "uint256"
            },
            {
              "internalType": "string",
              "name": "bankName",
              "type": "string"
            },
            {
              "internalType": "uint256",
              "name": "bankAccountNumber",
              "type": "uint256"
            },
            {
              "internalType": "uint256",
              "name": "backupAmount",
              "type": "uint256"
            }
          ],
          "internalType": "struct InventoryPayment.Bank",
          "name": "",
          "type": "tuple"
        }
      ],
      "stateMutability": "view",
      "type": "function",
      "constant": true
    },
    {
      "inputs": [
        {
          "internalType": "string",
          "name": "_bankName",
          "type": "string"
        },
        {
          "internalType": "uint256",
          "name": "_bankAccountNumber",
          "type": "uint256"
        },
        {
          "internalType": "uint256",
          "name": "_backupAmount",
          "type": "uint256"
        }
      ],
      "name": "addUserBankDetails",
      "outputs": [],
      "stateMutability": "nonpayable",
      "type": "function"
    },
    {
      "inputs": [],
      "name": "getBankDetails",
      "outputs": [
        {
          "components": [
            {
              "internalType": "uint256",
              "name": "id",
              "type": "uint256"
            },
            {
              "internalType": "string",
              "name": "bankName",
              "type": "string"
            },
            {
              "internalType": "uint256",
              "name": "bankAccountNumber",
              "type": "uint256"
            },
            {
              "internalType": "uint256",
              "name": "backupAmount",
              "type": "uint256"
            }
          ],
          "internalType": "struct InventoryPayment.Bank[]",
          "name": "",
          "type": "tuple[]"
        }
      ],
      "stateMutability": "view",
      "type": "function",
      "constant": true
    },
    {
      "inputs": [
        {
          "internalType": "uint256",
          "name": "_bankId",
          "type": "uint256"
        }
      ],
      "name": "viewBank",
      "outputs": [
        {
          "internalType": "string",
          "name": "bankName",
          "type": "string"
        },
        {
          "internalType": "uint256",
          "name": "bankNumber",
          "type": "uint256"
        },
        {
          "internalType": "uint256",
          "name": "bankAmout",
          "type": "uint256"
        }
      ],
      "stateMutability": "view",
      "type": "function",
      "constant": true
    },
    {
      "inputs": [
        {
          "internalType": "uint256",
          "name": "_bankId",
          "type": "uint256"
        },
        {
          "internalType": "string",
          "name": "_newName",
          "type": "string"
        },
        {
          "internalType": "uint256",
          "name": "_newAccountNumber",
          "type": "uint256"
        },
        {
          "internalType": "uint256",
          "name": "_newAmount",
          "type": "uint256"
        }
      ],
      "name": "updateBank",
      "outputs": [],
      "stateMutability": "nonpayable",
      "type": "function"
    },
    {
      "inputs": [
        {
          "internalType": "uint256",
          "name": "_bankId",
          "type": "uint256"
        }
      ],
      "name": "deleteBank",
      "outputs": [],
      "stateMutability": "nonpayable",
      "type": "function"
    },
    {
      "inputs": [
        {
          "internalType": "string",
          "name": "_productName",
          "type": "string"
        },
        {
          "internalType": "uint256",
          "name": "_productPrice",
          "type": "uint256"
        },
        {
          "internalType": "uint256",
          "name": "_productQty",
          "type": "uint256"
        }
      ],
      "name": "addProduct",
      "outputs": [],
      "stateMutability": "nonpayable",
      "type": "function"
    },
    {
      "inputs": [
        {
          "internalType": "uint256",
          "name": "_productId",
          "type": "uint256"
        }
      ],
      "name": "viewProduct",
      "outputs": [
        {
          "internalType": "string",
          "name": "productName",
          "type": "string"
        },
        {
          "internalType": "uint256",
          "name": "productPrice",
          "type": "uint256"
        },
        {
          "internalType": "uint256",
          "name": "productQty",
          "type": "uint256"
        }
      ],
      "stateMutability": "view",
      "type": "function",
      "constant": true
    },
    {
      "inputs": [
        {
          "internalType": "uint256",
          "name": "_productId",
          "type": "uint256"
        },
        {
          "internalType": "string",
          "name": "_newName",
          "type": "string"
        },
        {
          "internalType": "uint256",
          "name": "_newPrice",
          "type": "uint256"
        },
        {
          "internalType": "uint256",
          "name": "_newQty",
          "type": "uint256"
        }
      ],
      "name": "updateProduct",
      "outputs": [],
      "stateMutability": "nonpayable",
      "type": "function"
    },
    {
      "inputs": [
        {
          "internalType": "uint256",
          "name": "_productId",
          "type": "uint256"
        }
      ],
      "name": "deleteProduct",
      "outputs": [],
      "stateMutability": "nonpayable",
      "type": "function"
    },
    {
      "inputs": [],
      "name": "viewAllProducts",
      "outputs": [
        {
          "components": [
            {
              "internalType": "uint256",
              "name": "productId",
              "type": "uint256"
            },
            {
              "internalType": "string",
              "name": "productName",
              "type": "string"
            },
            {
              "internalType": "uint256",
              "name": "productPrice",
              "type": "uint256"
            },
            {
              "internalType": "uint256",
              "name": "productQty",
              "type": "uint256"
            }
          ],
          "internalType": "struct InventoryPayment.Product[]",
          "name": "",
          "type": "tuple[]"
        }
      ],
      "stateMutability": "view",
      "type": "function",
      "constant": true
    },
    {
      "inputs": [
        {
          "internalType": "uint256[]",
          "name": "_productIds",
          "type": "uint256[]"
        },
        {
          "internalType": "uint256[]",
          "name": "_productQtyOrder",
          "type": "uint256[]"
        },
        {
          "internalType": "uint256",
          "name": "_supplierId",
          "type": "uint256"
        }
      ],
      "name": "placeOrder",
      "outputs": [],
      "stateMutability": "nonpayable",
      "type": "function"
    },
    {
      "inputs": [
        {
          "internalType": "address",
          "name": "_user",
          "type": "address"
        }
      ],
      "name": "getPlacedOrderNumbers",
      "outputs": [
        {
          "internalType": "uint256[]",
          "name": "",
          "type": "uint256[]"
        }
      ],
      "stateMutability": "view",
      "type": "function",
      "constant": true
    },
    {
      "inputs": [
        {
          "internalType": "address",
          "name": "_user",
          "type": "address"
        },
        {
          "internalType": "uint256",
          "name": "_orderNo",
          "type": "uint256"
        }
      ],
      "name": "getOrderDetails",
      "outputs": [
        {
          "internalType": "uint256",
          "name": "orderNo",
          "type": "uint256"
        },
        {
          "internalType": "uint256",
          "name": "orderDate",
          "type": "uint256"
        },
        {
          "internalType": "uint256",
          "name": "orderTotalAmount",
          "type": "uint256"
        },
        {
          "internalType": "string",
          "name": "orderStatus",
          "type": "string"
        },
        {
          "internalType": "uint256",
          "name": "supplierId",
          "type": "uint256"
        },
        {
          "internalType": "uint256[]",
          "name": "productIds",
          "type": "uint256[]"
        },
        {
          "internalType": "uint256[]",
          "name": "productQtys",
          "type": "uint256[]"
        }
      ],
      "stateMutability": "view",
      "type": "function",
      "constant": true
    },
    {
      "inputs": [
        {
          "internalType": "string",
          "name": "a",
          "type": "string"
        },
        {
          "internalType": "string",
          "name": "b",
          "type": "string"
        }
      ],
      "name": "compareStrings",
      "outputs": [
        {
          "internalType": "bool",
          "name": "",
          "type": "bool"
        }
      ],
      "stateMutability": "pure",
      "type": "function",
      "constant": true
    },
    {
      "inputs": [
        {
          "internalType": "uint256",
          "name": "_orderNo",
          "type": "uint256"
        },
        {
          "components": [
            {
              "internalType": "uint256",
              "name": "productId",
              "type": "uint256"
            },
            {
              "internalType": "uint256",
              "name": "productQtyOrder",
              "type": "uint256"
            },
            {
              "internalType": "uint256",
              "name": "productQtyReceived",
              "type": "uint256"
            },
            {
              "internalType": "uint256",
              "name": "productPrice",
              "type": "uint256"
            }
          ],
          "internalType": "struct InventoryPayment.OrderDetail[]",
          "name": "_receivedProducts",
          "type": "tuple[]"
        }
      ],
      "name": "receiveOrder",
      "outputs": [],
      "stateMutability": "nonpayable",
      "type": "function"
    }
  ],
  "bytecode": "0x608060405234801561000f575f80fd5b50614e658061001d5f395ff3fe608060405234801561000f575f80fd5b50600436106101e3575f3560e01c80636f1378061161010d578063bed34bba116100a0578063eafd4bbd1161006f578063eafd4bbd146105db578063ed90c7b71461060d578063f879eb5714610629578063fbf3c5d814610647576101e3565b8063bed34bba1461053e578063cea231211461056e578063d5d6690c146105a1578063e0f6ef87146105bd576101e3565b80637acc0b20116100dc5780637acc0b2014610487578063856652e9146104ba5780639431a635146104ef578063b2624e1714610522576101e3565b80636f137806146103eb578063766662f21461041b578063770719151461043957806378147d4e14610455576101e3565b8063330b066211610185578063562e07cd11610154578063562e07cd1461034b5780635b1389af146103815780636654b4d01461039f5780636dedcb09146103bb576101e3565b8063330b0662146102af5780633605adae146102cb5780634e818c4b146102fd578063503a37e01461032d576101e3565b8063140c6b91116101c1578063140c6b911461023b5780632453ffa8146102595780632d5617871461027757806332689cf014610293576101e3565b806303d4afc5146101e757806305d3d36614610203578063125b0b341461021f575b5f80fd5b61020160048036038101906101fc919061315a565b610677565b005b61021d6004803603810190610218919061315a565b61072e565b005b610239600480360381019061023491906132c1565b6108cf565b005b6102436109a8565b604051610250919061333c565b60405180910390f35b6102616109ae565b60405161026e919061333c565b60405180910390f35b610291600480360381019061028c9190613355565b6109b4565b005b6102ad60048036038101906102a89190613355565b610a6f565b005b6102c960048036038101906102c491906133d5565b610b2b565b005b6102e560048036038101906102e0919061315a565b610db4565b6040516102f493929190613536565b60405180910390f35b610317600480360381019061031291906135d3565b610ee6565b60405161032491906136b5565b60405180910390f35b610335610fe5565b6040516103429190613838565b60405180910390f35b61036560048036038101906103609190613858565b61115d565b6040516103789796959493929190613896565b60405180910390f35b6103896113b8565b6040516103969190613a33565b60405180910390f35b6103b960048036038101906103b49190613b17565b61152e565b005b6103d560048036038101906103d0919061315a565b611978565b6040516103e29190613bff565b60405180910390f35b6104056004803603810190610400919061315a565b611a50565b604051610412919061333c565b60405180910390f35b610423611a70565b6040516104309190613d9c565b60405180910390f35b610453600480360381019061044e9190613ef5565b611da1565b005b61046f600480360381019061046a919061315a565b6123f2565b60405161047e93929190613f4f565b60405180910390f35b6104a1600480360381019061049c919061315a565b61252f565b6040516104b19493929190613f8b565b60405180910390f35b6104d460048036038101906104cf9190613858565b6125e1565b6040516104e696959493929190613fef565b60405180910390f35b6105096004803603810190610504919061315a565b6126c5565b6040516105199493929190613f8b565b60405180910390f35b61053c600480360381019061053791906132c1565b612777565b005b61055860048036038101906105539190614055565b61294b565b60405161056591906140cb565b60405180910390f35b6105886004803603810190610583919061315a565b6129a3565b6040516105989493929190614138565b60405180910390f35b6105bb60048036038101906105b69190614190565b612c0e565b005b6105c5612d01565b6040516105d2919061333c565b60405180910390f35b6105f560048036038101906105f0919061315a565b612d06565b60405161060493929190613f4f565b60405180910390f35b6106276004803603810190610622919061315a565b612e42565b005b610631612fb6565b60405161063e919061333c565b60405180910390f35b610661600480360381019061065c919061315a565b612fbc565b60405161066e919061333c565b60405180910390f35b600154811115801561068857505f81115b6106c7576040517f08c379a00000000000000000000000000000000000000000000000000000000081526004016106be906142d3565b60405180910390fd5b60085f8281526020019081526020015f205f8082015f9055600182015f6106ee9190612fdc565b600282015f9055600382015f90555050807f6cfb81c439b427c92810494d6fb954e0d5f6d5b31d80416405bc08b284a8d23960405160405180910390a250565b600354811115801561073f57505f81115b61077e576040517f08c379a00000000000000000000000000000000000000000000000000000000081526004016107759061433b565b60405180910390fd5b600a5f8281526020019081526020015f205f8082015f9055600182015f6107a59190612fdc565b600282015f6107b49190612fdc565b600382015f8082015f6107c79190612fdc565b600182015f6107d69190612fdc565b600282015f905550505050807f659ad8d8d936972f64b8c76df1f0805c7194c3ada1c7e1e02d2212a294744b6860405160405180910390a25f5b6005805490508110156108cb57816005828154811061083257610831614359565b5b905f5260205f200154036108b8576005600160058054905061085491906143b3565b8154811061086557610864614359565b5b905f5260205f2001546005828154811061088257610881614359565b5b905f5260205f20018190555060058054806108a05761089f6143e6565b5b600190038181905f5260205f20015f905590556108cb565b80806108c390614413565b915050610810565b5050565b5f808154809291906108e090614413565b919050555060405180608001604052805f5481526020018481526020018381526020018281525060065f805481526020019081526020015f205f820151815f015560208201518160010190816109369190614654565b50604082015181600201556060820151816003015590505060045f54908060018154018082558091505060019003905f5260205f20015f90919091909150555f547f4fc9d5acc453e78e01b205af5788a1c62f195c4b5cdc8eb8f1c670863b7e736a60405160405180910390a2505050565b60035481565b60025481565b5f5484111580156109c457505f84115b610a03576040517f08c379a00000000000000000000000000000000000000000000000000000000081526004016109fa9061476d565b60405180910390fd5b5f60065f8681526020019081526020015f20905083816001019081610a289190614654565b50828160020181905550818160030181905550847feca6714fcf568fb34cf9db4a414cb0cc48e93c5d4e1ba0582a46ea3704cf24d560405160405180910390a25050505050565b6001548411158015610a8057505f84115b610abf576040517f08c379a0000000000000000000000000000000000000000000000000000000008152600401610ab6906142d3565b60405180910390fd5b5f60085f8681526020019081526020015f20905083816001019081610ae49190614654565b50828160020181905550818160030181905550847fdc16211c01e83339507d9d54214d47194290eee1aec7c4f3867ba3f86b42efa360405160405180910390a25050505050565b5f855111610b6e576040517f08c379a0000000000000000000000000000000000000000000000000000000008152600401610b65906147d5565b60405180910390fd5b5f845111610bb1576040517f08c379a0000000000000000000000000000000000000000000000000000000008152600401610ba89061483d565b60405180910390fd5b5f835111610bf4576040517f08c379a0000000000000000000000000000000000000000000000000000000008152600401610beb906148a5565b60405180910390fd5b5f825111610c37576040517f08c379a0000000000000000000000000000000000000000000000000000000008152600401610c2e9061490d565b60405180910390fd5b5f8103610c79576040517f08c379a0000000000000000000000000000000000000000000000000000000008152600401610c709061499b565b60405180910390fd5b60035f815480929190610c8b90614413565b919050555060405180608001604052806003548152602001868152602001858152602001604051806060016040528086815260200185815260200184815250815250600a5f60035481526020019081526020015f205f820151815f01556020820151816001019081610cfd9190614654565b506040820151816002019081610d139190614654565b506060820151816003015f820151815f019081610d309190614654565b506020820151816001019081610d469190614654565b506040820151816002015550509050506005600354908060018154018082558091505060019003905f5260205f20015f90919091909150556003547f061189d1338f04d65bc2d4338b794ee9b61e9344c3758f31ebf3b1d810437eee60405160405180910390a25050505050565b6009602052805f5260405f205f91509050805f018054610dd390614487565b80601f0160208091040260200160405190810160405280929190818152602001828054610dff90614487565b8015610e4a5780601f10610e2157610100808354040283529160200191610e4a565b820191905f5260205f20905b815481529060010190602001808311610e2d57829003601f168201915b505050505090806001018054610e5f90614487565b80601f0160208091040260200160405190810160405280929190818152602001828054610e8b90614487565b8015610ed65780601f10610ead57610100808354040283529160200191610ed6565b820191905f5260205f20905b815481529060010190602001808311610eb957829003601f168201915b5050505050908060020154905083565b60605f60075f8473ffffffffffffffffffffffffffffffffffffffff1673ffffffffffffffffffffffffffffffffffffffff1681526020019081526020015f2090505f818054905067ffffffffffffffff811115610f4757610f4661319d565b5b604051908082528060200260200182016040528015610f755781602001602082028036833780820191505090505b5090505f5b8280549050811015610fda57828181548110610f9957610f98614359565b5b905f5260205f2090600802015f0154828281518110610fbb57610fba614359565b5b6020026020010181815250508080610fd290614413565b915050610f7a565b508092505050919050565b60605f60015467ffffffffffffffff8111156110045761100361319d565b5b60405190808252806020026020018201604052801561103d57816020015b61102a613019565b8152602001906001900390816110225790505b5090505f600190505b60015481116111555760085f8281526020019081526020015f206040518060800160405290815f820154815260200160018201805461108490614487565b80601f01602080910402602001604051908101604052809291908181526020018280546110b090614487565b80156110fb5780601f106110d2576101008083540402835291602001916110fb565b820191905f5260205f20905b8154815290600101906020018083116110de57829003601f168201915b50505050508152602001600282015481526020016003820154815250508260018361112691906143b3565b8151811061113757611136614359565b5b6020026020010181905250808061114d90614413565b915050611046565b508091505090565b5f805f60605f6060805f60075f8b73ffffffffffffffffffffffffffffffffffffffff1673ffffffffffffffffffffffffffffffffffffffff1681526020019081526020015f2090505f5b818054905081101561137057898282815481106111c8576111c7614359565b5b905f5260205f2090600802015f01540361135d575f8282815481106111f0576111ef614359565b5b905f5260205f2090600802019050805f015481600101548260020154836003018460040154856005018660060183805461122990614487565b80601f016020809104026020016040519081016040528092919081815260200182805461125590614487565b80156112a05780601f10611277576101008083540402835291602001916112a0565b820191905f5260205f20905b81548152906001019060200180831161128357829003601f168201915b50505050509350818054806020026020016040519081016040528092919081815260200182805480156112f057602002820191905f5260205f20905b8154815260200190600101908083116112dc575b505050505091508080548060200260200160405190810160405280929190818152602001828054801561134057602002820191905f5260205f20905b81548152602001906001019080831161132c575b5050505050905099509950995099509950995099505050506113ac565b808061136890614413565b9150506111a8565b506040517f08c379a00000000000000000000000000000000000000000000000000000000081526004016113a390614a03565b60405180910390fd5b92959891949750929550565b60605f805467ffffffffffffffff8111156113d6576113d561319d565b5b60405190808252806020026020018201604052801561140f57816020015b6113fc61303e565b8152602001906001900390816113f45790505b5090505f600190505b5f5481116115265760065f8281526020019081526020015f206040518060800160405290815f820154815260200160018201805461145590614487565b80601f016020809104026020016040519081016040528092919081815260200182805461148190614487565b80156114cc5780601f106114a3576101008083540402835291602001916114cc565b820191905f5260205f20905b8154815290600101906020018083116114af57829003601f168201915b5050505050815260200160028201548152602001600382015481525050826001836114f791906143b3565b8151811061150857611507614359565b5b6020026020010181905250808061151e90614413565b915050611418565b508091505090565b8151835114611572576040517f08c379a000000000000000000000000000000000000000000000000000000000815260040161156990614a6b565b60405180910390fd5b5f805b8451811015611675575f5485828151811061159357611592614359565b5b6020026020010151111580156115c257505f8582815181106115b8576115b7614359565b5b6020026020010151115b611601576040517f08c379a00000000000000000000000000000000000000000000000000000000081526004016115f89061476d565b60405180910390fd5b83818151811061161457611613614359565b5b602002602001015160065f87848151811061163257611631614359565b5b602002602001015181526020019081526020015f20600201546116559190614a89565b826116609190614aca565b9150808061166d90614413565b915050611575565b5060025f81548092919061168890614413565b91905055505f60025490505f855167ffffffffffffffff8111156116af576116ae61319d565b5b6040519080825280602002602001820160405280156116dd5781602001602082028036833780820191505090505b5090505f855167ffffffffffffffff8111156116fc576116fb61319d565b5b60405190808252806020026020018201604052801561172a5781602001602082028036833780820191505090505b5090505f5b87518110156117bf5787818151811061174b5761174a614359565b5b602002602001015183828151811061176657611765614359565b5b60200260200101818152505086818151811061178557611784614359565b5b60200260200101518282815181106117a05761179f614359565b5b60200260200101818152505080806117b790614413565b91505061172f565b5060075f3373ffffffffffffffffffffffffffffffffffffffff1673ffffffffffffffffffffffffffffffffffffffff1681526020019081526020015f206040518061010001604052808581526020014281526020018681526020016040518060400160405280600681526020017f706c61636564000000000000000000000000000000000000000000000000000081525081526020018781526020018481526020018381526020015f1515815250908060018154018082558091505060019003905f5260205f2090600802015f909190919091505f820151815f0155602082015181600101556040820151816002015560608201518160030190816118c59190614654565b506080820151816004015560a08201518160050190805190602001906118ec929190613063565b5060c0820151816006019080519060200190611909929190613063565b5060e0820151816007015f6101000a81548160ff02191690831515021790555050503373ffffffffffffffffffffffffffffffffffffffff16837f5222ba5f86a58ad15e7771bd95a809f162ae1762ea7cd66e28a58217341334cc60405160405180910390a350505050505050565b611980613019565b60085f8381526020019081526020015f206040518060800160405290815f82015481526020016001820180546119b590614487565b80601f01602080910402602001604051908101604052809291908181526020018280546119e190614487565b8015611a2c5780601f10611a0357610100808354040283529160200191611a2c565b820191905f5260205f20905b815481529060010190602001808311611a0f57829003601f168201915b50505050508152602001600282015481526020016003820154815250509050919050565b60058181548110611a5f575f80fd5b905f5260205f20015f915090505481565b60605f60035467ffffffffffffffff811115611a8f57611a8e61319d565b5b604051908082528060200260200182016040528015611ac857816020015b611ab56130ae565b815260200190600190039081611aad5790505b5090505f600190505b6003548111611d9957600a5f8281526020019081526020015f206040518060800160405290815f8201548152602001600182018054611b0f90614487565b80601f0160208091040260200160405190810160405280929190818152602001828054611b3b90614487565b8015611b865780601f10611b5d57610100808354040283529160200191611b86565b820191905f5260205f20905b815481529060010190602001808311611b6957829003601f168201915b50505050508152602001600282018054611b9f90614487565b80601f0160208091040260200160405190810160405280929190818152602001828054611bcb90614487565b8015611c165780601f10611bed57610100808354040283529160200191611c16565b820191905f5260205f20905b815481529060010190602001808311611bf957829003601f168201915b50505050508152602001600382016040518060600160405290815f82018054611c3e90614487565b80601f0160208091040260200160405190810160405280929190818152602001828054611c6a90614487565b8015611cb55780601f10611c8c57610100808354040283529160200191611cb5565b820191905f5260205f20905b815481529060010190602001808311611c9857829003601f168201915b50505050508152602001600182018054611cce90614487565b80601f0160208091040260200160405190810160405280929190818152602001828054611cfa90614487565b8015611d455780601f10611d1c57610100808354040283529160200191611d45565b820191905f5260205f20905b815481529060010190602001808311611d2857829003601f168201915b505050505081526020016002820154815250508152505082600183611d6a91906143b3565b81518110611d7b57611d7a614359565b5b60200260200101819052508080611d9190614413565b915050611ad1565b508091505090565b5f60075f3373ffffffffffffffffffffffffffffffffffffffff1673ffffffffffffffffffffffffffffffffffffffff1681526020019081526020015f2090505f805b82805490508110156121cb5784838281548110611e0457611e03614359565b5b905f5260205f2090600802015f0154148015611f045750611f02838281548110611e3157611e30614359565b5b905f5260205f2090600802016003018054611e4b90614487565b80601f0160208091040260200160405190810160405280929190818152602001828054611e7790614487565b8015611ec25780601f10611e9957610100808354040283529160200191611ec2565b820191905f5260205f20905b815481529060010190602001808311611ea557829003601f168201915b50505050506040518060400160405280600881526020017f726563656976656400000000000000000000000000000000000000000000000081525061294b565b155b156121b8575f838281548110611f1d57611f1c614359565b5b905f5260205f20906008020160050180549050855114611f72576040517f08c379a0000000000000000000000000000000000000000000000000000000008152600401611f6990614b6d565b60405180910390fd5b5f5b85518110156120e757848381548110611f9057611f8f614359565b5b905f5260205f2090600802016006018181548110611fb157611fb0614359565b5b905f5260205f200154868281518110611fcd57611fcc614359565b5b602002602001015160400151111561201a576040517f08c379a000000000000000000000000000000000000000000000000000000000815260040161201190614bfb565b60405180910390fd5b85818151811061202d5761202c614359565b5b60200260200101516060015186828151811061204c5761204b614359565b5b6020026020010151604001516120629190614a89565b8261206d9190614aca565b915085818151811061208257612081614359565b5b60200260200101516040015160065f8884815181106120a4576120a3614359565b5b60200260200101515f015181526020019081526020015f206003015f8282546120cd9190614aca565b9250508190555080806120df90614413565b915050611f74565b5060018483815481106120fd576120fc614359565b5b905f5260205f2090600802016007015f6101000a81548160ff0219169083151502179055506040518060400160405280600881526020017f726563656976656400000000000000000000000000000000000000000000000081525084838154811061216b5761216a614359565b5b905f5260205f20906008020160030190816121869190614654565b508084838154811061219b5761219a614359565b5b905f5260205f2090600802016002018190555060019250506121cb565b80806121c390614413565b915050611de4565b508061220c576040517f08c379a000000000000000000000000000000000000000000000000000000000815260040161220390614c89565b60405180910390fd5b5f600190505b828054905081116123eb578483828154811061223157612230614359565b5b905f5260205f2090600802015f0154148015612330575061232f83828154811061225e5761225d614359565b5b905f5260205f209060080201600301805461227890614487565b80601f01602080910402602001604051908101604052809291908181526020018280546122a490614487565b80156122ef5780601f106122c6576101008083540402835291602001916122ef565b820191905f5260205f20905b8154815290600101906020018083116122d257829003601f168201915b50505050506040518060400160405280600881526020017f726563656976656400000000000000000000000000000000000000000000000081525061294b565b5b156123d8575f83828154811061234957612348614359565b5b905f5260205f2090600802016002015490505f60085f600181526020019081526020015f20905081816003015410156123b7576040517f08c379a00000000000000000000000000000000000000000000000000000000081526004016123ae90614cf1565b60405180910390fd5b81816003015f8282546123ca91906143b3565b9250508190555050506123eb565b80806123e390614413565b915050612212565b5050505050565b60605f80600154841115801561240757505f84115b612446576040517f08c379a000000000000000000000000000000000000000000000000000000000815260040161243d906142d3565b60405180910390fd5b5f60085f8681526020019081526020015f206040518060800160405290815f820154815260200160018201805461247c90614487565b80601f01602080910402602001604051908101604052809291908181526020018280546124a890614487565b80156124f35780601f106124ca576101008083540402835291602001916124f3565b820191905f5260205f20905b8154815290600101906020018083116124d657829003601f168201915b50505050508152602001600282015481526020016003820154815250509050806020015181604001518260400151935093509350509193909250565b6006602052805f5260405f205f91509050805f01549080600101805461255490614487565b80601f016020809104026020016040519081016040528092919081815260200182805461258090614487565b80156125cb5780601f106125a2576101008083540402835291602001916125cb565b820191905f5260205f20905b8154815290600101906020018083116125ae57829003601f168201915b5050505050908060020154908060030154905084565b6007602052815f5260405f2081815481106125fa575f80fd5b905f5260205f2090600802015f9150915050805f01549080600101549080600201549080600301805461262c90614487565b80601f016020809104026020016040519081016040528092919081815260200182805461265890614487565b80156126a35780601f1061267a576101008083540402835291602001916126a3565b820191905f5260205f20905b81548152906001019060200180831161268657829003601f168201915b505050505090806004015490806007015f9054906101000a900460ff16905086565b6008602052805f5260405f205f91509050805f0154908060010180546126ea90614487565b80601f016020809104026020016040519081016040528092919081815260200182805461271690614487565b80156127615780601f1061273857610100808354040283529160200191612761565b820191905f5260205f20905b81548152906001019060200180831161274457829003601f168201915b5050505050908060020154908060030154905084565b5f8351116127ba576040517f08c379a00000000000000000000000000000000000000000000000000000000081526004016127b1906148a5565b60405180910390fd5b5f82036127fc576040517f08c379a00000000000000000000000000000000000000000000000000000000081526004016127f39061499b565b60405180910390fd5b5f810361283e576040517f08c379a000000000000000000000000000000000000000000000000000000000815260040161283590614d59565b60405180910390fd5b5f60085f60015481526020019081526020015f205f015414612895576040517f08c379a000000000000000000000000000000000000000000000000000000000815260040161288c90614dc1565b60405180910390fd5b60015f8154809291906128a790614413565b9190505550604051806080016040528060015481526020018481526020018381526020018281525060085f60015481526020019081526020015f205f820151815f015560208201518160010190816128ff9190614654565b5060408201518160020155606082015181600301559050506001547febebffae43ff234e2b6a4e4937a33d8ea339f259ff0661dd9e98ae4a75e5185960405160405180910390a2505050565b5f8160405160200161295d9190614e19565b60405160208183030381529060405280519060200120836040516020016129849190614e19565b6040516020818303038152906040528051906020012014905092915050565b600a602052805f5260405f205f91509050805f0154908060010180546129c890614487565b80601f01602080910402602001604051908101604052809291908181526020018280546129f490614487565b8015612a3f5780601f10612a1657610100808354040283529160200191612a3f565b820191905f5260205f20905b815481529060010190602001808311612a2257829003601f168201915b505050505090806002018054612a5490614487565b80601f0160208091040260200160405190810160405280929190818152602001828054612a8090614487565b8015612acb5780601f10612aa257610100808354040283529160200191612acb565b820191905f5260205f20905b815481529060010190602001808311612aae57829003601f168201915b505050505090806003016040518060600160405290815f82018054612aef90614487565b80601f0160208091040260200160405190810160405280929190818152602001828054612b1b90614487565b8015612b665780601f10612b3d57610100808354040283529160200191612b66565b820191905f5260205f20905b815481529060010190602001808311612b4957829003601f168201915b50505050508152602001600182018054612b7f90614487565b80601f0160208091040260200160405190810160405280929190818152602001828054612bab90614487565b8015612bf65780601f10612bcd57610100808354040283529160200191612bf6565b820191905f5260205f20905b815481529060010190602001808311612bd957829003601f168201915b50505050508152602001600282015481525050905084565b6003548611158015612c1f57505f86115b612c5e576040517f08c379a0000000000000000000000000000000000000000000000000000000008152600401612c559061433b565b60405180910390fd5b5f600a5f8881526020019081526020015f20905085816001019081612c839190614654565b5084816002019081612c959190614654565b5083816003015f019081612ca99190614654565b5082816003016001019081612cbe9190614654565b50818160030160020181905550867f16bda03ec6eeafb585ceed93192d7c3f36e21937df4a24a2b17126736f7cab4060405160405180910390a250505050505050565b5f5481565b60605f805f548411158015612d1a57505f84115b612d59576040517f08c379a0000000000000000000000000000000000000000000000000000000008152600401612d509061476d565b60405180910390fd5b5f60065f8681526020019081526020015f206040518060800160405290815f8201548152602001600182018054612d8f90614487565b80601f0160208091040260200160405190810160405280929190818152602001828054612dbb90614487565b8015612e065780601f10612ddd57610100808354040283529160200191612e06565b820191905f5260205f20905b815481529060010190602001808311612de957829003601f168201915b50505050508152602001600282015481526020016003820154815250509050806020015181604001518260600151935093509350509193909250565b5f548111158015612e5257505f81115b612e91576040517f08c379a0000000000000000000000000000000000000000000000000000000008152600401612e889061476d565b60405180910390fd5b60065f8281526020019081526020015f205f8082015f9055600182015f612eb89190612fdc565b600282015f9055600382015f90555050807fc341cf326465fe622f86c468249e8c0cb03ed23ba376a6a34863a1374ac7d76960405160405180910390a25f5b600480549050811015612fb2578160048281548110612f1957612f18614359565b5b905f5260205f20015403612f9f5760046001600480549050612f3b91906143b3565b81548110612f4c57612f4b614359565b5b905f5260205f20015460048281548110612f6957612f68614359565b5b905f5260205f2001819055506004805480612f8757612f866143e6565b5b600190038181905f5260205f20015f90559055612fb2565b8080612faa90614413565b915050612ef7565b5050565b60015481565b60048181548110612fcb575f80fd5b905f5260205f20015f915090505481565b508054612fe890614487565b5f825580601f10612ff95750613016565b601f0160209004905f5260205f209081019061301591906130db565b5b50565b60405180608001604052805f8152602001606081526020015f81526020015f81525090565b60405180608001604052805f8152602001606081526020015f81526020015f81525090565b828054828255905f5260205f2090810192821561309d579160200282015b8281111561309c578251825591602001919060010190613081565b5b5090506130aa91906130db565b5090565b60405180608001604052805f815260200160608152602001606081526020016130d56130f6565b81525090565b5b808211156130f2575f815f9055506001016130dc565b5090565b604051806060016040528060608152602001606081526020015f81525090565b5f604051905090565b5f80fd5b5f80fd5b5f819050919050565b61313981613127565b8114613143575f80fd5b50565b5f8135905061315481613130565b92915050565b5f6020828403121561316f5761316e61311f565b5b5f61317c84828501613146565b91505092915050565b5f80fd5b5f80fd5b5f601f19601f8301169050919050565b7f4e487b71000000000000000000000000000000000000000000000000000000005f52604160045260245ffd5b6131d38261318d565b810181811067ffffffffffffffff821117156131f2576131f161319d565b5b80604052505050565b5f613204613116565b905061321082826131ca565b919050565b5f67ffffffffffffffff82111561322f5761322e61319d565b5b6132388261318d565b9050602081019050919050565b828183375f83830152505050565b5f61326561326084613215565b6131fb565b90508281526020810184848401111561328157613280613189565b5b61328c848285613245565b509392505050565b5f82601f8301126132a8576132a7613185565b5b81356132b8848260208601613253565b91505092915050565b5f805f606084860312156132d8576132d761311f565b5b5f84013567ffffffffffffffff8111156132f5576132f4613123565b5b61330186828701613294565b935050602061331286828701613146565b925050604061332386828701613146565b9150509250925092565b61333681613127565b82525050565b5f60208201905061334f5f83018461332d565b92915050565b5f805f806080858703121561336d5761336c61311f565b5b5f61337a87828801613146565b945050602085013567ffffffffffffffff81111561339b5761339a613123565b5b6133a787828801613294565b93505060406133b887828801613146565b92505060606133c987828801613146565b91505092959194509250565b5f805f805f60a086880312156133ee576133ed61311f565b5b5f86013567ffffffffffffffff81111561340b5761340a613123565b5b61341788828901613294565b955050602086013567ffffffffffffffff81111561343857613437613123565b5b61344488828901613294565b945050604086013567ffffffffffffffff81111561346557613464613123565b5b61347188828901613294565b935050606086013567ffffffffffffffff81111561349257613491613123565b5b61349e88828901613294565b92505060806134af88828901613146565b9150509295509295909350565b5f81519050919050565b5f82825260208201905092915050565b5f5b838110156134f35780820151818401526020810190506134d8565b5f8484015250505050565b5f613508826134bc565b61351281856134c6565b93506135228185602086016134d6565b61352b8161318d565b840191505092915050565b5f6060820190508181035f83015261354e81866134fe565b9050818103602083015261356281856134fe565b9050613571604083018461332d565b949350505050565b5f73ffffffffffffffffffffffffffffffffffffffff82169050919050565b5f6135a282613579565b9050919050565b6135b281613598565b81146135bc575f80fd5b50565b5f813590506135cd816135a9565b92915050565b5f602082840312156135e8576135e761311f565b5b5f6135f5848285016135bf565b91505092915050565b5f81519050919050565b5f82825260208201905092915050565b5f819050602082019050919050565b61363081613127565b82525050565b5f6136418383613627565b60208301905092915050565b5f602082019050919050565b5f613663826135fe565b61366d8185613608565b935061367883613618565b805f5b838110156136a857815161368f8882613636565b975061369a8361364d565b92505060018101905061367b565b5085935050505092915050565b5f6020820190508181035f8301526136cd8184613659565b905092915050565b5f81519050919050565b5f82825260208201905092915050565b5f819050602082019050919050565b5f82825260208201905092915050565b5f613718826134bc565b61372281856136fe565b93506137328185602086016134d6565b61373b8161318d565b840191505092915050565b5f608083015f83015161375b5f860182613627565b5060208301518482036020860152613773828261370e565b91505060408301516137886040860182613627565b50606083015161379b6060860182613627565b508091505092915050565b5f6137b18383613746565b905092915050565b5f602082019050919050565b5f6137cf826136d5565b6137d981856136df565b9350836020820285016137eb856136ef565b805f5b85811015613826578484038952815161380785826137a6565b9450613812836137b9565b925060208a019950506001810190506137ee565b50829750879550505050505092915050565b5f6020820190508181035f83015261385081846137c5565b905092915050565b5f806040838503121561386e5761386d61311f565b5b5f61387b858286016135bf565b925050602061388c85828601613146565b9150509250929050565b5f60e0820190506138a95f83018a61332d565b6138b6602083018961332d565b6138c3604083018861332d565b81810360608301526138d581876134fe565b90506138e4608083018661332d565b81810360a08301526138f68185613659565b905081810360c083015261390a8184613659565b905098975050505050505050565b5f81519050919050565b5f82825260208201905092915050565b5f819050602082019050919050565b5f608083015f8301516139565f860182613627565b506020830151848203602086015261396e828261370e565b91505060408301516139836040860182613627565b5060608301516139966060860182613627565b508091505092915050565b5f6139ac8383613941565b905092915050565b5f602082019050919050565b5f6139ca82613918565b6139d48185613922565b9350836020820285016139e685613932565b805f5b85811015613a215784840389528151613a0285826139a1565b9450613a0d836139b4565b925060208a019950506001810190506139e9565b50829750879550505050505092915050565b5f6020820190508181035f830152613a4b81846139c0565b905092915050565b5f67ffffffffffffffff821115613a6d57613a6c61319d565b5b602082029050602081019050919050565b5f80fd5b5f613a94613a8f84613a53565b6131fb565b90508083825260208201905060208402830185811115613ab757613ab6613a7e565b5b835b81811015613ae05780613acc8882613146565b845260208401935050602081019050613ab9565b5050509392505050565b5f82601f830112613afe57613afd613185565b5b8135613b0e848260208601613a82565b91505092915050565b5f805f60608486031215613b2e57613b2d61311f565b5b5f84013567ffffffffffffffff811115613b4b57613b4a613123565b5b613b5786828701613aea565b935050602084013567ffffffffffffffff811115613b7857613b77613123565b5b613b8486828701613aea565b9250506040613b9586828701613146565b9150509250925092565b5f608083015f830151613bb45f860182613627565b5060208301518482036020860152613bcc828261370e565b9150506040830151613be16040860182613627565b506060830151613bf46060860182613627565b508091505092915050565b5f6020820190508181035f830152613c178184613b9f565b905092915050565b5f81519050919050565b5f82825260208201905092915050565b5f819050602082019050919050565b5f606083015f8301518482035f860152613c62828261370e565b91505060208301518482036020860152613c7c828261370e565b9150506040830151613c916040860182613627565b508091505092915050565b5f608083015f830151613cb15f860182613627565b5060208301518482036020860152613cc9828261370e565b91505060408301518482036040860152613ce3828261370e565b91505060608301518482036060860152613cfd8282613c48565b9150508091505092915050565b5f613d158383613c9c565b905092915050565b5f602082019050919050565b5f613d3382613c1f565b613d3d8185613c29565b935083602082028501613d4f85613c39565b805f5b85811015613d8a5784840389528151613d6b8582613d0a565b9450613d7683613d1d565b925060208a01995050600181019050613d52565b50829750879550505050505092915050565b5f6020820190508181035f830152613db48184613d29565b905092915050565b5f67ffffffffffffffff821115613dd657613dd561319d565b5b602082029050602081019050919050565b5f80fd5b5f60808284031215613e0057613dff613de7565b5b613e0a60806131fb565b90505f613e1984828501613146565b5f830152506020613e2c84828501613146565b6020830152506040613e4084828501613146565b6040830152506060613e5484828501613146565b60608301525092915050565b5f613e72613e6d84613dbc565b6131fb565b90508083825260208201905060808402830185811115613e9557613e94613a7e565b5b835b81811015613ebe5780613eaa8882613deb565b845260208401935050608081019050613e97565b5050509392505050565b5f82601f830112613edc57613edb613185565b5b8135613eec848260208601613e60565b91505092915050565b5f8060408385031215613f0b57613f0a61311f565b5b5f613f1885828601613146565b925050602083013567ffffffffffffffff811115613f3957613f38613123565b5b613f4585828601613ec8565b9150509250929050565b5f6060820190508181035f830152613f6781866134fe565b9050613f76602083018561332d565b613f83604083018461332d565b949350505050565b5f608082019050613f9e5f83018761332d565b8181036020830152613fb081866134fe565b9050613fbf604083018561332d565b613fcc606083018461332d565b95945050505050565b5f8115159050919050565b613fe981613fd5565b82525050565b5f60c0820190506140025f83018961332d565b61400f602083018861332d565b61401c604083018761332d565b818103606083015261402e81866134fe565b905061403d608083018561332d565b61404a60a0830184613fe0565b979650505050505050565b5f806040838503121561406b5761406a61311f565b5b5f83013567ffffffffffffffff81111561408857614087613123565b5b61409485828601613294565b925050602083013567ffffffffffffffff8111156140b5576140b4613123565b5b6140c185828601613294565b9150509250929050565b5f6020820190506140de5f830184613fe0565b92915050565b5f606083015f8301518482035f8601526140fe828261370e565b91505060208301518482036020860152614118828261370e565b915050604083015161412d6040860182613627565b508091505092915050565b5f60808201905061414b5f83018761332d565b818103602083015261415d81866134fe565b9050818103604083015261417181856134fe565b9050818103606083015261418581846140e4565b905095945050505050565b5f805f805f8060c087890312156141aa576141a961311f565b5b5f6141b789828a01613146565b965050602087013567ffffffffffffffff8111156141d8576141d7613123565b5b6141e489828a01613294565b955050604087013567ffffffffffffffff81111561420557614204613123565b5b61421189828a01613294565b945050606087013567ffffffffffffffff81111561423257614231613123565b5b61423e89828a01613294565b935050608087013567ffffffffffffffff81111561425f5761425e613123565b5b61426b89828a01613294565b92505060a061427c89828a01613146565b9150509295509295509295565b7f496e76616c69642062616e6b20494400000000000000000000000000000000005f82015250565b5f6142bd600f836134c6565b91506142c882614289565b602082019050919050565b5f6020820190508181035f8301526142ea816142b1565b9050919050565b7f496e76616c696420737570706c696572204944000000000000000000000000005f82015250565b5f6143256013836134c6565b9150614330826142f1565b602082019050919050565b5f6020820190508181035f83015261435281614319565b9050919050565b7f4e487b71000000000000000000000000000000000000000000000000000000005f52603260045260245ffd5b7f4e487b71000000000000000000000000000000000000000000000000000000005f52601160045260245ffd5b5f6143bd82613127565b91506143c883613127565b92508282039050818111156143e0576143df614386565b5b92915050565b7f4e487b71000000000000000000000000000000000000000000000000000000005f52603160045260245ffd5b5f61441d82613127565b91507fffffffffffffffffffffffffffffffffffffffffffffffffffffffffffffffff820361444f5761444e614386565b5b600182019050919050565b7f4e487b71000000000000000000000000000000000000000000000000000000005f52602260045260245ffd5b5f600282049050600182168061449e57607f821691505b6020821081036144b1576144b061445a565b5b50919050565b5f819050815f5260205f209050919050565b5f6020601f8301049050919050565b5f82821b905092915050565b5f600883026145137fffffffffffffffffffffffffffffffffffffffffffffffffffffffffffffffff826144d8565b61451d86836144d8565b95508019841693508086168417925050509392505050565b5f819050919050565b5f61455861455361454e84613127565b614535565b613127565b9050919050565b5f819050919050565b6145718361453e565b61458561457d8261455f565b8484546144e4565b825550505050565b5f90565b61459961458d565b6145a4818484614568565b505050565b5b818110156145c7576145bc5f82614591565b6001810190506145aa565b5050565b601f82111561460c576145dd816144b7565b6145e6846144c9565b810160208510156145f5578190505b614609614601856144c9565b8301826145a9565b50505b505050565b5f82821c905092915050565b5f61462c5f1984600802614611565b1980831691505092915050565b5f614644838361461d565b9150826002028217905092915050565b61465d826134bc565b67ffffffffffffffff8111156146765761467561319d565b5b6146808254614487565b61468b8282856145cb565b5f60209050601f8311600181146146bc575f84156146aa578287015190505b6146b48582614639565b86555061471b565b601f1984166146ca866144b7565b5f5b828110156146f1578489015182556001820191506020850194506020810190506146cc565b8683101561470e578489015161470a601f89168261461d565b8355505b6001600288020188555050505b505050505050565b7f496e76616c69642070726f6475637420494400000000000000000000000000005f82015250565b5f6147576012836134c6565b915061476282614723565b602082019050919050565b5f6020820190508181035f8301526147848161474b565b9050919050565b7f537570706c696572206e616d652063616e6e6f7420626520656d7074790000005f82015250565b5f6147bf601d836134c6565b91506147ca8261478b565b602082019050919050565b5f6020820190508181035f8301526147ec816147b3565b9050919050565b7f537570706c696572206e756d6265722063616e6e6f7420626520656d707479005f82015250565b5f614827601f836134c6565b9150614832826147f3565b602082019050919050565b5f6020820190508181035f8301526148548161481b565b9050919050565b7f42616e6b206e616d652063616e6e6f7420626520656d707479000000000000005f82015250565b5f61488f6019836134c6565b915061489a8261485b565b602082019050919050565b5f6020820190508181035f8301526148bc81614883565b9050919050565b7f536f727420636f64652063616e6e6f7420626520656d707479000000000000005f82015250565b5f6148f76019836134c6565b9150614902826148c3565b602082019050919050565b5f6020820190508181035f830152614924816148eb565b9050919050565b7f42616e6b206163636f756e74206e756d6265722063616e6e6f74206265207a655f8201527f726f000000000000000000000000000000000000000000000000000000000000602082015250565b5f6149856022836134c6565b91506149908261492b565b604082019050919050565b5f6020820190508181035f8301526149b281614979565b9050919050565b7f4f72646572206e6f7420666f756e6400000000000000000000000000000000005f82015250565b5f6149ed600f836134c6565b91506149f8826149b9565b602082019050919050565b5f6020820190508181035f830152614a1a816149e1565b9050919050565b7f4c656e677468206d69736d6174636800000000000000000000000000000000005f82015250565b5f614a55600f836134c6565b9150614a6082614a21565b602082019050919050565b5f6020820190508181035f830152614a8281614a49565b9050919050565b5f614a9382613127565b9150614a9e83613127565b9250828202614aac81613127565b91508282048414831517614ac357614ac2614386565b5b5092915050565b5f614ad482613127565b9150614adf83613127565b9250828201905080821115614af757614af6614386565b5b92915050565b7f52656365697665642070726f6475637420636f756e7420646f6573206e6f74205f8201527f6d61746368206f72646572000000000000000000000000000000000000000000602082015250565b5f614b57602b836134c6565b9150614b6282614afd565b604082019050919050565b5f6020820190508181035f830152614b8481614b4b565b9050919050565b7f5265636569766564207175616e746974792065786365656473206f72646572655f8201527f64207175616e7469747900000000000000000000000000000000000000000000602082015250565b5f614be5602a836134c6565b9150614bf082614b8b565b604082019050919050565b5f6020820190508181035f830152614c1281614bd9565b9050919050565b7f4f72646572206e6f7420666f756e64206f7220616c72656164792072656365695f8201527f7665640000000000000000000000000000000000000000000000000000000000602082015250565b5f614c736023836134c6565b9150614c7e82614c19565b604082019050919050565b5f6020820190508181035f830152614ca081614c67565b9050919050565b7f496e73756666696369656e742062616c616e63650000000000000000000000005f82015250565b5f614cdb6014836134c6565b9150614ce682614ca7565b602082019050919050565b5f6020820190508181035f830152614d0881614ccf565b9050919050565b7f4261636b757020616d6f756e742063616e6e6f74206265207a65726f000000005f82015250565b5f614d43601c836134c6565b9150614d4e82614d0f565b602082019050919050565b5f6020820190508181035f830152614d7081614d37565b9050919050565b7f42616e6b2064657461696c7320616c72656164792061646465640000000000005f82015250565b5f614dab601a836134c6565b9150614db682614d77565b602082019050919050565b5f6020820190508181035f830152614dd881614d9f565b9050919050565b5f81905092915050565b5f614df3826134bc565b614dfd8185614ddf565b9350614e0d8185602086016134d6565b80840191505092915050565b5f614e248284614de9565b91508190509291505056fea2646970667358221220a2425c60217d3dd9b75687969de984a08999e71a0eeacaf32a9ba882783566d264736f6c63430008150033",
  "immutableReferences": {},
  "source": "// SPDX-License-Identifier: GPL-3.0\r\n\r\npragma solidity >=0.7.0 <0.9.0;\r\n\r\ncontract InventoryPayment {\r\n    struct Product {\r\n        uint256 productId;\r\n        string productName;\r\n        uint256 productPrice;\r\n        uint256 productQty;\r\n    }\r\n\r\n    struct Order {\r\n        uint256 orderNo;\r\n        uint256 orderDate;\r\n        uint256 orderTotalAmount;\r\n        string orderStatus;\r\n        uint256 supplierId;\r\n        uint256[] productIds;\r\n        uint256[] productQtys;\r\n        bool isReceived; // New field to track order receipt\r\n    }\r\n\r\n    struct OrderDetail {\r\n        uint256 productId;\r\n        uint256 productQtyOrder;\r\n        uint256 productQtyReceived;\r\n        uint256 productPrice;\r\n    }\r\n\r\n    struct Supplier {\r\n        uint256 supplierId;\r\n        string supplierName;\r\n        string supplierNumber;\r\n        SupplierBank supplierBank;\r\n    }\r\n\r\n    struct SupplierBank {\r\n        string bankName;\r\n        string sortCode;\r\n        uint256 accountNumber;\r\n    }\r\n\r\n    struct Bank {\r\n        uint256 id;\r\n        string bankName;\r\n        uint256 bankAccountNumber;\r\n        uint256 backupAmount;\r\n    }\r\n\r\n    uint256 public productCount;\r\n    uint256 public bankCount;\r\n    uint256 public orderCount;\r\n    uint256 public supplierCount;\r\n    uint256[] public activeProductIds;\r\n    uint256[] public activeSupplierIds;\r\n\r\n    mapping(uint256 => Product) public products;\r\n    mapping(address => Order[]) public userOrders;\r\n    mapping(uint256 => Bank) public userBankDetails;\r\n    mapping(uint256 => SupplierBank) public supplierBankDetails;\r\n    mapping(uint256 => Supplier) public suppliers;\r\n    \r\n    event OrderPlaced(uint256 indexed orderNo, address indexed user);\r\n\r\n    event BankAdded(uint256 indexed bankId);\r\n    event BankUpdated(uint256 indexed bankId);\r\n    event BankDeleted(uint256 indexed bankId);\r\n\r\n    event ProductAdded(uint256 indexed productId);\r\n    event ProductUpdated(uint256 indexed productId);\r\n    event ProductDeleted(uint256 indexed productId);\r\n    event PaymentSent(\r\n        uint256 indexed orderNo,\r\n        address indexed supplier,\r\n        uint256 amount\r\n    );\r\n\r\n    event SupplierAdded(uint256 indexed supId);\r\n    event SupplierUpdated(uint256 indexed supId);\r\n    event SupplierDeleted(uint256 indexed supId);\r\n\r\n    // Function to add supplier details\r\n    function addSupplier(\r\n        string memory _supplierName,\r\n        string memory _supplierNumber,\r\n        string memory _bankName,\r\n        string memory _sortCode,\r\n        uint256 _bankAccountNumber\r\n    ) external {\r\n        require(\r\n            bytes(_supplierName).length > 0,\r\n            \"Supplier name cannot be empty\"\r\n        );\r\n        require(\r\n            bytes(_supplierNumber).length > 0,\r\n            \"Supplier number cannot be empty\"\r\n        );\r\n        require(bytes(_bankName).length > 0, \"Bank name cannot be empty\");\r\n        require(bytes(_sortCode).length > 0, \"Sort code cannot be empty\");\r\n        require(_bankAccountNumber != 0, \"Bank account number cannot be zero\");\r\n\r\n        supplierCount++;\r\n        suppliers[supplierCount] = Supplier(\r\n            supplierCount,\r\n            _supplierName,\r\n            _supplierNumber,\r\n            SupplierBank(_bankName, _sortCode, _bankAccountNumber)\r\n        );\r\n        activeSupplierIds.push(supplierCount);\r\n\r\n        emit SupplierAdded(supplierCount);\r\n    }\r\n\r\n    // Function to get all supplier details\r\n    function getAllSuppliersDetails()\r\n        external\r\n        view\r\n        returns (Supplier[] memory)\r\n    {\r\n        Supplier[] memory allSuppliers = new Supplier[](supplierCount);\r\n        for (uint256 i = 1; i <= supplierCount; i++) {\r\n            allSuppliers[i - 1] = suppliers[i];\r\n        }\r\n        return allSuppliers;\r\n    }\r\n\r\n    // Function to update supplier details\r\n    function updateSupplier(\r\n        uint256 _supplierId,\r\n        string memory _newName,\r\n        string memory _newNumber,\r\n        string memory _newBankName,\r\n        string memory _newSortCode,\r\n        uint256 _newAccountNumber\r\n    ) external {\r\n        require(\r\n            _supplierId <= supplierCount && _supplierId > 0,\r\n            \"Invalid supplier ID\"\r\n        );\r\n        Supplier storage supplier = suppliers[_supplierId];\r\n        supplier.supplierName = _newName;\r\n        supplier.supplierNumber = _newNumber;\r\n        supplier.supplierBank.bankName = _newBankName;\r\n        supplier.supplierBank.sortCode = _newSortCode;\r\n        supplier.supplierBank.accountNumber = _newAccountNumber;\r\n        emit SupplierUpdated(_supplierId);\r\n    }\r\n\r\n    // Function to delete a supplier\r\n    function deleteSupplier(uint256 _supplierId) external {\r\n        require(\r\n            _supplierId <= supplierCount && _supplierId > 0,\r\n            \"Invalid supplier ID\"\r\n        );\r\n        delete suppliers[_supplierId];\r\n        emit SupplierDeleted(_supplierId);\r\n\r\n        // Remove the supplier ID from activeSupplierIds array\r\n        for (uint256 i = 0; i < activeSupplierIds.length; i++) {\r\n            if (activeSupplierIds[i] == _supplierId) {\r\n                activeSupplierIds[i] = activeSupplierIds[\r\n                    activeSupplierIds.length - 1\r\n                ];\r\n                activeSupplierIds.pop();\r\n                break;\r\n            }\r\n        }\r\n    }\r\n\r\n    // Function to get user bank details\r\n    function getUserBankDetails(\r\n        uint256 _user\r\n    ) external view returns (Bank memory) {\r\n        return userBankDetails[_user];\r\n    }\r\n\r\n    // Function to add user bank details\r\n    function addUserBankDetails(\r\n        string memory _bankName,\r\n        uint256 _bankAccountNumber,\r\n        uint256 _backupAmount\r\n    ) external {\r\n        require(bytes(_bankName).length > 0, \"Bank name cannot be empty\");\r\n        require(_bankAccountNumber != 0, \"Bank account number cannot be zero\");\r\n        require(_backupAmount != 0, \"Backup amount cannot be zero\");\r\n        require(\r\n            userBankDetails[bankCount].id == 0,\r\n            \"Bank details already added\"\r\n        );\r\n\r\n        bankCount++;\r\n        userBankDetails[bankCount] = Bank(\r\n            bankCount,\r\n            _bankName,\r\n            _bankAccountNumber,\r\n            _backupAmount\r\n        );\r\n        emit BankAdded(bankCount);\r\n    }\r\n\r\n    // Function to get user bank details\r\n    function getBankDetails() external view returns (Bank[] memory) {\r\n        Bank[] memory allBank = new Bank[](bankCount);\r\n        for (uint256 i = 1; i <= bankCount; i++) {\r\n            allBank[i - 1] = userBankDetails[i];\r\n        }\r\n        return allBank;\r\n    }\r\n\r\n    // Function to view details of a specific product\r\n    function viewBank(\r\n        uint256 _bankId\r\n    )\r\n        external\r\n        view\r\n        returns (string memory bankName, uint256 bankNumber, uint256 bankAmout)\r\n    {\r\n        require(_bankId <= bankCount && _bankId > 0, \"Invalid bank ID\");\r\n        Bank memory bank = userBankDetails[_bankId];\r\n        return (bank.bankName, bank.bankAccountNumber, bank.bankAccountNumber);\r\n    }\r\n\r\n    // Function to update details of a product\r\n    function updateBank(\r\n        uint256 _bankId,\r\n        string memory _newName,\r\n        uint256 _newAccountNumber,\r\n        uint256 _newAmount\r\n    ) external {\r\n        require(_bankId <= bankCount && _bankId > 0, \"Invalid bank ID\");\r\n        Bank storage bank = userBankDetails[_bankId];\r\n        bank.bankName = _newName;\r\n        bank.bankAccountNumber = _newAccountNumber;\r\n        bank.backupAmount = _newAmount;\r\n        emit BankUpdated(_bankId);\r\n    }\r\n\r\n    // Function to delete a product\r\n    function deleteBank(uint256 _bankId) external {\r\n        require(_bankId <= bankCount && _bankId > 0, \"Invalid bank ID\");\r\n        delete userBankDetails[_bankId];\r\n        emit BankDeleted(_bankId);\r\n    }\r\n\r\n    // Function to add a new product\r\n    function addProduct(\r\n        string memory _productName,\r\n        uint256 _productPrice,\r\n        uint256 _productQty\r\n    ) external {\r\n        productCount++;\r\n        products[productCount] = Product(\r\n            productCount,\r\n            _productName,\r\n            _productPrice,\r\n            _productQty\r\n        );\r\n        activeProductIds.push(productCount);\r\n        emit ProductAdded(productCount);\r\n    }\r\n\r\n    // Function to view details of a specific product\r\n    function viewProduct(\r\n        uint256 _productId\r\n    )\r\n        external\r\n        view\r\n        returns (\r\n            string memory productName,\r\n            uint256 productPrice,\r\n            uint256 productQty\r\n        )\r\n    {\r\n        require(\r\n            _productId <= productCount && _productId > 0,\r\n            \"Invalid product ID\"\r\n        );\r\n        Product memory product = products[_productId];\r\n        return (product.productName, product.productPrice, product.productQty);\r\n    }\r\n\r\n    // Function to update details of a product\r\n    function updateProduct(\r\n        uint256 _productId,\r\n        string memory _newName,\r\n        uint256 _newPrice,\r\n        uint256 _newQty\r\n    ) external {\r\n        require(\r\n            _productId <= productCount && _productId > 0,\r\n            \"Invalid product ID\"\r\n        );\r\n        Product storage product = products[_productId];\r\n        product.productName = _newName;\r\n        product.productPrice = _newPrice;\r\n        product.productQty = _newQty;\r\n        emit ProductUpdated(_productId);\r\n    }\r\n\r\n    // Function to delete a product\r\n    function deleteProduct(uint256 _productId) external {\r\n        require(_productId <= productCount && _productId > 0, \"Invalid product ID\");\r\n        delete products[_productId];\r\n        emit ProductDeleted(_productId);\r\n\r\n        // Remove the product ID from activeProductIds array\r\n        for (uint256 i = 0; i < activeProductIds.length; i++) {\r\n            if (activeProductIds[i] == _productId) {\r\n                activeProductIds[i] = activeProductIds[\r\n                    activeProductIds.length - 1\r\n                ];\r\n                activeProductIds.pop();\r\n                break;\r\n            }\r\n        }\r\n    }\r\n\r\n    // Function to view all products\r\n    function viewAllProducts() external view returns (Product[] memory) {\r\n        Product[] memory allProducts = new Product[](productCount);\r\n        for (uint256 i = 1; i <= productCount; i++) {\r\n            allProducts[i - 1] = products[i];\r\n        }\r\n        return allProducts;\r\n    }\r\n\r\n    // Function to place an order\r\n    function placeOrder(\r\n        uint256[] memory _productIds,\r\n        uint256[] memory _productQtyOrder,\r\n        uint256 _supplierId\r\n    ) external {\r\n        require(\r\n            _productIds.length == _productQtyOrder.length,\r\n            \"Length mismatch\"\r\n        );\r\n\r\n        uint256 totalAmount = 0;\r\n        for (uint256 i = 0; i < _productIds.length; i++) {\r\n            require(\r\n                _productIds[i] <= productCount && _productIds[i] > 0,\r\n                \"Invalid product ID\"\r\n            );\r\n            totalAmount += products[_productIds[i]].productPrice * _productQtyOrder[i];\r\n        }\r\n\r\n        orderCount++;\r\n        uint256 orderNo = orderCount; // Use sequential order number\r\n        \r\n        uint256[] memory productIds = new uint256[](_productIds.length);\r\n        uint256[] memory productQtys = new uint256[](_productQtyOrder.length);\r\n\r\n        for (uint256 i = 0; i < _productIds.length; i++) {\r\n            productIds[i] = _productIds[i];\r\n            productQtys[i] = _productQtyOrder[i];\r\n        }\r\n        userOrders[msg.sender].push(Order(\r\n            orderNo,\r\n            block.timestamp,\r\n            totalAmount,\r\n            \"placed\",\r\n            _supplierId, // Placeholder for supplier ID, to be updated later\r\n            productIds,\r\n            productQtys,\r\n            false\r\n        ));\r\n\r\n        emit OrderPlaced(orderNo, msg.sender);\r\n    }\r\n\r\n    // Function to retrieve order numbers for a user\r\n    function getPlacedOrderNumbers(address _user) external view returns (uint256[] memory) {\r\n        Order[] storage orders = userOrders[_user];\r\n        uint256[] memory orderNumbers = new uint256[](orders.length);\r\n        for (uint256 i = 0; i < orders.length; i++) {\r\n            orderNumbers[i] = orders[i].orderNo;\r\n        }\r\n        return orderNumbers;\r\n    }\r\n\r\n    // Function to retrieve detailed order information by order number\r\n    function getOrderDetails(address _user, uint256 _orderNo) external view returns (\r\n        uint256 orderNo,\r\n        uint256 orderDate,\r\n        uint256 orderTotalAmount,\r\n        string memory orderStatus,\r\n        uint256 supplierId,\r\n        uint256[] memory productIds,\r\n        uint256[] memory productQtys\r\n    ) {\r\n        Order[] storage orders = userOrders[_user];\r\n        for (uint256 i = 0; i < orders.length; i++) {\r\n            if (orders[i].orderNo == _orderNo) {\r\n                Order storage order = orders[i];\r\n                return (\r\n                    order.orderNo,\r\n                    order.orderDate,\r\n                    order.orderTotalAmount,\r\n                    order.orderStatus,\r\n                    order.supplierId,\r\n                    order.productIds,\r\n                    order.productQtys\r\n                );\r\n            }\r\n        }\r\n        revert(\"Order not found\");\r\n    }\r\n\r\n    function compareStrings(\r\n        string memory a,\r\n        string memory b\r\n    ) public pure returns (bool) {\r\n        return keccak256(abi.encodePacked(a)) == keccak256(abi.encodePacked(b));\r\n    }\r\n\r\n    // Function to mark an order as received and update product quantities\r\n    function receiveOrder(uint256 _orderNo, OrderDetail[] memory _receivedProducts) external {\r\n        Order[] storage orders = userOrders[msg.sender];\r\n        bool orderFound = false;\r\n        \r\n        for (uint256 i = 0; i < orders.length; i++) {\r\n            if (orders[i].orderNo == _orderNo && !compareStrings(orders[i].orderStatus, \"received\")) {\r\n                uint256 totalAmount = 0;\r\n                require(_receivedProducts.length == orders[i].productIds.length, \"Received product count does not match order\");\r\n\r\n                // Validate received product details and update total amount\r\n                for (uint256 j = 0; j < _receivedProducts.length; j++) {\r\n                    require(_receivedProducts[j].productQtyReceived <= orders[i].productQtys[j], \"Received quantity exceeds ordered quantity\");\r\n                    \r\n                    //totalAmount += _receivedProducts[j].productQtyReceived * products[_receivedProducts[j].productId].productPrice;\r\n                    totalAmount += _receivedProducts[j].productQtyReceived * _receivedProducts[j].productPrice;\r\n\r\n                    // Update product quantity in inventory\r\n                    products[_receivedProducts[j].productId].productQty += _receivedProducts[j].productQtyReceived;\r\n                }\r\n\r\n                // Mark order as received\r\n                orders[i].isReceived = true;\r\n                orders[i].orderStatus = \"received\";\r\n                orders[i].orderTotalAmount = totalAmount;\r\n\r\n                orderFound = true;\r\n                break;\r\n            }\r\n        }\r\n\r\n        require(orderFound, \"Order not found or already received\");\r\n\r\n        // Automatically pay the supplier\r\n        //paySupplier(_orderNo);\r\n        \r\n        for (uint256 i = 1; i <= orders.length; i++) {\r\n            if (orders[i].orderNo == _orderNo && compareStrings(orders[i].orderStatus, \"received\")) {\r\n                uint256 totalAmount = orders[i].orderTotalAmount;\r\n                //uint256 supplierId = orders[i].supplierId;\r\n\r\n                Bank storage userBank = userBankDetails[1];\r\n                //SupplierBank storage supplierBank = supplierBankDetails[supplierId];\r\n\r\n                require(userBank.backupAmount >= totalAmount, \"Insufficient balance\");\r\n                \r\n                // Update user's bank balance\r\n                userBank.backupAmount -= totalAmount;\r\n                break;\r\n            }\r\n        }\r\n\r\n    }\r\n}",
  "sourcePath": "G:\\Ravensbourne\\SEM-2\\WEB3-BLOCKCHAIN\\react\\orderManagementBackend\\contracts\\InventoryPayment.sol",
  "compiler": {
    "name": "solc",
    "version": "0.8.21+commit.d9974bed.Emscripten.clang"
  },
  "schemaVersion": "3.4.16",
  "updatedAt": "2024-04-05T18:30:39.425Z",
  "networkType": "ethereum",
  "devdoc": {
    "kind": "dev",
    "methods": {},
    "version": 1
  },
  "userdoc": {
    "kind": "user",
    "methods": {},
    "version": 1
  }
}