{
  "contractName": "InventoryPayment",
  "abi": [
    {
      "anonymous": false,
      "inputs": [
        {
          "indexed": true,
          "internalType": "uint256",
          "name": "bankId",
          "type": "uint256"
        }
      ],
      "name": "BankAdded",
      "type": "event"
    },
    {
      "anonymous": false,
      "inputs": [
        {
          "indexed": true,
          "internalType": "uint256",
          "name": "bankId",
          "type": "uint256"
        }
      ],
      "name": "BankDeleted",
      "type": "event"
    },
    {
      "anonymous": false,
      "inputs": [
        {
          "indexed": true,
          "internalType": "uint256",
          "name": "bankId",
          "type": "uint256"
        }
      ],
      "name": "BankUpdated",
      "type": "event"
    },
    {
      "anonymous": false,
      "inputs": [
        {
          "indexed": true,
          "internalType": "uint256",
          "name": "orderNo",
          "type": "uint256"
        },
        {
          "indexed": true,
          "internalType": "address",
          "name": "user",
          "type": "address"
        }
      ],
      "name": "OrderPlaced",
      "type": "event"
    },
    {
      "anonymous": false,
      "inputs": [
        {
          "indexed": true,
          "internalType": "uint256",
          "name": "orderNo",
          "type": "uint256"
        },
        {
          "indexed": true,
          "internalType": "address",
          "name": "supplier",
          "type": "address"
        },
        {
          "indexed": false,
          "internalType": "uint256",
          "name": "amount",
          "type": "uint256"
        }
      ],
      "name": "PaymentSent",
      "type": "event"
    },
    {
      "anonymous": false,
      "inputs": [
        {
          "indexed": true,
          "internalType": "uint256",
          "name": "productId",
          "type": "uint256"
        }
      ],
      "name": "ProductAdded",
      "type": "event"
    },
    {
      "anonymous": false,
      "inputs": [
        {
          "indexed": true,
          "internalType": "uint256",
          "name": "productId",
          "type": "uint256"
        }
      ],
      "name": "ProductDeleted",
      "type": "event"
    },
    {
      "anonymous": false,
      "inputs": [
        {
          "indexed": true,
          "internalType": "uint256",
          "name": "productId",
          "type": "uint256"
        }
      ],
      "name": "ProductUpdated",
      "type": "event"
    },
    {
      "anonymous": false,
      "inputs": [
        {
          "indexed": true,
          "internalType": "uint256",
          "name": "supId",
          "type": "uint256"
        }
      ],
      "name": "SupplierAdded",
      "type": "event"
    },
    {
      "anonymous": false,
      "inputs": [
        {
          "indexed": true,
          "internalType": "uint256",
          "name": "supId",
          "type": "uint256"
        }
      ],
      "name": "SupplierDeleted",
      "type": "event"
    },
    {
      "anonymous": false,
      "inputs": [
        {
          "indexed": true,
          "internalType": "uint256",
          "name": "supId",
          "type": "uint256"
        }
      ],
      "name": "SupplierUpdated",
      "type": "event"
    },
    {
      "inputs": [
        {
          "internalType": "uint256",
          "name": "",
          "type": "uint256"
        }
      ],
      "name": "activeProductIds",
      "outputs": [
        {
          "internalType": "uint256",
          "name": "",
          "type": "uint256"
        }
      ],
      "stateMutability": "view",
      "type": "function"
    },
    {
      "inputs": [
        {
          "internalType": "uint256",
          "name": "",
          "type": "uint256"
        }
      ],
      "name": "activeSupplierIds",
      "outputs": [
        {
          "internalType": "uint256",
          "name": "",
          "type": "uint256"
        }
      ],
      "stateMutability": "view",
      "type": "function"
    },
    {
      "inputs": [],
      "name": "bankCount",
      "outputs": [
        {
          "internalType": "uint256",
          "name": "",
          "type": "uint256"
        }
      ],
      "stateMutability": "view",
      "type": "function"
    },
    {
      "inputs": [],
      "name": "orderCount",
      "outputs": [
        {
          "internalType": "uint256",
          "name": "",
          "type": "uint256"
        }
      ],
      "stateMutability": "view",
      "type": "function"
    },
    {
      "inputs": [],
      "name": "productCount",
      "outputs": [
        {
          "internalType": "uint256",
          "name": "",
          "type": "uint256"
        }
      ],
      "stateMutability": "view",
      "type": "function"
    },
    {
      "inputs": [
        {
          "internalType": "uint256",
          "name": "",
          "type": "uint256"
        }
      ],
      "name": "products",
      "outputs": [
        {
          "internalType": "uint256",
          "name": "productId",
          "type": "uint256"
        },
        {
          "internalType": "string",
          "name": "productName",
          "type": "string"
        },
        {
          "internalType": "uint256",
          "name": "productPrice",
          "type": "uint256"
        },
        {
          "internalType": "uint256",
          "name": "productQty",
          "type": "uint256"
        }
      ],
      "stateMutability": "view",
      "type": "function"
    },
    {
      "inputs": [
        {
          "internalType": "uint256",
          "name": "",
          "type": "uint256"
        }
      ],
      "name": "supplierBankDetails",
      "outputs": [
        {
          "internalType": "string",
          "name": "bankName",
          "type": "string"
        },
        {
          "internalType": "string",
          "name": "sortCode",
          "type": "string"
        },
        {
          "internalType": "uint256",
          "name": "accountNumber",
          "type": "uint256"
        }
      ],
      "stateMutability": "view",
      "type": "function"
    },
    {
      "inputs": [],
      "name": "supplierCount",
      "outputs": [
        {
          "internalType": "uint256",
          "name": "",
          "type": "uint256"
        }
      ],
      "stateMutability": "view",
      "type": "function"
    },
    {
      "inputs": [
        {
          "internalType": "uint256",
          "name": "",
          "type": "uint256"
        }
      ],
      "name": "suppliers",
      "outputs": [
        {
          "internalType": "uint256",
          "name": "supplierId",
          "type": "uint256"
        },
        {
          "internalType": "string",
          "name": "supplierName",
          "type": "string"
        },
        {
          "internalType": "string",
          "name": "supplierNumber",
          "type": "string"
        },
        {
          "components": [
            {
              "internalType": "string",
              "name": "bankName",
              "type": "string"
            },
            {
              "internalType": "string",
              "name": "sortCode",
              "type": "string"
            },
            {
              "internalType": "uint256",
              "name": "accountNumber",
              "type": "uint256"
            }
          ],
          "internalType": "struct InventoryPayment.SupplierBank",
          "name": "supplierBank",
          "type": "tuple"
        }
      ],
      "stateMutability": "view",
      "type": "function"
    },
    {
      "inputs": [
        {
          "internalType": "uint256",
          "name": "",
          "type": "uint256"
        }
      ],
      "name": "userBankDetails",
      "outputs": [
        {
          "internalType": "uint256",
          "name": "id",
          "type": "uint256"
        },
        {
          "internalType": "string",
          "name": "bankName",
          "type": "string"
        },
        {
          "internalType": "uint256",
          "name": "bankAccountNumber",
          "type": "uint256"
        },
        {
          "internalType": "uint256",
          "name": "backupAmount",
          "type": "uint256"
        }
      ],
      "stateMutability": "view",
      "type": "function"
    },
    {
      "inputs": [
        {
          "internalType": "address",
          "name": "",
          "type": "address"
        },
        {
          "internalType": "uint256",
          "name": "",
          "type": "uint256"
        }
      ],
      "name": "userOrders",
      "outputs": [
        {
          "internalType": "uint256",
          "name": "orderNo",
          "type": "uint256"
        },
        {
          "internalType": "uint256",
          "name": "orderDate",
          "type": "uint256"
        },
        {
          "internalType": "uint256",
          "name": "orderTotalAmount",
          "type": "uint256"
        },
        {
          "internalType": "string",
          "name": "orderStatus",
          "type": "string"
        },
        {
          "internalType": "uint256",
          "name": "supplierId",
          "type": "uint256"
        }
      ],
      "stateMutability": "view",
      "type": "function"
    },
    {
      "inputs": [
        {
          "internalType": "string",
          "name": "_supplierName",
          "type": "string"
        },
        {
          "internalType": "string",
          "name": "_supplierNumber",
          "type": "string"
        },
        {
          "internalType": "string",
          "name": "_bankName",
          "type": "string"
        },
        {
          "internalType": "string",
          "name": "_sortCode",
          "type": "string"
        },
        {
          "internalType": "uint256",
          "name": "_bankAccountNumber",
          "type": "uint256"
        }
      ],
      "name": "addSupplier",
      "outputs": [],
      "stateMutability": "nonpayable",
      "type": "function"
    },
    {
      "inputs": [],
      "name": "getAllSuppliersDetails",
      "outputs": [
        {
          "components": [
            {
              "internalType": "uint256",
              "name": "supplierId",
              "type": "uint256"
            },
            {
              "internalType": "string",
              "name": "supplierName",
              "type": "string"
            },
            {
              "internalType": "string",
              "name": "supplierNumber",
              "type": "string"
            },
            {
              "components": [
                {
                  "internalType": "string",
                  "name": "bankName",
                  "type": "string"
                },
                {
                  "internalType": "string",
                  "name": "sortCode",
                  "type": "string"
                },
                {
                  "internalType": "uint256",
                  "name": "accountNumber",
                  "type": "uint256"
                }
              ],
              "internalType": "struct InventoryPayment.SupplierBank",
              "name": "supplierBank",
              "type": "tuple"
            }
          ],
          "internalType": "struct InventoryPayment.Supplier[]",
          "name": "",
          "type": "tuple[]"
        }
      ],
      "stateMutability": "view",
      "type": "function"
    },
    {
      "inputs": [
        {
          "internalType": "uint256",
          "name": "_supplierId",
          "type": "uint256"
        },
        {
          "internalType": "string",
          "name": "_newName",
          "type": "string"
        },
        {
          "internalType": "string",
          "name": "_newNumber",
          "type": "string"
        },
        {
          "internalType": "string",
          "name": "_newBankName",
          "type": "string"
        },
        {
          "internalType": "string",
          "name": "_newSortCode",
          "type": "string"
        },
        {
          "internalType": "uint256",
          "name": "_newAccountNumber",
          "type": "uint256"
        }
      ],
      "name": "updateSupplier",
      "outputs": [],
      "stateMutability": "nonpayable",
      "type": "function"
    },
    {
      "inputs": [
        {
          "internalType": "uint256",
          "name": "_supplierId",
          "type": "uint256"
        }
      ],
      "name": "deleteSupplier",
      "outputs": [],
      "stateMutability": "nonpayable",
      "type": "function"
    },
    {
      "inputs": [
        {
          "internalType": "uint256",
          "name": "_user",
          "type": "uint256"
        }
      ],
      "name": "getUserBankDetails",
      "outputs": [
        {
          "components": [
            {
              "internalType": "uint256",
              "name": "id",
              "type": "uint256"
            },
            {
              "internalType": "string",
              "name": "bankName",
              "type": "string"
            },
            {
              "internalType": "uint256",
              "name": "bankAccountNumber",
              "type": "uint256"
            },
            {
              "internalType": "uint256",
              "name": "backupAmount",
              "type": "uint256"
            }
          ],
          "internalType": "struct InventoryPayment.Bank",
          "name": "",
          "type": "tuple"
        }
      ],
      "stateMutability": "view",
      "type": "function"
    },
    {
      "inputs": [
        {
          "internalType": "string",
          "name": "_bankName",
          "type": "string"
        },
        {
          "internalType": "uint256",
          "name": "_bankAccountNumber",
          "type": "uint256"
        },
        {
          "internalType": "uint256",
          "name": "_backupAmount",
          "type": "uint256"
        }
      ],
      "name": "addUserBankDetails",
      "outputs": [],
      "stateMutability": "nonpayable",
      "type": "function"
    },
    {
      "inputs": [],
      "name": "getBankDetails",
      "outputs": [
        {
          "components": [
            {
              "internalType": "uint256",
              "name": "id",
              "type": "uint256"
            },
            {
              "internalType": "string",
              "name": "bankName",
              "type": "string"
            },
            {
              "internalType": "uint256",
              "name": "bankAccountNumber",
              "type": "uint256"
            },
            {
              "internalType": "uint256",
              "name": "backupAmount",
              "type": "uint256"
            }
          ],
          "internalType": "struct InventoryPayment.Bank[]",
          "name": "",
          "type": "tuple[]"
        }
      ],
      "stateMutability": "view",
      "type": "function"
    },
    {
      "inputs": [
        {
          "internalType": "uint256",
          "name": "_bankId",
          "type": "uint256"
        }
      ],
      "name": "viewBank",
      "outputs": [
        {
          "internalType": "string",
          "name": "bankName",
          "type": "string"
        },
        {
          "internalType": "uint256",
          "name": "bankNumber",
          "type": "uint256"
        },
        {
          "internalType": "uint256",
          "name": "bankAmout",
          "type": "uint256"
        }
      ],
      "stateMutability": "view",
      "type": "function"
    },
    {
      "inputs": [
        {
          "internalType": "uint256",
          "name": "_bankId",
          "type": "uint256"
        },
        {
          "internalType": "string",
          "name": "_newName",
          "type": "string"
        },
        {
          "internalType": "uint256",
          "name": "_newAccountNumber",
          "type": "uint256"
        },
        {
          "internalType": "uint256",
          "name": "_newAmount",
          "type": "uint256"
        }
      ],
      "name": "updateBank",
      "outputs": [],
      "stateMutability": "nonpayable",
      "type": "function"
    },
    {
      "inputs": [
        {
          "internalType": "uint256",
          "name": "_bankId",
          "type": "uint256"
        }
      ],
      "name": "deleteBank",
      "outputs": [],
      "stateMutability": "nonpayable",
      "type": "function"
    },
    {
      "inputs": [
        {
          "internalType": "string",
          "name": "_productName",
          "type": "string"
        },
        {
          "internalType": "uint256",
          "name": "_productPrice",
          "type": "uint256"
        },
        {
          "internalType": "uint256",
          "name": "_productQty",
          "type": "uint256"
        }
      ],
      "name": "addProduct",
      "outputs": [],
      "stateMutability": "nonpayable",
      "type": "function"
    },
    {
      "inputs": [
        {
          "internalType": "uint256",
          "name": "_productId",
          "type": "uint256"
        }
      ],
      "name": "viewProduct",
      "outputs": [
        {
          "internalType": "string",
          "name": "productName",
          "type": "string"
        },
        {
          "internalType": "uint256",
          "name": "productPrice",
          "type": "uint256"
        },
        {
          "internalType": "uint256",
          "name": "productQty",
          "type": "uint256"
        }
      ],
      "stateMutability": "view",
      "type": "function"
    },
    {
      "inputs": [
        {
          "internalType": "uint256",
          "name": "_productId",
          "type": "uint256"
        },
        {
          "internalType": "string",
          "name": "_newName",
          "type": "string"
        },
        {
          "internalType": "uint256",
          "name": "_newPrice",
          "type": "uint256"
        },
        {
          "internalType": "uint256",
          "name": "_newQty",
          "type": "uint256"
        }
      ],
      "name": "updateProduct",
      "outputs": [],
      "stateMutability": "nonpayable",
      "type": "function"
    },
    {
      "inputs": [
        {
          "internalType": "uint256",
          "name": "_productId",
          "type": "uint256"
        }
      ],
      "name": "deleteProduct",
      "outputs": [],
      "stateMutability": "nonpayable",
      "type": "function"
    },
    {
      "inputs": [],
      "name": "viewAllProducts",
      "outputs": [
        {
          "components": [
            {
              "internalType": "uint256",
              "name": "productId",
              "type": "uint256"
            },
            {
              "internalType": "string",
              "name": "productName",
              "type": "string"
            },
            {
              "internalType": "uint256",
              "name": "productPrice",
              "type": "uint256"
            },
            {
              "internalType": "uint256",
              "name": "productQty",
              "type": "uint256"
            }
          ],
          "internalType": "struct InventoryPayment.Product[]",
          "name": "",
          "type": "tuple[]"
        }
      ],
      "stateMutability": "view",
      "type": "function"
    },
    {
      "inputs": [
        {
          "internalType": "uint256[]",
          "name": "_productIds",
          "type": "uint256[]"
        },
        {
          "internalType": "uint256[]",
          "name": "_productQtyOrder",
          "type": "uint256[]"
        }
      ],
      "name": "placeOrder",
      "outputs": [],
      "stateMutability": "nonpayable",
      "type": "function"
    },
    {
      "inputs": [
        {
          "internalType": "string",
          "name": "a",
          "type": "string"
        },
        {
          "internalType": "string",
          "name": "b",
          "type": "string"
        }
      ],
      "name": "compareStrings",
      "outputs": [
        {
          "internalType": "bool",
          "name": "",
          "type": "bool"
        }
      ],
      "stateMutability": "pure",
      "type": "function"
    },
    {
      "inputs": [
        {
          "internalType": "uint256",
          "name": "_orderNo",
          "type": "uint256"
        }
      ],
      "name": "receiveOrder",
      "outputs": [],
      "stateMutability": "nonpayable",
      "type": "function"
    },
    {
      "inputs": [
        {
          "internalType": "uint256",
          "name": "_orderNo",
          "type": "uint256"
        }
      ],
      "name": "paySupplier",
      "outputs": [],
      "stateMutability": "nonpayable",
      "type": "function"
    }
  ],
  "bytecode": "0x608060405234801561000f575f80fd5b506143b28061001d5f395ff3fe608060405234801561000f575f80fd5b50600436106101d8575f3560e01c806378147d4e11610102578063bed34bba116100a0578063eafd4bbd1161006f578063eafd4bbd14610585578063ed90c7b7146105b7578063f879eb57146105d3578063fbf3c5d8146105f1576101d8565b8063bed34bba146104e8578063cea2312114610518578063d5d6690c1461054b578063e0f6ef8714610567576101d8565b80639431a635116100dc5780639431a6351461046157806397bab12f146104945780639aff51c6146104b0578063b2624e17146104cc576101d8565b806378147d4e146103c85780637acc0b20146103fa578063856652e91461042d576101d8565b8063330b06621161017a5780635b1389af116101495780635b1389af1461032c5780636dedcb091461034a5780636f1378061461037a578063766662f2146103aa576101d8565b8063330b0662146102a45780633605adae146102c0578063503a37e0146102f2578063598ae72314610310576101d8565b8063140c6b91116101b6578063140c6b91146102305780632453ffa81461024e5780632d5617871461026c57806332689cf014610288576101d8565b806303d4afc5146101dc57806305d3d366146101f8578063125b0b3414610214575b5f80fd5b6101f660048036038101906101f19190612b94565b610621565b005b610212600480360381019061020d9190612b94565b6106d8565b005b61022e60048036038101906102299190612cfb565b610879565b005b610238610952565b6040516102459190612d76565b60405180910390f35b610256610958565b6040516102639190612d76565b60405180910390f35b61028660048036038101906102819190612d8f565b61095e565b005b6102a2600480360381019061029d9190612d8f565b610a19565b005b6102be60048036038101906102b99190612e0f565b610ad5565b005b6102da60048036038101906102d59190612b94565b610d5e565b6040516102e993929190612f70565b60405180910390f35b6102fa610e90565b6040516103079190613125565b60405180910390f35b61032a60048036038101906103259190612b94565b611008565b005b610334611283565b6040516103419190613260565b60405180910390f35b610364600480360381019061035f9190612b94565b6113f9565b60405161037191906132e0565b60405180910390f35b610394600480360381019061038f9190612b94565b6114d1565b6040516103a19190612d76565b60405180910390f35b6103b26114f1565b6040516103bf919061347d565b60405180910390f35b6103e260048036038101906103dd9190612b94565b611822565b6040516103f19392919061349d565b60405180910390f35b610414600480360381019061040f9190612b94565b61195f565b60405161042494939291906134d9565b60405180910390f35b6104476004803603810190610442919061357d565b611a11565b6040516104589594939291906135bb565b60405180910390f35b61047b60048036038101906104769190612b94565b611ae3565b60405161048b94939291906134d9565b60405180910390f35b6104ae60048036038101906104a99190612b94565b611b95565b005b6104ca60048036038101906104c591906136d7565b611e8e565b005b6104e660048036038101906104e19190612cfb565b6121de565b005b61050260048036038101906104fd919061374d565b6123b2565b60405161050f91906137dd565b60405180910390f35b610532600480360381019061052d9190612b94565b61240a565b604051610542949392919061384a565b60405180910390f35b610565600480360381019061056091906138a2565b612675565b005b61056f612768565b60405161057c9190612d76565b60405180910390f35b61059f600480360381019061059a9190612b94565b61276d565b6040516105ae9392919061349d565b60405180910390f35b6105d160048036038101906105cc9190612b94565b6128a9565b005b6105db612a1d565b6040516105e89190612d76565b60405180910390f35b61060b60048036038101906106069190612b94565b612a23565b6040516106189190612d76565b60405180910390f35b600154811115801561063257505f81115b610671576040517f08c379a0000000000000000000000000000000000000000000000000000000008152600401610668906139e5565b60405180910390fd5b60045f8281526020019081526020015f205f8082015f9055600182015f6106989190612a43565b600282015f9055600382015f90555050807f6cfb81c439b427c92810494d6fb954e0d5f6d5b31d80416405bc08b284a8d23960405160405180910390a250565b60035481111580156106e957505f81115b610728576040517f08c379a000000000000000000000000000000000000000000000000000000000815260040161071f90613a4d565b60405180910390fd5b60085f8281526020019081526020015f205f8082015f9055600182015f61074f9190612a43565b600282015f61075e9190612a43565b600382015f8082015f6107719190612a43565b600182015f6107809190612a43565b600282015f905550505050807f659ad8d8d936972f64b8c76df1f0805c7194c3ada1c7e1e02d2212a294744b6860405160405180910390a25f5b600a805490508110156108755781600a82815481106107dc576107db613a6b565b5b905f5260205f2001540361086257600a6001600a805490506107fe9190613ac5565b8154811061080f5761080e613a6b565b5b905f5260205f200154600a828154811061082c5761082b613a6b565b5b905f5260205f200181905550600a80548061084a57610849613af8565b5b600190038181905f5260205f20015f90559055610875565b808061086d90613b25565b9150506107ba565b5050565b5f8081548092919061088a90613b25565b919050555060405180608001604052805f5481526020018481526020018381526020018281525060045f805481526020019081526020015f205f820151815f015560208201518160010190816108e09190613d66565b50604082015181600201556060820151816003015590505060095f54908060018154018082558091505060019003905f5260205f20015f90919091909150555f547f4fc9d5acc453e78e01b205af5788a1c62f195c4b5cdc8eb8f1c670863b7e736a60405160405180910390a2505050565b60035481565b60025481565b5f54841115801561096e57505f84115b6109ad576040517f08c379a00000000000000000000000000000000000000000000000000000000081526004016109a490613e7f565b60405180910390fd5b5f60045f8681526020019081526020015f209050838160010190816109d29190613d66565b50828160020181905550818160030181905550847feca6714fcf568fb34cf9db4a414cb0cc48e93c5d4e1ba0582a46ea3704cf24d560405160405180910390a25050505050565b6001548411158015610a2a57505f84115b610a69576040517f08c379a0000000000000000000000000000000000000000000000000000000008152600401610a60906139e5565b60405180910390fd5b5f60065f8681526020019081526020015f20905083816001019081610a8e9190613d66565b50828160020181905550818160030181905550847fdc16211c01e83339507d9d54214d47194290eee1aec7c4f3867ba3f86b42efa360405160405180910390a25050505050565b5f855111610b18576040517f08c379a0000000000000000000000000000000000000000000000000000000008152600401610b0f90613ee7565b60405180910390fd5b5f845111610b5b576040517f08c379a0000000000000000000000000000000000000000000000000000000008152600401610b5290613f4f565b60405180910390fd5b5f835111610b9e576040517f08c379a0000000000000000000000000000000000000000000000000000000008152600401610b9590613fb7565b60405180910390fd5b5f825111610be1576040517f08c379a0000000000000000000000000000000000000000000000000000000008152600401610bd89061401f565b60405180910390fd5b5f8103610c23576040517f08c379a0000000000000000000000000000000000000000000000000000000008152600401610c1a906140ad565b60405180910390fd5b60035f815480929190610c3590613b25565b91905055506040518060800160405280600354815260200186815260200185815260200160405180606001604052808681526020018581526020018481525081525060085f60035481526020019081526020015f205f820151815f01556020820151816001019081610ca79190613d66565b506040820151816002019081610cbd9190613d66565b506060820151816003015f820151815f019081610cda9190613d66565b506020820151816001019081610cf09190613d66565b50604082015181600201555050905050600a600354908060018154018082558091505060019003905f5260205f20015f90919091909150556003547f061189d1338f04d65bc2d4338b794ee9b61e9344c3758f31ebf3b1d810437eee60405160405180910390a25050505050565b6007602052805f5260405f205f91509050805f018054610d7d90613b99565b80601f0160208091040260200160405190810160405280929190818152602001828054610da990613b99565b8015610df45780601f10610dcb57610100808354040283529160200191610df4565b820191905f5260205f20905b815481529060010190602001808311610dd757829003601f168201915b505050505090806001018054610e0990613b99565b80601f0160208091040260200160405190810160405280929190818152602001828054610e3590613b99565b8015610e805780601f10610e5757610100808354040283529160200191610e80565b820191905f5260205f20905b815481529060010190602001808311610e6357829003601f168201915b5050505050908060020154905083565b60605f60015467ffffffffffffffff811115610eaf57610eae612bd7565b5b604051908082528060200260200182016040528015610ee857816020015b610ed5612a80565b815260200190600190039081610ecd5790505b5090505f600190505b60015481116110005760065f8281526020019081526020015f206040518060800160405290815f8201548152602001600182018054610f2f90613b99565b80601f0160208091040260200160405190810160405280929190818152602001828054610f5b90613b99565b8015610fa65780601f10610f7d57610100808354040283529160200191610fa6565b820191905f5260205f20905b815481529060010190602001808311610f8957829003601f168201915b505050505081526020016002820154815260200160038201548152505082600183610fd19190613ac5565b81518110610fe257610fe1613a6b565b5b60200260200101819052508080610ff890613b25565b915050610ef1565b508091505090565b5f60055f3373ffffffffffffffffffffffffffffffffffffffff1673ffffffffffffffffffffffffffffffffffffffff1681526020019081526020015f2090505f5b818054905081101561127e578282828154811061106a57611069613a6b565b5b905f5260205f2090600602015f01540361126b5761116582828154811061109457611093613a6b565b5b905f5260205f20906006020160030180546110ae90613b99565b80601f01602080910402602001604051908101604052809291908181526020018280546110da90613b99565b80156111255780601f106110fc57610100808354040283529160200191611125565b820191905f5260205f20905b81548152906001019060200180831161110857829003601f168201915b50505050506040518060400160405280600881526020017f72656365697665640000000000000000000000000000000000000000000000008152506123b2565b1561126a575f82828154811061117e5761117d613a6b565b5b905f5260205f2090600602016002015490505f60065f8081526020019081526020015f20905081816002015482600301546111b991906140cb565b10156111fa576040517f08c379a00000000000000000000000000000000000000000000000000000000081526004016111f190614148565b60405180910390fd5b81816003015f82825461120d9190613ac5565b925050819055503373ffffffffffffffffffffffffffffffffffffffff16857f952e5301753c5bc62cbfbdbe1b6553cd54796e01da9cfeaaf29921d6ede1a7268460405161125b9190612d76565b60405180910390a3505061127e565b5b808061127690613b25565b91505061104a565b505050565b60605f805467ffffffffffffffff8111156112a1576112a0612bd7565b5b6040519080825280602002602001820160405280156112da57816020015b6112c7612aa5565b8152602001906001900390816112bf5790505b5090505f600190505b5f5481116113f15760045f8281526020019081526020015f206040518060800160405290815f820154815260200160018201805461132090613b99565b80601f016020809104026020016040519081016040528092919081815260200182805461134c90613b99565b80156113975780601f1061136e57610100808354040283529160200191611397565b820191905f5260205f20905b81548152906001019060200180831161137a57829003601f168201915b5050505050815260200160028201548152602001600382015481525050826001836113c29190613ac5565b815181106113d3576113d2613a6b565b5b602002602001018190525080806113e990613b25565b9150506112e3565b508091505090565b611401612a80565b60065f8381526020019081526020015f206040518060800160405290815f820154815260200160018201805461143690613b99565b80601f016020809104026020016040519081016040528092919081815260200182805461146290613b99565b80156114ad5780601f10611484576101008083540402835291602001916114ad565b820191905f5260205f20905b81548152906001019060200180831161149057829003601f168201915b50505050508152602001600282015481526020016003820154815250509050919050565b600a81815481106114e0575f80fd5b905f5260205f20015f915090505481565b60605f60035467ffffffffffffffff8111156115105761150f612bd7565b5b60405190808252806020026020018201604052801561154957816020015b611536612aca565b81526020019060019003908161152e5790505b5090505f600190505b600354811161181a5760085f8281526020019081526020015f206040518060800160405290815f820154815260200160018201805461159090613b99565b80601f01602080910402602001604051908101604052809291908181526020018280546115bc90613b99565b80156116075780601f106115de57610100808354040283529160200191611607565b820191905f5260205f20905b8154815290600101906020018083116115ea57829003601f168201915b5050505050815260200160028201805461162090613b99565b80601f016020809104026020016040519081016040528092919081815260200182805461164c90613b99565b80156116975780601f1061166e57610100808354040283529160200191611697565b820191905f5260205f20905b81548152906001019060200180831161167a57829003601f168201915b50505050508152602001600382016040518060600160405290815f820180546116bf90613b99565b80601f01602080910402602001604051908101604052809291908181526020018280546116eb90613b99565b80156117365780601f1061170d57610100808354040283529160200191611736565b820191905f5260205f20905b81548152906001019060200180831161171957829003601f168201915b5050505050815260200160018201805461174f90613b99565b80601f016020809104026020016040519081016040528092919081815260200182805461177b90613b99565b80156117c65780601f1061179d576101008083540402835291602001916117c6565b820191905f5260205f20905b8154815290600101906020018083116117a957829003601f168201915b5050505050815260200160028201548152505081525050826001836117eb9190613ac5565b815181106117fc576117fb613a6b565b5b6020026020010181905250808061181290613b25565b915050611552565b508091505090565b60605f80600154841115801561183757505f84115b611876576040517f08c379a000000000000000000000000000000000000000000000000000000000815260040161186d906139e5565b60405180910390fd5b5f60065f8681526020019081526020015f206040518060800160405290815f82015481526020016001820180546118ac90613b99565b80601f01602080910402602001604051908101604052809291908181526020018280546118d890613b99565b80156119235780601f106118fa57610100808354040283529160200191611923565b820191905f5260205f20905b81548152906001019060200180831161190657829003601f168201915b50505050508152602001600282015481526020016003820154815250509050806020015181604001518260400151935093509350509193909250565b6004602052805f5260405f205f91509050805f01549080600101805461198490613b99565b80601f01602080910402602001604051908101604052809291908181526020018280546119b090613b99565b80156119fb5780601f106119d2576101008083540402835291602001916119fb565b820191905f5260205f20905b8154815290600101906020018083116119de57829003601f168201915b5050505050908060020154908060030154905084565b6005602052815f5260405f208181548110611a2a575f80fd5b905f5260205f2090600602015f9150915050805f015490806001015490806002015490806003018054611a5c90613b99565b80601f0160208091040260200160405190810160405280929190818152602001828054611a8890613b99565b8015611ad35780601f10611aaa57610100808354040283529160200191611ad3565b820191905f5260205f20905b815481529060010190602001808311611ab657829003601f168201915b5050505050908060040154905085565b6006602052805f5260405f205f91509050805f015490806001018054611b0890613b99565b80601f0160208091040260200160405190810160405280929190818152602001828054611b3490613b99565b8015611b7f5780601f10611b5657610100808354040283529160200191611b7f565b820191905f5260205f20905b815481529060010190602001808311611b6257829003601f168201915b5050505050908060020154908060030154905084565b5f60055f3373ffffffffffffffffffffffffffffffffffffffff1673ffffffffffffffffffffffffffffffffffffffff1681526020019081526020015f2090505f805b8280549050811015611e485783838281548110611bf857611bf7613a6b565b5b905f5260205f2090600602015f0154148015611cf85750611cf6838281548110611c2557611c24613a6b565b5b905f5260205f2090600602016003018054611c3f90613b99565b80601f0160208091040260200160405190810160405280929190818152602001828054611c6b90613b99565b8015611cb65780601f10611c8d57610100808354040283529160200191611cb6565b820191905f5260205f20905b815481529060010190602001808311611c9957829003601f168201915b50505050506040518060400160405280600881526020017f72656365697665640000000000000000000000000000000000000000000000008152506123b2565b155b15611e35576040518060400160405280600881526020017f7265636569766564000000000000000000000000000000000000000000000000815250838281548110611d4657611d45613a6b565b5b905f5260205f2090600602016003019081611d619190613d66565b505f600190505b5f548111611e2b575f848381548110611d8457611d83613a6b565b5b905f5260205f2090600602016005015f8381526020019081526020015f205f015414611e1857838281548110611dbd57611dbc613a6b565b5b905f5260205f2090600602016005015f8281526020019081526020015f2060010154848381548110611df257611df1613a6b565b5b905f5260205f2090600602016005015f8381526020019081526020015f20600201819055505b8080611e2390613b25565b915050611d68565b5060019150611e48565b8080611e4090613b25565b915050611bd8565b5080611e89576040517f08c379a0000000000000000000000000000000000000000000000000000000008152600401611e80906141d6565b60405180910390fd5b505050565b8051825114611ed2576040517f08c379a0000000000000000000000000000000000000000000000000000000008152600401611ec99061423e565b60405180910390fd5b5f825167ffffffffffffffff811115611eee57611eed612bd7565b5b604051908082528060200260200182016040528015611f2757816020015b611f14612af7565b815260200190600190039081611f0c5790505b5090505f5b8351811015612038575f54848281518110611f4a57611f49613a6b565b5b602002602001015111158015611f7957505f848281518110611f6f57611f6e613a6b565b5b6020026020010151115b611fb8576040517f08c379a0000000000000000000000000000000000000000000000000000000008152600401611faf90613e7f565b60405180910390fd5b6040518060600160405280858381518110611fd657611fd5613a6b565b5b60200260200101518152602001848381518110611ff657611ff5613a6b565b5b602002602001015181526020015f81525082828151811061201a57612019613a6b565b5b6020026020010181905250808061203090613b25565b915050611f2c565b5060025f81548092919061204b90613b25565b91905055505f60025490505f60055f3373ffffffffffffffffffffffffffffffffffffffff1673ffffffffffffffffffffffffffffffffffffffff1681526020019081526020015f2060018160018154018082558091505003905f5260205f209060060201905081815f01819055504281600101819055506040518060400160405280600681526020017f706c6163656400000000000000000000000000000000000000000000000000008152508160030190816121099190613d66565b505f5b83518110156121925783818151811061212857612127613a6b565b5b6020026020010151826005015f86848151811061214857612147613a6b565b5b60200260200101515f015181526020019081526020015f205f820151815f01556020820151816001015560408201518160020155905050808061218a90613b25565b91505061210c565b503373ffffffffffffffffffffffffffffffffffffffff16827f5222ba5f86a58ad15e7771bd95a809f162ae1762ea7cd66e28a58217341334cc60405160405180910390a35050505050565b5f835111612221576040517f08c379a000000000000000000000000000000000000000000000000000000000815260040161221890613fb7565b60405180910390fd5b5f8203612263576040517f08c379a000000000000000000000000000000000000000000000000000000000815260040161225a906140ad565b60405180910390fd5b5f81036122a5576040517f08c379a000000000000000000000000000000000000000000000000000000000815260040161229c906142a6565b60405180910390fd5b5f60065f60015481526020019081526020015f205f0154146122fc576040517f08c379a00000000000000000000000000000000000000000000000000000000081526004016122f39061430e565b60405180910390fd5b60015f81548092919061230e90613b25565b9190505550604051806080016040528060015481526020018481526020018381526020018281525060065f60015481526020019081526020015f205f820151815f015560208201518160010190816123669190613d66565b5060408201518160020155606082015181600301559050506001547febebffae43ff234e2b6a4e4937a33d8ea339f259ff0661dd9e98ae4a75e5185960405160405180910390a2505050565b5f816040516020016123c49190614366565b60405160208183030381529060405280519060200120836040516020016123eb9190614366565b6040516020818303038152906040528051906020012014905092915050565b6008602052805f5260405f205f91509050805f01549080600101805461242f90613b99565b80601f016020809104026020016040519081016040528092919081815260200182805461245b90613b99565b80156124a65780601f1061247d576101008083540402835291602001916124a6565b820191905f5260205f20905b81548152906001019060200180831161248957829003601f168201915b5050505050908060020180546124bb90613b99565b80601f01602080910402602001604051908101604052809291908181526020018280546124e790613b99565b80156125325780601f1061250957610100808354040283529160200191612532565b820191905f5260205f20905b81548152906001019060200180831161251557829003601f168201915b505050505090806003016040518060600160405290815f8201805461255690613b99565b80601f016020809104026020016040519081016040528092919081815260200182805461258290613b99565b80156125cd5780601f106125a4576101008083540402835291602001916125cd565b820191905f5260205f20905b8154815290600101906020018083116125b057829003601f168201915b505050505081526020016001820180546125e690613b99565b80601f016020809104026020016040519081016040528092919081815260200182805461261290613b99565b801561265d5780601f106126345761010080835404028352916020019161265d565b820191905f5260205f20905b81548152906001019060200180831161264057829003601f168201915b50505050508152602001600282015481525050905084565b600354861115801561268657505f86115b6126c5576040517f08c379a00000000000000000000000000000000000000000000000000000000081526004016126bc90613a4d565b60405180910390fd5b5f60085f8881526020019081526020015f209050858160010190816126ea9190613d66565b50848160020190816126fc9190613d66565b5083816003015f0190816127109190613d66565b50828160030160010190816127259190613d66565b50818160030160020181905550867f16bda03ec6eeafb585ceed93192d7c3f36e21937df4a24a2b17126736f7cab4060405160405180910390a250505050505050565b5f5481565b60605f805f54841115801561278157505f84115b6127c0576040517f08c379a00000000000000000000000000000000000000000000000000000000081526004016127b790613e7f565b60405180910390fd5b5f60045f8681526020019081526020015f206040518060800160405290815f82015481526020016001820180546127f690613b99565b80601f016020809104026020016040519081016040528092919081815260200182805461282290613b99565b801561286d5780601f106128445761010080835404028352916020019161286d565b820191905f5260205f20905b81548152906001019060200180831161285057829003601f168201915b50505050508152602001600282015481526020016003820154815250509050806020015181604001518260600151935093509350509193909250565b5f5481111580156128b957505f81115b6128f8576040517f08c379a00000000000000000000000000000000000000000000000000000000081526004016128ef90613e7f565b60405180910390fd5b60045f8281526020019081526020015f205f8082015f9055600182015f61291f9190612a43565b600282015f9055600382015f90555050807fc341cf326465fe622f86c468249e8c0cb03ed23ba376a6a34863a1374ac7d76960405160405180910390a25f5b600980549050811015612a195781600982815481106129805761297f613a6b565b5b905f5260205f20015403612a0657600960016009805490506129a29190613ac5565b815481106129b3576129b2613a6b565b5b905f5260205f200154600982815481106129d0576129cf613a6b565b5b905f5260205f20018190555060098054806129ee576129ed613af8565b5b600190038181905f5260205f20015f90559055612a19565b8080612a1190613b25565b91505061295e565b5050565b60015481565b60098181548110612a32575f80fd5b905f5260205f20015f915090505481565b508054612a4f90613b99565b5f825580601f10612a605750612a7d565b601f0160209004905f5260205f2090810190612a7c9190612b15565b5b50565b60405180608001604052805f8152602001606081526020015f81526020015f81525090565b60405180608001604052805f8152602001606081526020015f81526020015f81525090565b60405180608001604052805f81526020016060815260200160608152602001612af1612b30565b81525090565b60405180606001604052805f81526020015f81526020015f81525090565b5b80821115612b2c575f815f905550600101612b16565b5090565b604051806060016040528060608152602001606081526020015f81525090565b5f604051905090565b5f80fd5b5f80fd5b5f819050919050565b612b7381612b61565b8114612b7d575f80fd5b50565b5f81359050612b8e81612b6a565b92915050565b5f60208284031215612ba957612ba8612b59565b5b5f612bb684828501612b80565b91505092915050565b5f80fd5b5f80fd5b5f601f19601f8301169050919050565b7f4e487b71000000000000000000000000000000000000000000000000000000005f52604160045260245ffd5b612c0d82612bc7565b810181811067ffffffffffffffff82111715612c2c57612c2b612bd7565b5b80604052505050565b5f612c3e612b50565b9050612c4a8282612c04565b919050565b5f67ffffffffffffffff821115612c6957612c68612bd7565b5b612c7282612bc7565b9050602081019050919050565b828183375f83830152505050565b5f612c9f612c9a84612c4f565b612c35565b905082815260208101848484011115612cbb57612cba612bc3565b5b612cc6848285612c7f565b509392505050565b5f82601f830112612ce257612ce1612bbf565b5b8135612cf2848260208601612c8d565b91505092915050565b5f805f60608486031215612d1257612d11612b59565b5b5f84013567ffffffffffffffff811115612d2f57612d2e612b5d565b5b612d3b86828701612cce565b9350506020612d4c86828701612b80565b9250506040612d5d86828701612b80565b9150509250925092565b612d7081612b61565b82525050565b5f602082019050612d895f830184612d67565b92915050565b5f805f8060808587031215612da757612da6612b59565b5b5f612db487828801612b80565b945050602085013567ffffffffffffffff811115612dd557612dd4612b5d565b5b612de187828801612cce565b9350506040612df287828801612b80565b9250506060612e0387828801612b80565b91505092959194509250565b5f805f805f60a08688031215612e2857612e27612b59565b5b5f86013567ffffffffffffffff811115612e4557612e44612b5d565b5b612e5188828901612cce565b955050602086013567ffffffffffffffff811115612e7257612e71612b5d565b5b612e7e88828901612cce565b945050604086013567ffffffffffffffff811115612e9f57612e9e612b5d565b5b612eab88828901612cce565b935050606086013567ffffffffffffffff811115612ecc57612ecb612b5d565b5b612ed888828901612cce565b9250506080612ee988828901612b80565b9150509295509295909350565b5f81519050919050565b5f82825260208201905092915050565b5f5b83811015612f2d578082015181840152602081019050612f12565b5f8484015250505050565b5f612f4282612ef6565b612f4c8185612f00565b9350612f5c818560208601612f10565b612f6581612bc7565b840191505092915050565b5f6060820190508181035f830152612f888186612f38565b90508181036020830152612f9c8185612f38565b9050612fab6040830184612d67565b949350505050565b5f81519050919050565b5f82825260208201905092915050565b5f819050602082019050919050565b612fe581612b61565b82525050565b5f82825260208201905092915050565b5f61300582612ef6565b61300f8185612feb565b935061301f818560208601612f10565b61302881612bc7565b840191505092915050565b5f608083015f8301516130485f860182612fdc565b50602083015184820360208601526130608282612ffb565b91505060408301516130756040860182612fdc565b5060608301516130886060860182612fdc565b508091505092915050565b5f61309e8383613033565b905092915050565b5f602082019050919050565b5f6130bc82612fb3565b6130c68185612fbd565b9350836020820285016130d885612fcd565b805f5b8581101561311357848403895281516130f48582613093565b94506130ff836130a6565b925060208a019950506001810190506130db565b50829750879550505050505092915050565b5f6020820190508181035f83015261313d81846130b2565b905092915050565b5f81519050919050565b5f82825260208201905092915050565b5f819050602082019050919050565b5f608083015f8301516131835f860182612fdc565b506020830151848203602086015261319b8282612ffb565b91505060408301516131b06040860182612fdc565b5060608301516131c36060860182612fdc565b508091505092915050565b5f6131d9838361316e565b905092915050565b5f602082019050919050565b5f6131f782613145565b613201818561314f565b9350836020820285016132138561315f565b805f5b8581101561324e578484038952815161322f85826131ce565b945061323a836131e1565b925060208a01995050600181019050613216565b50829750879550505050505092915050565b5f6020820190508181035f83015261327881846131ed565b905092915050565b5f608083015f8301516132955f860182612fdc565b50602083015184820360208601526132ad8282612ffb565b91505060408301516132c26040860182612fdc565b5060608301516132d56060860182612fdc565b508091505092915050565b5f6020820190508181035f8301526132f88184613280565b905092915050565b5f81519050919050565b5f82825260208201905092915050565b5f819050602082019050919050565b5f606083015f8301518482035f8601526133438282612ffb565b9150506020830151848203602086015261335d8282612ffb565b91505060408301516133726040860182612fdc565b508091505092915050565b5f608083015f8301516133925f860182612fdc565b50602083015184820360208601526133aa8282612ffb565b915050604083015184820360408601526133c48282612ffb565b915050606083015184820360608601526133de8282613329565b9150508091505092915050565b5f6133f6838361337d565b905092915050565b5f602082019050919050565b5f61341482613300565b61341e818561330a565b9350836020820285016134308561331a565b805f5b8581101561346b578484038952815161344c85826133eb565b9450613457836133fe565b925060208a01995050600181019050613433565b50829750879550505050505092915050565b5f6020820190508181035f830152613495818461340a565b905092915050565b5f6060820190508181035f8301526134b58186612f38565b90506134c46020830185612d67565b6134d16040830184612d67565b949350505050565b5f6080820190506134ec5f830187612d67565b81810360208301526134fe8186612f38565b905061350d6040830185612d67565b61351a6060830184612d67565b95945050505050565b5f73ffffffffffffffffffffffffffffffffffffffff82169050919050565b5f61354c82613523565b9050919050565b61355c81613542565b8114613566575f80fd5b50565b5f8135905061357781613553565b92915050565b5f806040838503121561359357613592612b59565b5b5f6135a085828601613569565b92505060206135b185828601612b80565b9150509250929050565b5f60a0820190506135ce5f830188612d67565b6135db6020830187612d67565b6135e86040830186612d67565b81810360608301526135fa8185612f38565b90506136096080830184612d67565b9695505050505050565b5f67ffffffffffffffff82111561362d5761362c612bd7565b5b602082029050602081019050919050565b5f80fd5b5f61365461364f84613613565b612c35565b905080838252602082019050602084028301858111156136775761367661363e565b5b835b818110156136a0578061368c8882612b80565b845260208401935050602081019050613679565b5050509392505050565b5f82601f8301126136be576136bd612bbf565b5b81356136ce848260208601613642565b91505092915050565b5f80604083850312156136ed576136ec612b59565b5b5f83013567ffffffffffffffff81111561370a57613709612b5d565b5b613716858286016136aa565b925050602083013567ffffffffffffffff81111561373757613736612b5d565b5b613743858286016136aa565b9150509250929050565b5f806040838503121561376357613762612b59565b5b5f83013567ffffffffffffffff8111156137805761377f612b5d565b5b61378c85828601612cce565b925050602083013567ffffffffffffffff8111156137ad576137ac612b5d565b5b6137b985828601612cce565b9150509250929050565b5f8115159050919050565b6137d7816137c3565b82525050565b5f6020820190506137f05f8301846137ce565b92915050565b5f606083015f8301518482035f8601526138108282612ffb565b9150506020830151848203602086015261382a8282612ffb565b915050604083015161383f6040860182612fdc565b508091505092915050565b5f60808201905061385d5f830187612d67565b818103602083015261386f8186612f38565b905081810360408301526138838185612f38565b9050818103606083015261389781846137f6565b905095945050505050565b5f805f805f8060c087890312156138bc576138bb612b59565b5b5f6138c989828a01612b80565b965050602087013567ffffffffffffffff8111156138ea576138e9612b5d565b5b6138f689828a01612cce565b955050604087013567ffffffffffffffff81111561391757613916612b5d565b5b61392389828a01612cce565b945050606087013567ffffffffffffffff81111561394457613943612b5d565b5b61395089828a01612cce565b935050608087013567ffffffffffffffff81111561397157613970612b5d565b5b61397d89828a01612cce565b92505060a061398e89828a01612b80565b9150509295509295509295565b7f496e76616c69642062616e6b20494400000000000000000000000000000000005f82015250565b5f6139cf600f83612f00565b91506139da8261399b565b602082019050919050565b5f6020820190508181035f8301526139fc816139c3565b9050919050565b7f496e76616c696420737570706c696572204944000000000000000000000000005f82015250565b5f613a37601383612f00565b9150613a4282613a03565b602082019050919050565b5f6020820190508181035f830152613a6481613a2b565b9050919050565b7f4e487b71000000000000000000000000000000000000000000000000000000005f52603260045260245ffd5b7f4e487b71000000000000000000000000000000000000000000000000000000005f52601160045260245ffd5b5f613acf82612b61565b9150613ada83612b61565b9250828203905081811115613af257613af1613a98565b5b92915050565b7f4e487b71000000000000000000000000000000000000000000000000000000005f52603160045260245ffd5b5f613b2f82612b61565b91507fffffffffffffffffffffffffffffffffffffffffffffffffffffffffffffffff8203613b6157613b60613a98565b5b600182019050919050565b7f4e487b71000000000000000000000000000000000000000000000000000000005f52602260045260245ffd5b5f6002820490506001821680613bb057607f821691505b602082108103613bc357613bc2613b6c565b5b50919050565b5f819050815f5260205f209050919050565b5f6020601f8301049050919050565b5f82821b905092915050565b5f60088302613c257fffffffffffffffffffffffffffffffffffffffffffffffffffffffffffffffff82613bea565b613c2f8683613bea565b95508019841693508086168417925050509392505050565b5f819050919050565b5f613c6a613c65613c6084612b61565b613c47565b612b61565b9050919050565b5f819050919050565b613c8383613c50565b613c97613c8f82613c71565b848454613bf6565b825550505050565b5f90565b613cab613c9f565b613cb6818484613c7a565b505050565b5b81811015613cd957613cce5f82613ca3565b600181019050613cbc565b5050565b601f821115613d1e57613cef81613bc9565b613cf884613bdb565b81016020851015613d07578190505b613d1b613d1385613bdb565b830182613cbb565b50505b505050565b5f82821c905092915050565b5f613d3e5f1984600802613d23565b1980831691505092915050565b5f613d568383613d2f565b9150826002028217905092915050565b613d6f82612ef6565b67ffffffffffffffff811115613d8857613d87612bd7565b5b613d928254613b99565b613d9d828285613cdd565b5f60209050601f831160018114613dce575f8415613dbc578287015190505b613dc68582613d4b565b865550613e2d565b601f198416613ddc86613bc9565b5f5b82811015613e0357848901518255600182019150602085019450602081019050613dde565b86831015613e205784890151613e1c601f891682613d2f565b8355505b6001600288020188555050505b505050505050565b7f496e76616c69642070726f6475637420494400000000000000000000000000005f82015250565b5f613e69601283612f00565b9150613e7482613e35565b602082019050919050565b5f6020820190508181035f830152613e9681613e5d565b9050919050565b7f537570706c696572206e616d652063616e6e6f7420626520656d7074790000005f82015250565b5f613ed1601d83612f00565b9150613edc82613e9d565b602082019050919050565b5f6020820190508181035f830152613efe81613ec5565b9050919050565b7f537570706c696572206e756d6265722063616e6e6f7420626520656d707479005f82015250565b5f613f39601f83612f00565b9150613f4482613f05565b602082019050919050565b5f6020820190508181035f830152613f6681613f2d565b9050919050565b7f42616e6b206e616d652063616e6e6f7420626520656d707479000000000000005f82015250565b5f613fa1601983612f00565b9150613fac82613f6d565b602082019050919050565b5f6020820190508181035f830152613fce81613f95565b9050919050565b7f536f727420636f64652063616e6e6f7420626520656d707479000000000000005f82015250565b5f614009601983612f00565b915061401482613fd5565b602082019050919050565b5f6020820190508181035f83015261403681613ffd565b9050919050565b7f42616e6b206163636f756e74206e756d6265722063616e6e6f74206265207a655f8201527f726f000000000000000000000000000000000000000000000000000000000000602082015250565b5f614097602283612f00565b91506140a28261403d565b604082019050919050565b5f6020820190508181035f8301526140c48161408b565b9050919050565b5f6140d582612b61565b91506140e083612b61565b92508282019050808211156140f8576140f7613a98565b5b92915050565b7f496e73756666696369656e742062616c616e63650000000000000000000000005f82015250565b5f614132601483612f00565b915061413d826140fe565b602082019050919050565b5f6020820190508181035f83015261415f81614126565b9050919050565b7f4f72646572206e6f7420666f756e64206f7220616c72656164792072656365695f8201527f7665640000000000000000000000000000000000000000000000000000000000602082015250565b5f6141c0602383612f00565b91506141cb82614166565b604082019050919050565b5f6020820190508181035f8301526141ed816141b4565b9050919050565b7f4c656e677468206d69736d6174636800000000000000000000000000000000005f82015250565b5f614228600f83612f00565b9150614233826141f4565b602082019050919050565b5f6020820190508181035f8301526142558161421c565b9050919050565b7f4261636b757020616d6f756e742063616e6e6f74206265207a65726f000000005f82015250565b5f614290601c83612f00565b915061429b8261425c565b602082019050919050565b5f6020820190508181035f8301526142bd81614284565b9050919050565b7f42616e6b2064657461696c7320616c72656164792061646465640000000000005f82015250565b5f6142f8601a83612f00565b9150614303826142c4565b602082019050919050565b5f6020820190508181035f830152614325816142ec565b9050919050565b5f81905092915050565b5f61434082612ef6565b61434a818561432c565b935061435a818560208601612f10565b80840191505092915050565b5f6143718284614336565b91508190509291505056fea264697066735822122079ecc9be34417a8ce98e496ac816e91c1b6df75bcc541905d2b18276e0d8f01c64736f6c63430008150033",
  "immutableReferences": {},
  "source": "// SPDX-License-Identifier: GPL-3.0\r\n\r\npragma solidity >=0.7.0 <0.9.0;\r\n\r\ncontract InventoryPayment {\r\n    struct Product {\r\n        uint256 productId;\r\n        string productName;\r\n        uint256 productPrice;\r\n        uint256 productQty;\r\n    }\r\n\r\n    struct Order {\r\n        uint256 orderNo;\r\n        uint256 orderDate;\r\n        uint256 orderTotalAmount;\r\n        string orderStatus;\r\n        uint256 supplierId;\r\n        mapping(uint256 => OrderDetail) orderDetails;\r\n    }\r\n\r\n    struct OrderDetail {\r\n        uint256 productId;\r\n        uint256 productQtyOrder;\r\n        uint256 productQtyReceived;\r\n    }\r\n\r\n    struct Supplier {\r\n        uint256 supplierId;\r\n        string supplierName;\r\n        string supplierNumber;\r\n        SupplierBank supplierBank;\r\n    }\r\n\r\n    struct SupplierBank {\r\n        string bankName;\r\n        string sortCode;\r\n        uint256 accountNumber;\r\n    }\r\n\r\n    struct Bank {\r\n        uint256 id;\r\n        string bankName;\r\n        uint256 bankAccountNumber;\r\n        uint256 backupAmount;\r\n    }\r\n\r\n    uint256 public productCount;\r\n    uint256 public bankCount;\r\n    uint256 public orderCount;\r\n    uint256 public supplierCount;\r\n\r\n    mapping(uint256 => Product) public products;\r\n    mapping(address => Order[]) public userOrders;\r\n    mapping(uint256 => Bank) public userBankDetails;\r\n    mapping(uint256 => SupplierBank) public supplierBankDetails;\r\n    mapping(uint256 => Supplier) public suppliers;\r\n    uint256[] public activeProductIds;\r\n    uint256[] public activeSupplierIds;\r\n\r\n    event OrderPlaced(uint256 indexed orderNo, address indexed user);\r\n\r\n    event BankAdded(uint256 indexed bankId);\r\n    event BankUpdated(uint256 indexed bankId);\r\n    event BankDeleted(uint256 indexed bankId);\r\n\r\n    event ProductAdded(uint256 indexed productId);\r\n    event ProductUpdated(uint256 indexed productId);\r\n    event ProductDeleted(uint256 indexed productId);\r\n    event PaymentSent(\r\n        uint256 indexed orderNo,\r\n        address indexed supplier,\r\n        uint256 amount\r\n    );\r\n\r\n    event SupplierAdded(uint256 indexed supId);\r\n    event SupplierUpdated(uint256 indexed supId);\r\n    event SupplierDeleted(uint256 indexed supId);\r\n\r\n    // Function to add supplier details\r\n    function addSupplier(\r\n        string memory _supplierName,\r\n        string memory _supplierNumber,\r\n        string memory _bankName,\r\n        string memory _sortCode,\r\n        uint256 _bankAccountNumber\r\n    ) external {\r\n        require(\r\n            bytes(_supplierName).length > 0,\r\n            \"Supplier name cannot be empty\"\r\n        );\r\n        require(\r\n            bytes(_supplierNumber).length > 0,\r\n            \"Supplier number cannot be empty\"\r\n        );\r\n        require(bytes(_bankName).length > 0, \"Bank name cannot be empty\");\r\n        require(bytes(_sortCode).length > 0, \"Sort code cannot be empty\");\r\n        require(_bankAccountNumber != 0, \"Bank account number cannot be zero\");\r\n\r\n        supplierCount++;\r\n        suppliers[supplierCount] = Supplier(\r\n            supplierCount,\r\n            _supplierName,\r\n            _supplierNumber,\r\n            SupplierBank(_bankName, _sortCode, _bankAccountNumber)\r\n        );\r\n        activeSupplierIds.push(supplierCount);\r\n\r\n        emit SupplierAdded(supplierCount);\r\n    }\r\n\r\n    // Function to get all supplier details\r\n    function getAllSuppliersDetails()\r\n        external\r\n        view\r\n        returns (Supplier[] memory)\r\n    {\r\n        Supplier[] memory allSuppliers = new Supplier[](supplierCount);\r\n        for (uint256 i = 1; i <= supplierCount; i++) {\r\n            allSuppliers[i - 1] = suppliers[i];\r\n        }\r\n        return allSuppliers;\r\n    }\r\n\r\n    // Function to update supplier details\r\n    function updateSupplier(\r\n        uint256 _supplierId,\r\n        string memory _newName,\r\n        string memory _newNumber,\r\n        string memory _newBankName,\r\n        string memory _newSortCode,\r\n        uint256 _newAccountNumber\r\n    ) external {\r\n        require(\r\n            _supplierId <= supplierCount && _supplierId > 0,\r\n            \"Invalid supplier ID\"\r\n        );\r\n        Supplier storage supplier = suppliers[_supplierId];\r\n        supplier.supplierName = _newName;\r\n        supplier.supplierNumber = _newNumber;\r\n        supplier.supplierBank.bankName = _newBankName;\r\n        supplier.supplierBank.sortCode = _newSortCode;\r\n        supplier.supplierBank.accountNumber = _newAccountNumber;\r\n        emit SupplierUpdated(_supplierId);\r\n    }\r\n\r\n    // Function to delete a supplier\r\n    function deleteSupplier(uint256 _supplierId) external {\r\n        require(\r\n            _supplierId <= supplierCount && _supplierId > 0,\r\n            \"Invalid supplier ID\"\r\n        );\r\n        delete suppliers[_supplierId];\r\n        emit SupplierDeleted(_supplierId);\r\n\r\n        // Remove the supplier ID from activeSupplierIds array\r\n        for (uint256 i = 0; i < activeSupplierIds.length; i++) {\r\n            if (activeSupplierIds[i] == _supplierId) {\r\n                activeSupplierIds[i] = activeSupplierIds[\r\n                    activeSupplierIds.length - 1\r\n                ];\r\n                activeSupplierIds.pop();\r\n                break;\r\n            }\r\n        }\r\n    }\r\n\r\n    // Function to get user bank details\r\n    function getUserBankDetails(\r\n        uint256 _user\r\n    ) external view returns (Bank memory) {\r\n        return userBankDetails[_user];\r\n    }\r\n\r\n    // Function to add user bank details\r\n    function addUserBankDetails(\r\n        string memory _bankName,\r\n        uint256 _bankAccountNumber,\r\n        uint256 _backupAmount\r\n    ) external {\r\n        require(bytes(_bankName).length > 0, \"Bank name cannot be empty\");\r\n        require(_bankAccountNumber != 0, \"Bank account number cannot be zero\");\r\n        require(_backupAmount != 0, \"Backup amount cannot be zero\");\r\n        require(\r\n            userBankDetails[bankCount].id == 0,\r\n            \"Bank details already added\"\r\n        );\r\n\r\n        bankCount++;\r\n        userBankDetails[bankCount] = Bank(\r\n            bankCount,\r\n            _bankName,\r\n            _bankAccountNumber,\r\n            _backupAmount\r\n        );\r\n        emit BankAdded(bankCount);\r\n    }\r\n\r\n    // Function to get user bank details\r\n    function getBankDetails() external view returns (Bank[] memory) {\r\n        Bank[] memory allBank = new Bank[](bankCount);\r\n        for (uint256 i = 1; i <= bankCount; i++) {\r\n            allBank[i - 1] = userBankDetails[i];\r\n        }\r\n        return allBank;\r\n    }\r\n\r\n    // Function to view details of a specific product\r\n    function viewBank(\r\n        uint256 _bankId\r\n    )\r\n        external\r\n        view\r\n        returns (string memory bankName, uint256 bankNumber, uint256 bankAmout)\r\n    {\r\n        require(_bankId <= bankCount && _bankId > 0, \"Invalid bank ID\");\r\n        Bank memory bank = userBankDetails[_bankId];\r\n        return (bank.bankName, bank.bankAccountNumber, bank.bankAccountNumber);\r\n    }\r\n\r\n    // Function to update details of a product\r\n    function updateBank(\r\n        uint256 _bankId,\r\n        string memory _newName,\r\n        uint256 _newAccountNumber,\r\n        uint256 _newAmount\r\n    ) external {\r\n        require(_bankId <= bankCount && _bankId > 0, \"Invalid bank ID\");\r\n        Bank storage bank = userBankDetails[_bankId];\r\n        bank.bankName = _newName;\r\n        bank.bankAccountNumber = _newAccountNumber;\r\n        bank.backupAmount = _newAmount;\r\n        emit BankUpdated(_bankId);\r\n    }\r\n\r\n    // Function to delete a product\r\n    function deleteBank(uint256 _bankId) external {\r\n        require(_bankId <= bankCount && _bankId > 0, \"Invalid bank ID\");\r\n        delete products[_bankId];\r\n        emit BankDeleted(_bankId);\r\n    }\r\n\r\n    // Function to add a new product\r\n    function addProduct(\r\n        string memory _productName,\r\n        uint256 _productPrice,\r\n        uint256 _productQty\r\n    ) external {\r\n        productCount++;\r\n        products[productCount] = Product(\r\n            productCount,\r\n            _productName,\r\n            _productPrice,\r\n            _productQty\r\n        );\r\n        activeProductIds.push(productCount);\r\n        emit ProductAdded(productCount);\r\n    }\r\n\r\n    // Function to view details of a specific product\r\n    function viewProduct(\r\n        uint256 _productId\r\n    )\r\n        external\r\n        view\r\n        returns (\r\n            string memory productName,\r\n            uint256 productPrice,\r\n            uint256 productQty\r\n        )\r\n    {\r\n        require(\r\n            _productId <= productCount && _productId > 0,\r\n            \"Invalid product ID\"\r\n        );\r\n        Product memory product = products[_productId];\r\n        return (product.productName, product.productPrice, product.productQty);\r\n    }\r\n\r\n    // Function to update details of a product\r\n    function updateProduct(\r\n        uint256 _productId,\r\n        string memory _newName,\r\n        uint256 _newPrice,\r\n        uint256 _newQty\r\n    ) external {\r\n        require(\r\n            _productId <= productCount && _productId > 0,\r\n            \"Invalid product ID\"\r\n        );\r\n        Product storage product = products[_productId];\r\n        product.productName = _newName;\r\n        product.productPrice = _newPrice;\r\n        product.productQty = _newQty;\r\n        emit ProductUpdated(_productId);\r\n    }\r\n\r\n    // Function to delete a product\r\n    function deleteProduct(uint256 _productId) external {\r\n        require(\r\n            _productId <= productCount && _productId > 0,\r\n            \"Invalid product ID\"\r\n        );\r\n        delete products[_productId];\r\n        emit ProductDeleted(_productId);\r\n\r\n        // Remove the product ID from activeProductIds array\r\n        for (uint256 i = 0; i < activeProductIds.length; i++) {\r\n            if (activeProductIds[i] == _productId) {\r\n                activeProductIds[i] = activeProductIds[\r\n                    activeProductIds.length - 1\r\n                ];\r\n                activeProductIds.pop();\r\n                break;\r\n            }\r\n        }\r\n    }\r\n\r\n    // Function to view all products\r\n    function viewAllProducts() external view returns (Product[] memory) {\r\n        Product[] memory allProducts = new Product[](productCount);\r\n        for (uint256 i = 1; i <= productCount; i++) {\r\n            allProducts[i - 1] = products[i];\r\n        }\r\n        return allProducts;\r\n    }\r\n\r\n    // Function to place an order\r\n    function placeOrder(\r\n        uint256[] memory _productIds,\r\n        uint256[] memory _productQtyOrder\r\n    ) external {\r\n        require(\r\n            _productIds.length == _productQtyOrder.length,\r\n            \"Length mismatch\"\r\n        );\r\n\r\n        OrderDetail[] memory orderDetails = new OrderDetail[](\r\n            _productIds.length\r\n        );\r\n        for (uint256 i = 0; i < _productIds.length; i++) {\r\n            require(\r\n                _productIds[i] <= productCount && _productIds[i] > 0,\r\n                \"Invalid product ID\"\r\n            );\r\n            orderDetails[i] = OrderDetail(\r\n                _productIds[i],\r\n                _productQtyOrder[i],\r\n                0\r\n            ); // Initialize received quantity as 0\r\n        }\r\n\r\n        orderCount++;\r\n        uint256 orderNo = orderCount; // Use sequential order number\r\n        Order storage newOrder = userOrders[msg.sender].push();\r\n        newOrder.orderNo = orderNo;\r\n        newOrder.orderDate = block.timestamp;\r\n        newOrder.orderStatus = \"placed\";\r\n\r\n        for (uint256 i = 0; i < orderDetails.length; i++) {\r\n            newOrder.orderDetails[orderDetails[i].productId] = orderDetails[i];\r\n        }\r\n\r\n        emit OrderPlaced(orderNo, msg.sender);\r\n    }\r\n\r\n    function compareStrings(\r\n        string memory a,\r\n        string memory b\r\n    ) public pure returns (bool) {\r\n        return keccak256(abi.encodePacked(a)) == keccak256(abi.encodePacked(b));\r\n    }\r\n\r\n    // Function to mark an order as received\r\n    function receiveOrder(uint256 _orderNo) external {\r\n        Order[] storage orders = userOrders[msg.sender];\r\n        bool orderFound = false;\r\n        for (uint256 i = 0; i < orders.length; i++) {\r\n            if (\r\n                orders[i].orderNo == _orderNo &&\r\n                !compareStrings(orders[i].orderStatus, \"received\")\r\n            ) {\r\n                orders[i].orderStatus = \"received\";\r\n                for (\r\n                    uint256 productId = 1;\r\n                    productId <= productCount;\r\n                    productId++\r\n                ) {\r\n                    if (orders[i].orderDetails[productId].productId != 0) {\r\n                        orders[i]\r\n                            .orderDetails[productId]\r\n                            .productQtyReceived = orders[i]\r\n                            .orderDetails[productId]\r\n                            .productQtyOrder;\r\n                    }\r\n                }\r\n                orderFound = true;\r\n                break;\r\n            }\r\n        }\r\n        require(orderFound, \"Order not found or already received\");\r\n    }\r\n\r\n    // Function to pay a supplier for a received order\r\n    function paySupplier(uint256 _orderNo) external {\r\n        Order[] storage orders = userOrders[msg.sender];\r\n        for (uint256 i = 0; i < orders.length; i++) {\r\n            if (orders[i].orderNo == _orderNo) {\r\n                if (compareStrings(orders[i].orderStatus, \"received\")) {\r\n                    uint256 totalAmount = orders[i].orderTotalAmount;\r\n                    Bank storage userBank = userBankDetails[0];\r\n                    require(\r\n                        userBank.backupAmount + userBank.bankAccountNumber >=\r\n                            totalAmount,\r\n                        \"Insufficient balance\"\r\n                    );\r\n\r\n                    // Logic to transfer funds to supplier's account\r\n                    // Assuming funds transfer logic is implemented elsewhere\r\n\r\n                    // Updating user's bank balance\r\n                    userBank.backupAmount -= totalAmount;\r\n                    emit PaymentSent(_orderNo, msg.sender, totalAmount);\r\n                    break;\r\n                }\r\n            }\r\n        }\r\n    }\r\n}\r\n",
  "sourcePath": "G:\\Ravensbourne\\SEM-2\\WEB3-BLOCKCHAIN\\react\\inventorypaymentsystem\\contracts\\InventoryPayment.sol",
  "compiler": {
    "name": "solc",
    "version": "0.8.21+commit.d9974bed.Emscripten.clang"
  },
  "schemaVersion": "3.4.16",
  "updatedAt": "2024-03-28T10:48:41.238Z",
  "devdoc": {
    "kind": "dev",
    "methods": {},
    "version": 1
  },
  "userdoc": {
    "kind": "user",
    "methods": {},
    "version": 1
  }
}